S00E0000752D626F6F742E73726563C0
S31517800000BE0000EA14F09FE514F09FE514F09FE513
S3151780001014F09FE514F09FE514F09FE514F09FE523
S3151780002060008017C0008017200180178001801715
S31517800030E001801740028017A0028017EFBEADDE61
S31517800040DEC0AD0B00F020E300F020E300F020E3E4
S3151780005000F020E300F020E300F020E300F020E337
S3151780006028D01FE500E08DE500E04FE104E08DE53F
S3151780007013D0A0E30DF069E10FE0A0E10EF0B0E137
S3151780008048D04DE2FF1F8DE850201FE50C0092E8FF
S3151780009048008DE234508DE20E10A0E10F0085E8FE
S315178000A00D00A0E12B0700FA00F020E300F020E313
S315178000B000F020E300F020E300F020E300F020E3D7
S315178000C088D01FE500E08DE500E04FE104E08DE57F
S315178000D013D0A0E30DF069E10FE0A0E10EF0B0E1D7
S315178000E048D04DE2FF1F8DE8B0201FE50C0092E83F
S315178000F048008DE234508DE20E10A0E10F0085E89E
S315178001000D00A0E1190700FA00F020E300F020E3C4
S3151780011000F020E300F020E300F020E300F020E376
S31517800120E8D01FE500E08DE500E04FE104E08DE5BE
S3151780013013D0A0E30DF069E10FE0A0E10EF0B0E176
S3151780014048D04DE2FF1F8DE810211FE50C0092E87D
S3151780015048008DE234508DE20E10A0E10F0085E83D
S315178001600D00A0E1070700FA00F020E300F020E376
S3151780017000F020E300F020E300F020E300F020E316
S3151780018048D11FE500E08DE500E04FE104E08DE5FD
S3151780019013D0A0E30DF069E10FE0A0E10EF0B0E116
S315178001A048D04DE2FF1F8DE870211FE50C0092E8BD
S315178001B048008DE234508DE20E10A0E10F0085E8DD
S315178001C00D00A0E1F50600FA00F020E300F020E329
S315178001D000F020E300F020E300F020E300F020E3B6
S315178001E0A8D11FE500E08DE500E04FE104E08DE53D
S315178001F013D0A0E30DF069E10FE0A0E10EF0B0E1B6
S3151780020048D04DE2FF1F8DE8D0211FE50C0092E8FC
S3151780021048008DE234508DE20E10A0E10F0085E87C
S315178002200D00A0E1E30600FA00F020E300F020E3DA
S3151780023000F020E300F020E300F020E300F020E355
S3151780024008D21FE500E08DE500E04FE104E08DE57B
S3151780025013D0A0E30DF069E10FE0A0E10EF0B0E155
S3151780026048D04DE2FF1F8DE830221FE50C0092E83B
S3151780027048008DE234508DE20E10A0E10F0085E81C
S315178002800D00A0E1D70600FA00F020E300F020E386
S3151780029000F020E300F020E300F020E300F020E3F5
S315178002A068D21FE500E08DE500E04FE104E08DE5BB
S315178002B013D0A0E30DF069E10FE0A0E10EF0B0E1F5
S315178002C048D04DE2FF1F8DE890221FE50C0092E87B
S315178002D048008DE234508DE20E10A0E10F0085E8BC
S315178002E00D00A0E1B90600FA00F020E300F020E344
S315178002F000F020E300F020E300F020E300F020E395
S31517800300120000EA00000FE11F1000E21A0031E325
S315178003101F00C01313008013C00080E300F029E18B
S31517800320100F11EE020AC0E3100F01EE84009FE54D
S31517800330100F0CEE060000EB1D0000EB260500EBF8
S31517800340150F07EE9A0F07EE950F07EE1EFF2FE193
S31517800350EBFFFFEA0000A0E3170F08EE150F07EE75
S31517800360D50F07EE9A0F07EE950F07EE100F11EEC2
S31517800370020AC0E30700C0E3020080E3020B80E3B2
S31517800380010A80E3100F01EE300F1FEE400080E365
S31517800390300F0FEE0E50A0E1101F10EE213AA0E19C
S315178003A00F3003E20F4001E20322A0E1022084E12D
S315178003B005F0A0E1000000EA0000801710D09FE545
S315178003C007D0CDE30090A0E300502DE9420100FA53
S315178003D00090BDE800FF93002DE9F04530EE306FB1
S315178003E000210D464C00631826FA03F303F0070322
S315178003F0023B022B47D840EE104F30EE107FC7F3E3
S31517800400C90307F0070E03F1010A0EF1040EC7F3AD
S315178004104E374FF0FF3CD0465FEA58080CF1010281
S3151780042001D09446F8E713EA0A0F18BF0CF10202B7
S315178004300128C2F1200211D103FA02FABC464AEA10
S31517800440040A0CFA0EF848EA0A0807EE568F1CF1CA
S31517800450FF3CF6D213F1FF33EED212E0022812D107
S3151780046003FA02FABC464AEA040A0CFA0EF848EA74
S315178004700A0807EE5E8F1CF1FF3CF6D213F1FF33A5
S31517800480EED207EE9A5F01310729ABD1BDE8F08529
S31517800490002307EE153F07EED53F07EE9A3F07EE87
S315178004A0953F704770470000174A10B5136823F0B9
S315178004B00103136008324FF499731360536002F681
S315178004C058621168114841F0E04343F00F03006802
S315178004D000F47074C02C09D100F03F0007289EBF26
S315178004E021F0804343F0405343F00F031360084ACB
S315178004F0136843F003031360A2F56862136843F029
S315178005000103136010BD00BF0021A0000020A000CA
S31517800510802FA00070470000024A136823F001035A
S31517800520136070470021A00008B50220FFF754FF1B
S31517800530BDE8084001F02CBB08B50120FFF74CFF3A
S31517800540BDE8084001F01EBB08B5FFF7ADFFFFF702
S31517800550F3FF002308EE173F08EE163F08EE153F08
S3151780056007EE9A3F07EE953F08BD30EE103F012202
S3151780057003F0070304339A4053420340994203D941
S3151780058007EE3E3F1344F9E7002307EE9A3F01F043
S3151780059005BB08B5FFF7E9FF002308EE173F08EEFE
S315178005A0163F08EE153F07EE9A3F07EE953F08BDB3
S315178005B00144FFF7DABF00002DE9F04106460F46E2
S315178005C030EE105F05F007052B1D01259D4005F1BF
S315178005D0FF3810EA080F09D00246741E11491248CF
S315178005E00DF05CF863196C421C4000E0044617EA6C
S315178005F0080F07D03A460B490C480DF04FF86B4257
S315178006003B4000E03B469C4203D207EE364F2C44D4
S31517800610F9E7002307EE9A3F39463046BDE8F041A1
S3151780062001F0CCBA4B6182173F6E8217726E8217B2
S31517800630704708B501F003FB01F064FCFFF728FF4C
S3151780064001F098FCFFF768FFFFF776FFFFF7F0FFDB
S31517800650002008BD4FF42003586800F00300704748
S31517800660114AD2F88032C3F30740602813D0D2F8E4
S3151780067060324FF420025268C3F3074002F0030238
S31517800680612803D1002A08BF662004E0632802D1B7
S31517800690012A08BF6720C3F30722DBB2013203EBB7
S315178006A0021343EA0030704700800C0208B5FFF743
S315178006B0D7FFC0F30733662B04D1C0F30B0040F482
S315178006C0C22008BD672B04BFC0F30B0040F4C620B9
S315178006D008BD000009494FF077330B604B60084A15
S315178006E01360536000230B644B648B64CB640B6578
S315178006F0136453649364D3641365704700C0070209
S3151780070000C0170238B511EE103F23F0020301EE31
S31517800710103F3C4C2368D80305D523F4803300203B
S31517800720236015F039FEFFF7D5FF374A536823F450
S315178007304033536002F58042D2F850311906FBD503
S31517800740324B08220020C3F8542100F091FA304B1F
S3151780075098420DD12C4D00F0D3F96B692D4A23F4AD
S31517800760E053A0FB02010A0D013A43EA82236B612B
S31517800770294A002313814FF003721381236843F4A8
S3151780078080232360FFF76CFFC0F30730632805D1FA
S31517800790FFF766FFC0B2202818D505E0FFF760FF80
S315178007A0C0F307306728F3D01C4A136843F0010358
S315178007B013601B4B1A6842F001021A601A68D20737
S315178007C0FCD4124B4FF47852C3F84821154A136854
S315178007D023F001031360FFF743FFC0F30730632845
S315178007E008D1FFF73DFFC0B2202809D40E4A0F4B18
S315178007F01A6005E0FFF734FFC0F307306728F0D09B
S31517800800002038BD04000E0200400C0200800C0246
S31517800810007B9A17239A080200C00B0260C20D024A
S3151780082000C00D0200800D02010200800806BB0081
S315178008300E4A08B5D2F84031D2F8701121F07C51A2
S31517800840C3F38440C2F87011C0F113000028B8BFF3
S31517800850404248B123F4F80343F49803C2F8403171
S3151780086000EB40001FF06EFF002008BD00800C02D1
S3151780087008B5FFF761FE01F04EFB1E2206490020E0
S3151780088001F006FB1E224FF480214FF41000BDE8BD
S31517800890084001F0FDBA00BFFFFF0F00074BD3F8E2
S315178008A03026100A4A700870D3F820361A0E4B7104
S315178008B08A701A0CCA701A0A0A71704700C01B020E
S315178008C0054B18645A6C10B142F0805201E022F041
S315178008D080525A64704700BF00800D0208B5FFF733
S315178008E0BFFEC0F30730622837D0FFF7B9FEC0F3D3
S315178008F00730642831D0194B9A69C2F34153C2F332
S315178009008142022B09D0022A0ED0012B15D0012A3B
S3151780091013D0032B124B04D110E0012A1AD04FF0B3
S315178009208023032A06D109E0012B13D0032B11D07C
S315178009304FF0802343F4000300E0094B094A4FF038
S315178009408031C2F8F410C2F80431C2F8F810C2F830
S31517800950083108BD4FF08023F0E708BD00400C0230
S315178009608080008000800C027047000038B50C4DDF
S315178009702C78E4B244F0800340F6B8302B701FF021
S31517800980E1FE44F0C00340F6B8302B701FF0DAFE54
S3151780099044F0C8042C70034B00221A7038BD00BF70
S315178009A00030120005401200054B10B51B685C69B4
S315178009B000F05AFCC4F30121013123F0EEE910BD92
S315178009C09C1A831708B50B4B1A6844F21003D35831
S315178009D0516A03F00303084A01F03F015B000131B6
S315178009E014335343054AA3FB0223980823F0D4E90B
S315178009F008BD00BF9C1A831700366E01ABAAAAAA38
S31517800A00012837B50CD0022829D1164B44F2F002AB
S31517800A101B689C5844F210029A5802F003020BE0A6
S31517800A2003291CD00F4B1B6803F58242146844F2C6
S31517800A3030029A5802F0010252000B4B1432CD0045
S31517800A403F2102A853431222A9402140E940A3FB24
S31517800A50022360E902231FF0A5FC009800E000201E
S31517800A6003B030BD9C1A831700366E01144B10B530
S31517800A701A68D369546A032819D8DFE800F0020781
S31517800A800C11C4F3C22403F480330DE0C4F302447B
S31517800A9003F4003308E0C4F3C24403F4802303E06D
S31517800AA0C4F3825403F4002313B1002101E0002418
S31517800AB002210120FFF7A4FF611C23F06EE910BD08
S31517800AC09C1A8317054B1A68136F10B143F440535A
S31517800AD001E023F440531367704700BF9C1A8317AE
S31517800AE0064B1A68D2F8803010B143F0030301E041
S31517800AF023F00303C2F88030704700BF9C1A831710
S31517800B001F4B10B51B68596911F0007414D09A6978
S31517800B10C1F3C261C2F3013222B1022A194888BFD2
S31517800B20002029E044F210029858164B00F0030073
S31517800B304000143058431FE09869C0F3814002285B
S31517800B400FD0032812D0012809D044F230029858C2
S31517800B500C4B00F001004000143058430BE0022183
S31517800B6001E001202146FFF74BFF04E00221012017
S31517800B70FFF746FF40082146013123F00EE910BDE5
S31517800B809C1A831700366E010B4B10B51B685B6971
S31517800B905A06C3F3024408D51B0647BF0221012014
S31517800BA001210220FFF72CFF01E0FFF7A9FF611C47
S31517800BB023F0F2E810BD00BF9C1A8317032910B5DE
S31517800BC02DD8184BD3F8E03010B923F0030304E07F
S31517800BD0890023F00F0301F00C011943CB0401D4CC
S31517800BE000290FDB21F480510E4B0F4AC3F8E01012
S31517800BF0013A04D0D3F8E040002CF9DA02E06FF01E
S31517800C006D0010BD10B941F4005101E041F4801117
S31517800C1021F48031034B0020C3F8E01010BD6FF02C
S31517800C20150010BD00800C02A1860100FFF7CABE11
S31517800C30024A136823F03003136070477C400C0216
S31517800C400A4B1A69002A0FDB4FF480525A618022A9
S31517800C50C3F87821054A19690029FBDA4FF48033DE
S31517800C6093614FF400535361704700BF00800C02A5
S31517800C7010B5014610287CD8DFE800F00918771CD4
S31517800C8020282C3D41616C6E7375777B20003B4B1A
S31517800C901B68196903F58043186801F00701384BFB
S31517800CA0013100F07F005843400850E0BDE81040FE
S31517800CB0FFF726BFBDE81040FFF776BE2F4B1B68A0
S31517800CC0DC69FFF771FE04F03F013FE0BDE8104095
S31517800CD0FFF778BE294B44F2100229481B68996B97
S31517800CE09B58C1F3C54103F0030301315B00C9006B
S31517800CF0143358432BE0BDE81040FFF745BF1F4B11
S31517800D001B68D969C1F3C254C1F34171022911D045
S31517800D1003290ED0012902D0FFF736FF0DE044F2E2
S31517800D20100217489B5803F003035B00143358438C
S31517800D3003E000210120FFF763FE611C07E00F4BDC
S31517800D401B685C69FFF7DCFEC4F3C241013123F0EF
S31517800D5024E810BD002000E00120BDE81040FFF711
S31517800D6085BE0220F9E70320F7E7BDE8104000F0BB
S31517800D707BBA04480CF092FC002010BD9C1A83178E
S31517800D8000366E01006F82170320FFF771BF0000D0
S31517800D9070B5544E544D554C336803F580431868D7
S31517800DA000F07F0068434008A0FB04015048890C77
S31517800DB00CF074FC326844F23003D05800F001000E
S31517800DC0400014306843A0FB04014A48890C0CF094
S31517800DD065FC326844F21003D05800F003004000D7
S31517800DE014306843A0FB04014348890C0CF056FC69
S31517800DF0326844F2E003D35803F00303581C00EB20
S31517800E0053003E4B5843A0FB04013D483D4C890C8B
S31517800E100CF044FC3C480CF041FC0320FFF728FFFC
S31517800E20A0FB0401394889090CF038FC0520FFF727
S31517800E301FFFA0FB0401364889090CF02FFC0220FE
S31517800E40FFF716FFA0FB0401324889090CF026FC30
S31517800E500720FFF70DFFA0FB04012F4889090CF027
S31517800E601DFC0920FFF704FFA0FB04012B48890905
S31517800E700CF014FC0A20FFF7FBFEA0FB04012848A0
S31517800E8089090CF00BFC0B20FFF7F2FEA0FB04017F
S31517800E90244889090CF002FC0C20FFF7E9FEA0FB19
S31517800EA00401214889090CF0F9FB0D20FFF7E0FEB4
S31517800EB0A0FB04011D4889090CF0F0FB0820FFF7F9
S31517800EC0D7FEA0FB04011A4889090CF0E7FB04201A
S31517800ED0FFF7CEFEA0FB0401164889090CF0DEFB4E
S31517800EE0002070BD9C1A831700366E0183DE1B4364
S31517800EF0196F82172D6F8217416F821740787D0180
S31517800F00556F8217D34D621031798217696F8217A1
S31517800F107D6F8217916F8217A56F8217B96F8217A8
S31517800F20CD6F8217E16F8217F56F82170970821757
S31517800F301D70821731708217024A536F43F003036D
S31517800F405367704700400C02044A054B116853F8E3
S31517800F50203000200B431360704700BF00800D02BE
S31517800F60D043821708B50146064B1A68064B53F8C5
S31517800F70203006481A4214BF012200220CF08EFB3D
S31517800F80002008BD00800D02C04382175470821757
S31517800F901346002110B51022044618681FF0CAFFA1
S31517800FA0022C06D0032C07D0012C10D1094B98623E
S31517800FB004E0084B186301E0064B9863054A002046
S31517800FC0054B116853F824300B43136010BD01206D
S31517800FD010BD00BF00800D02C043821710B50446AE
S31517800FE0FFF738FBA04234BF0020012010BD000058
S31517800FF0044A054B53F820100020136823EA01038F
S315178010001360704700800D02C0438217F0B500F059
S315178010107F4401F00F0501F4F873220EC0F30B0419
S3151780102004F103741E0942EA05222B0E04F50034D7
S31517801030114D26600D4052EA03044FEA552507D015
S3151780104002F1037201F0F04702F50032FB0E1360CE
S31517801050AB030FD4094A0023194010400B0B020B20
S3151780106042EA015252EA03011EBF02F1037202F5E8
S3151780107000321560F0BD00BF00FEFF0700F0FF00CD
S3151780108070B504460E46FFF7EBFAC0F307306328B0
S3151780109006D0FFF7E5FAC0F30730672818BF08347C
S315178010A00025B54204F1100405D054E90401013531
S315178010B0FFF7ACFFF5E770BD0E4B10B519689C6945
S315178010C00D48C1F30253C1F302620C32C35C0B485D
S315178010D01A44C1F30143C1F380711944C4F3401311
S315178010E0C35C13440B44202B1ABF012098404FF042
S315178010F0704010BD00001B02D9638217D763821711
S31517801100513821289ABF024B53F82000014870475F
S3151780111018428217F3AC8217F0B585B0FFF7A0FA9D
S315178011203E4F0446FFF79CFA04F47F2604F00F051A
S3151780113004F0F004C0F30730632815D1FFF790FA4F
S31517801140C0B2202816D4300BFFF7DAFF06460020E8
S31517801150FFF78EFD2209013AA0FB070130488B0C59
S31517801160314600932B4614E0FFF77AFAC0F307301F
S315178011706728E3D0300BFFF7C3FF06460020FFF73B
S3151780118077FD2209A0FB070126488B0C3146009371
S315178011902B460CF083FA02AA00210E2010F0DAFAF9
S315178011A058B903A9029815F003F920B903991E486F
S315178011B00CF074FA04E01D4800E01D480CF06EFA36
S315178011C01C4A93689360102B1B4A136017D005D857
S315178011D0042B10D0082B10D0012B03E0202B10D016
S315178011E002D8112B11D112E0402B0CD0B3F5803FCA
S315178011F00BD112490CE012490AE0124908E012494C
S3151780120006E0124904E0124902E0124900E0124949
S3151780121012480CF043FA002005B0F0BD83DE1B435D
S31517801220A5708217D2708217FE7082171771821770
S315178012304071821700800D02A01A83178D7082174E
S31517801240677082176B70821774708217797082171E
S315178012508570821797708217637082176E718217DF
S3151780126017F018BE15F022BF054B10B55C69FFF74E
S3151780127047FCC4F38221013122F08EED10BD00BFE9
S3151780128000400C0208B508F073FCFFF7D1FCBDE8E7
S31517801290084012F0D7BC10B50A204C46FFF7E8FC79
S315178012A0C4F8D000002010BD2DE9F0412E480BF070
S315178012B097FF2E4F054620B100244C26DFF8B080C5
S315178012C023E02B4E0446B0463B689C420AD2F3680D
S315178012D083B13046984768B17569264829460CF018
S315178012E0DDF9ADB9D8F814500024234829460CF0F7
S315178012F0D5F90DE001344C36E6E706FB048328461C
S3151780130059691FF0F9F818B101343B689C42F4D338
S315178013103B689C4220D24C20154D002160432E18E5
S31517801320B2683046143012F0D7FE024668B9336970
S315178013300BB1304698474C23104803FB0454236A55
S31517801340E26961690CF0AAF903E071690C480CF03F
S31517801350A5F90020BDE8F08129460A480CF09EF9C8
S315178013606FF01500BDE8F08126728217A41A8317CD
S31517801370104882172C7282174472821766728217E8
S315178013807B7282179C728217024B1878C0B200F054
S31517801390F200704704301200374B4FF4004210B5F5
S315178013A000211A606422013A1960FCD1324B1B68FE
S315178013B023F4E074FFF754F9C0F30730632806D196
S315178013C0FFF74EF9C0B2103800281EDC05E0FFF78C
S315178013D047F9C0F307306728F2D0FFF741F9C0F312
S315178013E00730612811D0FFF73BF9C0F3073066281D
S315178013F00BD0FFF735F9C0F30730622805D0FFF712
S315178014002FF9C0F3073064282BD1FFF729F9C0F3DA
S315178014100730612805D0FFF723F9C0F30730662810
S3151780142008D1154A44F4A8634FF4E04143F0010309
S31517801430516018E0FFF714F9C0F307306228F0D02F
S31517801440FFF70EF9C0F307307228EAD0FFF708F9CD
S31517801450C0F307306428E4D044F4A07343F0010343
S3151780146001E044F04103044A00201360526AC9F828
S31517801470DC20C9F8D80010BD008009020B4B596AC9
S31517801480D9F8DC2091423EBFD9F8D8200132C9F865
S31517801490D8200022C9F8DC10D9F8D810D9F8DC0082
S315178014A00B4642EA00021046194670470080090229
S315178014B0D3B5FFF7E3FFCDE90001FFF7D1F8C0F306
S315178014C00730632806D1FFF7CBF8C0B2103800284B
S315178014D03BDC05E0FFF7C4F8C0F307306728F2D086
S315178014E0FFF7BEF8C0F3073061282ED0FFF7B8F89C
S315178014F0C0F30730662828D0FFF7B2F8C0F3073055
S31517801500622822D0FFF7ACF8C0F3073064281CD0C6
S315178015100420FFF7ADFB0146009A4FF47A70019CC1
S315178015200027A2FB002300FB0434264656EA070051
S315178015302346CDE9002304D1104622F02EEC0090E5
S3151780154005E068461EF02EFF01E00249E4E70098A1
S3151780155002B0D0BDC0C62D0010B50446FFF7A8FF50
S31517801560001B10BD73B5002300900193FFF778F821
S31517801570C0F30730632806D1FFF772F8C0B2103868
S3151780158000284BDC05E0FFF76BF8C0F307306728B8
S31517801590F2D0FFF765F8C0F3073061283ED0FFF722
S315178015A05FF8C0F30730662838D0FFF759F8C0F3CD
S315178015B00730622832D0FFF753F8C0F30730642814
S315178015C02CD00420FFF754FB009A0026019B314646
S315178015D0A2FB0045134A121900FB03554FF000036F
S315178015E06B41CDE900231846014306D10E4BA2FB6A
S315178015F003239B0C8DE8480003E00C4968461EF0D0
S31517801600D1FE009EFFF73AFF841941F10005FFF7D7
S3151780161035FFA94208BFA042F9D301E00448D3E7B2
S3151780162002B070BD3F420F0083DE1B4340420F005E
S31517801630C0C62D0008B5FFF713F8C0F30730632827
S3151780164006D1FFF70DF8C0B21038002823DC05E065
S31517801650FFF706F8C0F307306728F2D0FFF700F8D0
S31517801660C0F30730612816D0FEF7FAFFC0F30730AC
S31517801670662810D0FEF7F4FFC0F3073062280AD029
S31517801680FEF7EEFFC0F30730642804D00420BDE8C8
S315178016900840FFF7EDBA014808BD00BFC0C62D0048
S315178016A02DE9F04D00274FF07C0B0446B846144BB6
S315178016B053F82850ADB1083555F8080C88B11EF087
S315178016C043FF064600F1010A4CB1024626442046DE
S315178016D0544455F8081C1EF09FFF86F800B05744EF
S315178016E0E9E708F10108B8F1020FE0D124B10B221E
S315178016F00449601E1EF090FF07F10A00BDE8F08DC1
S3151780170000B68417B2728217012A2DE9F04D174653
S31517801710984602DC4FF0FF352EE0D3F804A000265A
S31517801720DFF860B05BF826404CB90136022EF1D04F
S31517801730F8E751461EF0E0FE054620B108342068CA
S315178017400028F6D1F1E7032F14D10D49D8F80800F0
S315178017501EF0D2FE0028DDD12E466068FFF7B0F85E
S3151780176056B1636843B100231A461946184600F0E6
S3151780177047FB01E00126F0E72846BDE8F08D00BF5C
S31517801780BD72821700B6841738B505460A4C20698C
S3151780179018B10CF0D5F900232361084B0020084AAD
S315178017A01D605A60FFF77CFF0CF080FA054610B172
S315178017B0FFF776FF256138BD40AC841700B68417CE
S315178017C0A04E8217044B1B78DBB213F0F20F0CBFB7
S315178017D001200020704700BF0430120090D09FE58B
S315178017E007D0CDE30D20A0E1F8D04DE207D0CDE3A9
S315178017F00D90A0E10D10A0E10000A0E3020051E1D9
S315178018000000813504108132FBFFFF3A01DB4DE280
S31517801810C0D089E5AF0800FA40D099E507D0CDE367
S31517801820009099E5F89049E20CE08FE2440099E53B
S3151780183000E08EE0300099E5140000EA100000EB16
S31517801840BEFAFFEB2C009FE52C109FE50020A0E346
S31517801850010050E10020803504008032FBFFFF3AFB
S31517801860700800FB700800FA0900A0E1301099E5AE
S3151780187008F09FE500FF930000B684176C4189171F
S31517801880113C8017300099E5100F0CEE1EFF2FE1E3
S315178018904C109FE5014050E01000000A44209FE558
S315178018A0000CB1E8000CA0E8020051E1FBFFFF3AFB
S315178018B034209FE534309FE50300B2E8FF1001E23C
S315178018C0170051E30300001A040080E0001090E52A
S315178018D0041081E0001080E5030052E1F5FFFF3A1E
S315178018E01EFF2FE10000801700B6841700B68417F5
S315178018F0F82F85171FB50023D9F800200393916C0D
S31517801900D26C8DE80A0001230292694602AA04F076
S3151780191009FE05B05DF804FBD9F8003073B50546A6
S315178019201B6C01F40074066E144801930BF058FC77
S3151780193038B1102101AA1FF035FB019910480BF019
S31517801940ADFE0F2000F08CFC0E4B0F490F48002C74
S3151780195008BF19460BF0A2FEA12000F081FCFEF706
S3151780196068FE2B6F0BB1EA6E02E0D9F800305A6C1D
S3151780197014B901992046B04702B070BDFE7282171E
S31517801980057382178F178317E77282172A73821741
S31517801990D9F80020D9F800306946926CA1F58051A4
S315178019A0DB6C1A44521A1DF045BE7047F8B50646C9
S315178019B034480BF015FC336F4BB130460DF0A3F856
S315178019C000285ED030480BF069FE1EF02BFDD9F843
S315178019D000102E4C4D6C052185E812002C4CAB60FF
S315178019E0EB602B6105F114032360D9F80030B8B189
S315178019F0074610F8013B202BFAD08BB1254B38467A
S31517801A00AB611EF0A1FD39460D30800868612068EC
S31517801A1008301EF039FD23681A6803EB82032360AA
S31517801A20FEF744FE23681C4A032183E806001B49F8
S31517801A3098604D46D9F8002004201961D860916CBA
S31517801A409961D26C5A6103F11C02716E226079B169
S31517801A50B26E6AB12D68521A114D2C3343F8042C85
S31517801A600B4A43F80C5C43F8100C43F8081C1360B8
S31517801A700748FFF79AFF00224B461B6823685A6070
S31517801A801A60F8BD437382174C738217010041544D
S31517801A9008B684170900415407004154020041547F
S31517801AA005004254F8B510F0C00504461E4617D1F6
S31517801AB010F4807703D01846FFF778FF12E010F4FA
S31517801AC0C06505D001461846FFF726FF3D4609E053
S31517801AD01846FFF76BFF21463046FFF71DFF01E0DB
S31517801AE04FF0FF352846F8BD10B50A4B446A9C421D
S31517801AF004D009480BF0C0FD012010BD836A0B6026
S31517801B00C36A13600A68014604480BF0C7FD0020B4
S31517801B1010BD00BF18286F016C73821789738217DF
S31517801B2010B50446C06E58B107491DF059F80028FC
S31517801B3006DAE06EFFF7DEFE10B104480BF09CFD67
S31517801B40BDE81040FEF775BDB4738217BC73821754
S31517801B50036EC06E18470000084B1B6813F4803F4E
S31517801B6014BF4FF480334FF48073013B03600368CF
S31517801B70002BFCD1024A1360704700BF0421A000D6
S31517801B803027A0000148FFF7E7BF00BF7C27A000DA
S31517801B900148FFF7E1BF00BFFC27A000054B20F0E7
S31517801BA01F00884202D218602030FAE7024B0022C3
S31517801BB01A607047F027A0003027A000C20638B5F4
S31517801BC004460D4607D002460C490D481F340BF0C4
S31517801BD065FD24F01F04EB0606D02A4607490948F7
S31517801BE025F01F050BF05AFD074BA54202D91C603D
S31517801BF02034FAE7054B00221A6038BD61618217D7
S31517801C003F6E8217726E82177027A0003027A0004A
S31517801C10D9F840200020C9F83C20D9F84020103A3E
S31517801C20C9F8402070470000034A0020D9F83C3095
S31517801C3008331360704700BF400080177047002035
S31517801C407047000008B501481FF07CFADE738217CB
S31517801C5070B5A2B004468022334902A81EF0DCFC78
S31517801C60A26BE16B3148256C0BF018FD05F07046B9
S31517801C70D9F80420D2070AD5D9F84410A06BD9F819
S31517801C804420E36B821A2A48591A0BF007FDE36A38
S31517801C90226B616B27480BF001FD236A626AA16A82
S31517801CA025480BF0FBFC2369244800936369A269D6
S31517801CB0E1690BF0F3FC236821480093E1686368B8
S31517801CC0A2680BF0EBFC002EB4BF4E216E2115F0E7
S31517801CD0804F14BF5A227A2215F0005F14BF432310
S31517801CE0632315F0805F14BF562076200090154821
S31517801CF00BF0D4FC236C144A22AC144813F0800FD3
S31517801D0014BF1146014613F0400F03F01F0308BF97
S31517801D1002460F4804EB83030E4C009453F8803C1D
S31517801D200BF0BCFC22B070BD98418217F7738217EF
S31517801D30F1738217197482173D748217617482172B
S31517801D4091748217C174821700888217900D831732
S31517801D50D17482178F17831708B5044603480BF07B
S31517801D609DFC2046FFF774FFFFF76CFFF074821710
S31517801D7008B5044603480BF091FC2046FFF768FF29
S31517801D80FFF760FF0775821708B5044603480BF0FF
S31517801D9085FC2046FFF75CFFFFF754FF1B758217FC
S31517801DA008B5044603480BF079FC2046FFF750FF29
S31517801DB0FFF748FF2B75821708B5044603480BF0C3
S31517801DC06DFC2046FFF744FFFFF73CFF37758217F8
S31517801DD008B5044603480BF061FC2046FFF738FF29
S31517801DE0FFF730FF4175821708B5044603480BF095
S31517801DF055FC2046FFF72CFFFFF724FF4675821701
S31517801E0008B508480BF038FC4CF250301EF09AFC97
S31517801E10FFF715FFFEF7A8FD002014F0BDFA002086
S31517801E2008BD00BF4476821782B000230193019BB9
S31517801E30632B03DC0046019B0133F7E702B070473B
S31517801E4038B511EE102F0546FFF7EEFF042802D19D
S31517801E50530712D5052511EE104FFFF7E5FF052D10
S31517801E6007D1FEF761FB24F0040301EE103FFEF75E
S31517801E705BFB24EA050401EE104F38BD7047D9F88D
S31517801E80F03041EA005141F4406143F82010704721
S31517801E90F8B500F57F2303F6FF73050D1944D9F8B6
S31517801EA0F0702E460C0DA64205D230461146FFF726
S31517801EB0E6FF0136F7E707EB840107EB8500BDE8F8
S31517801EC0F840FEF766BB10B5D9F8004004EBC0049E
S31517801ED0A26C120DE36CA16C1B0D03EB115393428D
S31517801EE005D910461E21FFF7CAFF0132F2E710BD4A
S31517801EF008B511EE102FFFF797FF42F4805201EEC7
S31517801F00102F08BD4FF48050FFF79ABF11EE100FB0
S31517801F10C0F30030704710B511EE102F12F0010480
S31517801F201FD1FEF711FB224610461221FFF7A7FF96
S31517801F300132B2F5805FF7D10020FFF7C4FFD9F8D9
S31517801F40F03002EE103F4FF0FF3303EE103FFFF7EE
S31517801F5095FF11EE102FFFF767FF42F0010201EE92
S31517801F60102F11EE102FFFF75FFF42F0040201EEDC
S31517801F70102F10BD0420FFF763BF11EE100FC0F3AB
S31517801F8080007047FEF7F2BCF8B52B480BF028F99E
S31517801F9090B1102200211EF0CDFF064627480BF080
S31517801FA01FF910B1007800F0030015F0A9F904465F
S31517801FB028B923480BF072FB4FF0FF30F8BD16F0A7
S31517801FC047F920480BF00CF918B1057805F0030589
S31517801FD000E001251C480BF003F9074618B91B4981
S31517801FE019480AF0B3FF04F1C80029461AF070FAA7
S31517801FF004460028E0D12A46394615480BF04EFB91
S3151780200014480BF04BFB10480BF0EAF82246314682
S315178020101AF09AFF0028CFDD0F480BF03FFB0F48C9
S315178020200BF0DEF8054628B90D490C480AF08EFFE5
S315178020302846F8BD2046F8BD707682177C768217BB
S3151780204090768217AD768217C2768217D8768217E0
S31517802050E6768217FD088317157782171B778217FF
S315178020602577821710B54C46FFF726F86063002050
S3151780207010BD000008B5036901201A68044B9A42FF
S3151780208005D114F061FAB0FA80F0400908BD08BD91
S315178020900000190238B5072105461248FEF7F0FFEA
S315178020A00A20FEF7E5FD104C042323726060012099
S315178020B014F05EFA2146284614F082FF88B90B2160
S315178020C00A48FEF7DDFF0A20FEF7D2FD082304F142
S315178020D02C0184F8343020632846BDE8384014F044
S315178020E06FBF38BD78408217A81A8317E8408217C2
S315178020F008B543689B6903B19847002008BD00005F
S3151780210010B50A2104460B48FEF7BAFF0A4B012180
S3151780211000205A6842F400125A605A6822F4C8227C
S315178021205A60FEF74BFD20B92046BDE81040FFF7F1
S3151780213097B810BDA83F821700000E0208B5022176
S315178021400D48FEF79DFFFEF7F7FE0C4A536B43F0DB
S3151780215003035363FEF784FAC0F30730632813BF6C
S315178021605021074842F250010648FEF74FFF742068
S3151780217014F0FEF9002008BD4840821700400C0273
S315178021806C014800AC003C000120704708B50F4829
S31517802190FFF7FAFAFEF764FAC0F30730632805D11A
S315178021A00B490C480AF0D2FE0B490AE0FEF758FA9B
S315178021B0C0F307306728F3D0084906480AF0C6FEE9
S315178021C0074908480AF0C2FE002008BD484382170F
S315178021D0297782172E77821738778217547782173F
S315178021E05A7782174B77821708B50121D9F80030AD
S315178021F0034A04485A64FEF743FF002008BD00BF10
S31517802200000100106840821708B5FEF729FAC0F357
S315178022100730632803D10F480BF02EFA05E0FEF737
S315178022201FFAC0F307306728F5D0FEF719FAC0F3FF
S315178022300730662802D108480BF01EFAFEF710FA07
S31517802240C0F30730612802D104480BF015FA002035
S3151780225008BD00BF6F7782178F778217AF77821780
S31517802260704708B5A220FFF7FBFF0CF055FF01F06A
S315178022705DFA01F0A5FABDE808400CF049BF704732
S315178022800720704710B578204C460BF00FFD39495B
S31517802290A066D9F8682038481160D9F86820374978
S315178022A05160D9F8682036499160D9F86820354940
S315178022B0D160D9F8682034491161D9F86820334933
S315178022C05161D9F86810324A8A61D9F86810CA619B
S315178022D0D9F868100862D9F868102E484862D9F874
S315178022E068102D488862D9F868102C48C862D9F8C2
S315178022F068102B480863D9F868102A484863D9F8B4
S31517802300681029488863D9F868102848C863D9F8A7
S31517802310681027480864D9F8681026484864D9F899
S31517802320681025488864D9F868102448C864D9F88D
S31517802330681023480865D9F8681022484865D9F87F
S3151780234068108A65D9F86810CA65D9F868100A6658
S31517802350D9F868104A66D9F868108A66D9F8681065
S31517802360CA66D9F868201849D9F868301167174AA4
S315178023705A6710BD81228017ADDC8017E1D680178A
S3151780238015D7801755D6801779D680179DD680177B
S315178023907F22801741DB80174507821759158017CB
S315178023A02FD78017011E8017E1D180174DCF801741
S315178023B0350F8217A50F8217E70F8217F904821731
S315178023C02D678117F966811701108217D910821721
S315178023D02DE9F041069E079D012E28DDCB0701D5F5
S315178023E0022E24D01022002128681EF0A3FD102269
S315178023F00021074668681EF09DFD4FF480333946E5
S315178024000246044600201DF0CBFF3A19013A394699
S315178024100346804609480BF041F9022E0BD010224D
S315178024200021A8681EF086FDC0F8008003E04FF0F3
S31517802430FF30BDE8F0810020BDE8F081F97782177B
S31517802440026800234360036102B113707047036803
S315178024505A1C02601878002808BF4FF0FF30704763
S315178024600368187870470000034A013810F8013F4F
S315178024700BB1D154FAE770471CB7841701480BF094
S315178024800DB900BF247882172DE9FF4D00264FF02E
S31517802490180B04460191002C3DD00026019B374628
S315178024A00333029323689F4229DA0BFB07F8D4F884
S315178024B004A00AEB08055AF80810C1B10021A868CC
S315178024C0814208DA2868039150F821000BF038FB0F
S315178024D003990131F3E75AF808000BF031FB686866
S315178024E00BF02EFB0021A9604AF8081005E0E86872
S315178024F018B10299FFF7C8FF06460137D2E7606819
S315178025000BF01EFBA568002320466360A3602C464C
S315178025100BF016FBBFE7304604B0BDE8F08D000020
S3151780252008B50BF0C3FB18B902480BF0B7F8FEE7EE
S3151780253008BD00BF3278821708B51420FFF7F0FF61
S315178025400022026042608260C260026108BD00009C
S3151780255008B50BF019FE18B902480BF09FF8FEE77D
S3151780256008BD00BF32788217036870B5064685683E
S3151780257033B1DA680AB91B68ABB12B6801332B60A4
S3151780258029681824686801FB0441FFF7E1FF2B6867
S3151780259000225C430319686002515A60DA601A6137
S315178025A0B26933605A61002070BD38B504460D464E
S315178025B0FFF7DAFFA368E268DD6000251A61FFF787
S315178025C0BBFFA3689860A06020462560FFF7CCFF05
S315178025D0284638BD43682DE9F04D07460C4623B982
S315178025E0036913B90020BDE8F08D2568EB6813B130
S315178025F0FFF744FF95E02E6816B13B6801207DE012
S31517802600A3699B07F9D5DFF88CB156F80B100BEB3E
S31517802610060A38681DF070FF8046002862D1DAF8FE
S31517802620083018052AD51C20FFF77AFFE3680C2B8C
S31517802630834601D0062B05D1FFF720FF58460BF0AE
S315178026407FFA25E0264605460FCE0FC596E8070082
S3151780265085E80700C4F80880C4F80080FFF76CFF88
S31517802660C4F80C80C4F81480C4F810806060A06029
S315178026702046FFF779FFC4F814B00CE0E3682BB156
S315178026802369DAF804201341D90704D4FFF7F6FE35
S315178026900D23E3601CE0DAF80430E360DAF80830DB
S315178026A0DA07236114D501212046FFF77EFFD4F878
S315178026B014E062682546DEF800307646DA600FCE7B
S315178026C00FC596E8070085E8070070460BF038FABD
S315178026D03846FFF7B5FEE068A0F10D03584258411A
S315178026E0BDE8F08D0C36842E8FD186E71A783AB1ED
S315178026F05C2A00F1010008BF01330133002BF5D1A5
S315178027000BF0D4FA804660B1286800B9A860AE6825
S31517802710731C0236AB60B60031460BF035FD286068
S3151780272010B90120BDE8F08D314668680BF02CFD95
S3151780273068600028F5D02A68A6F108033969043E2F
S3151780274042F803806A68D15000232A6893516A68D1
S3151780275093513B6893B90025384688F80050FFF7A0
S315178027606FFEE368062B7FF43DAF21463846FFF7A9
S3151780277031FF01212046FFF718FF33E71A78002A21
S31517802780E9D05C2A08BF013313F8012B08F8012B0F
S31517802790E0E700BF001B8317012A2DE9F34D174683
S315178027A09B4602D0002401262FE01E4B1C68002C66
S315178027B034D094E806001C480AF070FF0AF0C6FF6A
S315178027C020B11A480AF058FF012028E02469EEE75D
S315178027D0414628681DF090FE38B9019095E80600A5
S315178027E011480AF05BFF019B9A460AF0AFFF002853
S315178027F0E7D12D69002DEBD1BAF1FF3F04D14146C0
S315178028000B480AF04BFF01340136BE4206DA054BF8
S315178028104FF0FF3A5BF826801D68EBE7204602B03B
S31517802820BDE8F08D48B88417507882175778821785
S315178028306378821788B1094A0378D35C13F0030348
S315178028400AD010F8013FD15C4907FAD15F2BF8D02F
S315178028503D3B58425841704718467047D762821792
S3151780286003682DE9F0410446002B75D136E01DF03B
S315178028706BFE002865D101236360A36800263C4D53
S31517802880012B08BF3B48A84618BF3B480CF0C6FF2C
S315178028900130284601BF00236360384A13601DF054
S315178028A053FE0A232B54284446700AF0ADFF08B10D
S315178028B0324B1E600AF0AEFFA768314B0026012FF8
S315178028C01E6017D12A782D4D0A2A0BD12A687AB914
S315178028D027492C481DF0D8FD2A4B236020680028ED
S315178028E0C5D1C8E7224927481DF0CEFD2F60F3E7EB
S315178028F01F60F1E72B780A2B1AD0224D28461DF038
S3151780290023FE07461A481DF01FFE3844FF280AD8AB
S3151780291028461DF019FE16492023284400F8013C45
S315178029201DF0B2FD04E00A232B70144B6E701E60E7
S3151780293062681AB9134B0A215A701970C4F8008045
S31517802940CCE720680223A36078B1037863B1431C70
S3151780295023600078BDE8F0811A78002ABED05A1C09
S3151780296002601878BDE8F0811846BDE8F08100BF8F
S31517802970F40486172EA38217040983170CB68417B7
S315178029801CB8841714B6841770B50E464368044668
S3151780299081688B420CDB056801F1640365318360BE
S315178029A028460BF0F1FB206020B928460BF0C8F8B3
S315178029B0206840B16368C654002063682268013373
S315178029C06360D05470BD012070BD000038B50446D1
S315178029D00D462AB929462046BDE83840FFF7D4BFA9
S315178029E005481DF0A5FD0028F4D05C212046FFF789
S315178029F0CBFF0028EED038BD7F788217036818780A
S31517802A007047000038B5054608B9002038BD0378E9
S31517802A10242B0DD1437800200C4C3F2B207014D1DA
S31517802A200B4B20460B491A681EF07FFB204638BD94
S31517802A30094B1C68002CE8D0294620681DF05CFDE0
S31517802A4008B9606838BD2469F4E738BD20B884179B
S31517802A5018B784178478821748B884172DE9F04DEC
S31517802A60884603783C4AD35C9B0722D01DF090FD9D
S31517802A7007460AF0B5FB044630B138480AF00EFE11
S31517802A8038460BF05DF814E03D2138461DF050FDB1
S31517802A90334B1D68002808BF012000F1010A047016
S31517802AA01C4655B1394628681DF026FD28B32D6971
S31517802AB0F7E74FF0FF30BDE8F08D14200BF0F6F8EE
S31517802AC0064628B338461DF063FD306018B9304680
S31517802AD00BF036F81CE05046D4F800B01DF058FDC0
S31517802AE03561C6F80880F5607060DBF810400CB168
S31517802AF0A346FAE7CBF810600CE0514668681DF0DC
S31517802B00FBFC68B1EB689BB1394616480AF0C6FDDF
S31517802B104FF0FF3438460BF013F82046BDE8F08D9A
S31517802B20B8F1000F15DDAC689CB9C5F80880F1E7D8
S31517802B30B8F1000F02DCAB68012B01DD0123AB6016
S31517802B40686800240AF0FCFF50461DF021FD686076
S31517802B50E0E70124DEE700BFD762821787788217FE
S31517802B6048B88417CA7882172DE9FF4D0024054681
S31517802B700291A0462646032128461DF0D9FC074612
S31517802B80002800F0B080BD420ED0C5EB070A20465C
S31517802B9006EB0A084146FFF7DBFC524629460446F0
S31517802BA030441DF079FC4646013703214FF0000863
S31517802BB038461DF0BDFC019080F80080002F00F08C
S31517802BC08A803A2138461DF0B3FC824618B900220E
S31517802BD09046154612E0437880F800802D2B02D157
S31517802BE0851C42460AE03D2B04D14246851C4FF090
S31517802BF0010803E02B2BEAD1851C01223846039264
S31517802C000AF0EEFA039A834648B93846FFF7FAFE72
S31517802C10039A834618B9B8F1000F28D006E05846AC
S31517802C2003921DF091FC0028F5D019E038461DF067
S31517802C308BFC804628461DF087FC404402300BF0FB
S31517802C4035F8804640B137492B463A461EF06DFA1D
S31517802C5000214046FFF702FF40460AF071FF06E063
S31517802C60039A42B158461DF06FFC0BEB0005BAF17B
S31517802C70000F04D106E05D46BAF1000F03D03A2360
S31517802C808AF800303DB3029B284623B11DF05CFCC1
S31517802C90B71C074402E01DF057FC37182046791CED
S31517802CA0FFF756FC029B044683B106F101082946B5
S31517802CB080444FF0040A40461DF0E6FB04F806A050
S31517802CC028461DF041FC08F800A003E02946304449
S31517802CD01DF0DAFB3E46019D4FF003034FF00108C6
S31517802CE005F8013B47E7B8F1000F14D028461DF0C9
S31517802CF02BFC711C01442046FFF72AFC2946044603
S31517802D0030441DF0C1FB20260A2120461DF010FCF9
S31517802D1008B10670F8E7002C14BF2046284604B081
S31517802D20BDE8F08DE07882172DE9F0410E4686B022
S31517802D300446002836D00378002B35D00A21DFF8D1
S31517802D4078801DF0F5FB1A4F08B14378F3B120460A
S31517802D501DF0FAFB0230FFF7E3FB214605461DF00F
S31517802D6093FB144928461DF0A3FB314601A801237E
S31517802D70CDF81480029303930497019500F08AFA8D
S31517802D80044628460AF0DCFE20460EE0314601A8A6
S31517802D900123CDF81480049702930393019400F0CE
S31517802DA079FA02E0012000E0184606B0BDE8F08106
S31517802DB04F24801731798217FD2980172DE9F04D19
S31517802DC08EB006460346E3B11A699B680C2A01D072
S31517802DD0062AF8D12BB9FFF751FB9D4B00221A60B3
S31517802DE045E20C2A07D11A690C2AECD15A6812685F
S31517802DF0002AE8D0EFE7062AE5D11A690C2AE2D02D
S31517802E00E9E74FF00B0801271D469A469B46039321
S31517802E100493069305930B930A93002E00F0298249
S31517802E203369063B022B0DD80AF090FC0AF0ECFCAE
S31517802E30002840F01C82039B0BB1059002E0824666
S31517802E40039605903469A04506D12FB1F76817F117
S31517802E50FF3718BF012703E2022C02D0042C0BD1AF
S31517802E6004E0049B002B40F0F78103E0049B002BC2
S31517802E7000F0F2810693C3E0032C04D1069B002B46
S31517802E8040F0BE80F5E1062C40F0A4803368002B15
S31517802E9000F0E481BBF1000F7BD1B3685B681F68D4
S31517802EA0002F00F0DB8173681B681B6818460A932E
S31517802EB01DF04AFB0B900420FFF732FB3B1F09934B
S31517802EC0002307938346099B53F8040F0993002819
S31517802ED053D00021FFF748FE074608903B78002B12
S31517802EE042D0202B01D10137F8E7202138461DF033
S31517802EF01FFB034610B1C7EB000A04E038461DF0E6
S31517802F0023FB3B1882460C935846079B03F102080E
S31517802F104FEA88084146A8F10808FFF719FB0B9B6B
S31517802F208346981C5044FFF7FBFA0A994BF808001A
S31517802F301DF0AAFA47495BF808001DF0B9FA524600
S31517802F4039465BF808001DF0C2FA079B5BF8082024
S31517802F50013307930B9B1A444FF0000392448AF868
S31517802F6001300C9B1F46B9E7099B089A1B689A4242
S31517802F70A9D010460AF0E4FDA5E7079B4FF0010A92
S31517802F80CDF82CB04BF8230073681B681A68186045
S31517802F900A927368DBF800801B681868B8F1000F0F
S31517802FA00DD10AF0CDFD0B980AF0CAFD73680A9AFF
S31517802FB00B240127C2461B68C3461A6050E108B125
S31517802FC00AF0BEFD73680BF1040B5BF8042C1B68C3
S31517802FD01A6015E00C2C00F04181092C04D1BAF146
S31517802FE0000F00F03B810BE00A2C09D1059BBAF143
S31517802FF0000F18BF01230593039B08BF0023039374
S315178030003368002B00F02A81012B40F00681D6F811
S315178030100480D8F80C0010B1FFF7D0FEF2E0D8F88C
S315178030200070002F00F0F980054657F825201046C6
S315178030300792FFF7FFFB079A08B10135F5E7064BAD
S315178030401B680793002D47D042B1054644E000BF61
S315178030500CB6841750A482171CB884171746D8F84D
S315178030600030D85900B31DF093FA3D2105461DF05F
S315178030705FFA10B14FF00003037028460AF060FD1F
S31517803080D8F800300021D859FFF76EFD0021054684
S31517803090FFF7E4FCD8F80030DB599D4202D028466A
S315178030A00AF04EFD0437DAE70546B8E000211046E8
S315178030B0FFF75AFD00210746FFF7D0FCD8F80030F6
S315178030C05B59BB4207D0D8F810303846013BC8F851
S315178030D010300AF035FD0435D8F800305F195A5983
S315178030E010460892FFF7A6FB089A0028DED1D8F873
S315178030F0101000296ED007906048D8F80480FFF723
S3151780310081FC38B10078079B302805D0031C18BF7F
S31517803110012301E0089000E0089345444FF000082A
S315178031203B1F0793474602230C93079B53F8042F9D
S315178031300793002A3BD008991046FFF715FD09908B
S315178031401DF002FA29680C9B0D9503EB410101448A
S315178031503846FFF7FDF90746B8F1000F03D04849FF
S315178031601DF0A6F901E080F800802B681BB1454950
S3151780317038461DF09DF9099938461DF099F90D9B2A
S3151780318004351B681BB13F4938461DF091F93846FF
S315178031901DF0DAF9099AC31C0C93079B1B689A4290
S315178031A002D010460AF0CCFC08F10108BDE7384674
S315178031B007921DF0C9F9079A0A2305213B5438440B
S315178031C042703846FFF7B0FD38460AF0B9FC2E4BE9
S315178031D01D6818E03B2110461DF0AAF930B1D8F8C2
S315178031E000302A4859590AF059FA16E0009007987C
S315178031F0274B0030D8F80020D8F8081018BF0120C0
S315178032000CF0B2FD05466B1C09DA1F4A6FF00103F5
S315178032105B1B6FF0010013602CE04FF0FF351A4AE5
S315178032202B1C18BF0123136024F00202012A0AD02F
S31517803230072C04D1B5FA85FA4FEA5A1A04E0082CF6
S3151780324008BF9A4600E00495F3680DB9032B00E092
S31517803250022B18BF0B2402E0049B06930B2401272D
S31517803260059B0BB9B66800E0039EA046D5E50120FD
S3151780327000E028460EB0BDE8F08D00BFE6788217CD
S31517803280F0158317C27E821718B78417F3788217BB
S315178032900CB684172DE9F04D90B004461422009190
S315178032A004A8002101261DF094F9009B002513F030
S315178032B0080F14BF4FF0FF330A230193009B0B951A
S315178032C009950F93FFF738F90C950E950D95A54F20
S315178032D00A900B9009A8FFF747F9A34809F080FFD2
S315178032E008B1386001E0A14B3B604FF48072002132
S315178032F09F481DF06EF9032103A804238DF80D50FE
S315178033008DF80C30FFF7B0F803219A48FFF7ACF821
S3151780331001219948FFF7A8F802213868FFF7A4F822
S31517803320009B03F00603022B03D000219348FFF777
S315178033309BF80123A360E36820469847B0F1FF3FC7
S31517803340804600F03F818A4A12F808B06268002AE0
S3151780335000F03A81B8F10A0F04D0226920469047C7
S31517803360824601E04FF0000ABBF1000F05D00BF142
S31517803370FF32012A15D8079A12B1079A414659E0A2
S31517803380BBF1020F0DD109A904A8FFF723F900286D
S3151780339040F01A81B8F10A0F03D1012109A8FFF766
S315178033A004F9019B984505D1079F1FB90C9A002AE6
S315178033B000F00E81BBF1020FBDD0B8F1260F00F0D9
S315178033C0C48012DCB8F1220F00F0B18006DCB8F1A8
S315178033D0040F40F0F48001230893EAE0B8F1230F35
S315178033E017D0B8F1240F38D0E9E0B8F13B0F00F0C9
S315178033F0A68006DCB8F1270F40F0E18001230893F9
S315178034008EE0B8F15C0F19D0B8F17C0F00F0BA8056
S31517803410D5E0059B63B9079B53B92369204698471F
S31517803420471C88D00A2886D0E36820469847F4E751
S31517803430079A232104A8FFF7C9FA7CE7BAF1FF3F59
S3151780344000F0BD80079A414604A8FFF7BFFAE368E4
S3151780345020469847079A0146ECE722692046904707
S31517803460474BC2B207469A5C910714D0032104A82A
S31517803470FFF78AFA099A136901331361236920467C
S3151780348098473F4AC3B20746D35C5A0740F0DA805B
S315178034905F2834D1D6E03F280DD07B2834D103213D
S315178034A004A8FFF771FA099A204613690133136145
S315178034B0E36898471CE0099904A80A6901320A61EA
S315178034C00321FFF761FA414604A8FFF75DFA3946EB
S315178034D004A8FFF759FA032104A8FFF755FAE368FA
S315178034E02046984727E77D2809D004A8FFF74CFA86
S315178034F0E36820469847431C0146F4D15FE00321D1
S3151780350004A8FFF741FA16E7079A242192E7272896
S315178035103FF411AF6368002B56D004A8FFF734FA2F
S31517803520E36820469847471C0146F0D147E00123B8
S315178035300893079BB3FA83F35B090793FBE609A9FD
S3151780354004A8FFF747F8012127E009A904A8FFF780
S3151780355041F8BAF1260F32D1E368204698470221FF
S315178035601BE000BF10B684172B7982172F79821725
S315178035701CB7841733798217387982173D79821762
S31517803580D762821709A904A8FFF724F8BAF17C0F26
S3151780359015D1E36820469847032109A8FFF705F850
S315178035A0C9E604293FF4C7AE63686BB104A8FFF771
S315178035B0EBF9E3682046984701460130F1D1FEF7CB
S315178035C05DFF01E0074603E03C4B01271D600AE0DB
S315178035D00D9B1BB1FEF752FF384B1D60DDF834A0EB
S315178035E0BAF1000F36D00D9B2BB10E980AF0A8FAB8
S315178035F004A8FEF725FF636813B931480AF04EF819
S3151780360001232560636000210A9808950795FEF7C0
S315178036103BFF04A8FEF714FF04980AF091FA049565
S315178036200695013744D0009BDB0741D42269254B89
S315178036309A427FF443AE2046FFF7E0F900287FF4DD
S315178036403DAE35E0E36820469847394604A8FFF72C
S315178036509BF913E709A904A8FEF7BCFF012109A85E
S31517803660FEF7A3FFDDF828B05846FFF7A7FB5146AC
S3151780367006465846FEF708FFB11C12D104A8FEF776
S31517803680DFFE04980AF05CFA22690F4BCDF810A07A
S315178036909A42CDF818A00AD10C48564609F0FEFF73
S315178036A0BFE7721CB5D1054BC3F800A0B1E75646E4
S315178036B0301C18BF012010B0BDE8F08D0CB68417EA
S315178036C06B798217FD2980176124801742798217B3
S315178036D07FB506A8074B02210593074B0493012351
S315178036E002930393002340F8143DFFF7D3FD07B0E9
S315178036F05DF804FB612480176128801738B5084D5B
S315178037002C685CB914200AF0D1FA064B0360064B75
S3151780371028600461436001238460C360002038BD3C
S3151780372048B88417787982178579821738B51B48F0
S3151780373009F056FD28B10A2200211DF054FC0546D2
S3151780374000E00225164B1C6814F480140CD103F57F
S315178037503B23144803F5A07325461C6009F09EFF8A
S31517803760114809F0FDFD02E0104809F097FF10484F
S3151780377009F036FD0A4B1B680446DB0207D40D4851
S3151780378009F02EFD044601460B4809F087FF4B4684
S315178037902046DB6D094B1D6038BD00BF487A8217FE
S315178037A000900C02527A82176E7A8217997A82174C
S315178037B0A67A8217AE7A8217BA7A82174CB8841786
S315178037C0F8B506461C4B1C68631C33D090B3002C87
S315178037D003DB2146194809F061FF0025002C1DDD02
S315178037E0DDB92846FDF7B8FE074609F093FF20B1E5
S315178037F009F076FF012500240AE042F210701CF0CA
S31517803800A1FF3846FDF7A8FEB0F57A7FEDD3013CC8
S3151780381021460B4809F042FFE0E701250A2009F007
S3151780382019FF3DB92A4630464FF0FF31BDE8F840BB
S315178038300BF029BCF8BD00BF4CB88417CF7A821716
S31517803840F27A821703490020034B5B1AC9F838307E
S31517803850704700BF000080176C418917D9F8303040
S31517803860002023F47F6323F00F03C9F830307047A5
S315178038704FF48042C9F8F420D9F8F4100020D9F80B
S315178038803020521AC9F83020D9F83020120C120479
S31517803890C9F83020D9F83020C9F8F0207047D9F800
S315178038A038100020D9F83020521AC9F83020D9F8A4
S315178038B0302022F47F6222F00F02C9F83020D9F81F
S315178038C03020C9F840207047D9F840300020A3F53A
S315178038D02003C9F840307047D9F8003041F2E732F3
S315178038E000201A647047D9F840200020F83AC9F8A2
S315178038F04020D9F84020C9F848207047D9F85C206D
S31517803900BAB1D9F85C20526812BA02F580521F32C2
S3151780391022F01F02C9F86420D9F86410D9F840201C
S31517803920521AC9F84020D9F84020D9F86410C9F836
S3151780393060200020704700207047D9F8C0200020EB
S31517803940D9F8C02002F58062C9F8C420C9F8C80022
S3151780395070470020704708B54946D9F83030F822A5
S31517803960A3F1BC53C9F84430D9F848001CF054FE6B
S31517803970002008BDD9F8602008B55AB1D9F860007B
S31517803980D9F85C10D9F864201CF046FED9F8602067
S31517803990C9F85C20002008BD08B5024809F06CFEFE
S315178039A0002008BDFA7A821708B5054809F064FE23
S315178039B012F08AFE034809F05FFE002008BD00BF9B
S315178039C0027B8217D9FC821710B54FF4E1320A2190
S315178039D003484C4609F03DFCA060002010BD00BF8F
S315178039E00A7B821701200DF0F5BD08B59A20FEF7E0
S315178039F037FC002008BDD9F8001008B569B9D9F881
S31517803A004020503AC9F84020D9F84020C9F80020FC
S31517803A105022D9F800001CF0DCFD002008BD0020DC
S31517803A20704700207047002070477047704770476F
S31517803A30D9F8003010B50024D86C064A21461CF0F8
S31517803A4069FB2046FFF7F3FF0A2009F003FE20469D
S31517803A5010BD00BF8F178317D9F800204FF08051FC
S31517803A6010B59164D9F800400BF056FAE06410BD92
S31517803A7008B5FFF7F1FF002008BDD9F82C20B2F161
S31517803A80805F2CBFD9F82C000020704710B54FF0F7
S31517803A908052C9F82C200BF03FFAD9F82C304C46B7
S31517803AA01844C9F82C00D9F83800FFF7E6FFE0620A
S31517803AB00020D9F82C20C9F8302010BDD9F840201D
S31517803AC0103AC9F84020D9F8402022F00F02C9F8D9
S31517803AD04020FEF79DB8000008B50022C9F80400FB
S31517803AE0C9F8202003481BF0B7FC08B11CF09AFCD4
S31517803AF008BD00BF841B831700207047034A002028
S31517803B00034B9B1A034A1360704700BF0000801748
S31517803B10F82F851750B884170020704700207047F4
S31517803B2008B5FEF79EFBFCE708B5044809F0A4FD27
S31517803B30D9F800001EF0AAF9002008BD137B82175A
S31517803B40D9F8001008B5303102481EF075F80020F4
S31517803B5008BD00BF5398821708B5FEF76FF8002087
S31517803B6008BD08B5FEF78EFB002008BD10B509F015
S31517803B70C7FC1021034C0448226809F06AFB2060B1
S31517803B80002010BD8C3883171B7B821708B5044815
S31517803B9009F072FDD9F8000014F002FC002008BD68
S31517803BA0247B821708B515F063FD002008BDD9F868
S31517803BB04C200020C9F85020C9F84C000DF00ABDDA
S31517803BC0D9F830004FF4200108B5A0F5200009F088
S31517803BD063FF002008BD08B5FCF74AFE002008BD24
S31517803BE008B59B20D9F8043043F4007343F00103DA
S31517803BF0C9F80430FEF734FB002008BD0020704753
S31517803C0000207047704708B5FFF7FCFF002008BDF6
S31517803C1008B502481BF020FC1CF004FC201C8317F7
S31517803C20FEF7F2BA0346084611461847012A70B5B9
S31517803C30164618DD1C46102254F8040F00211DF075
S31517803C4079F9054601460A4809F028FD2246711E6C
S31517803C502846FFF7E7FF041C0146064818BF0124CC
S31517803C6009F01CFD01E04FF0FF34204670BD00BF00
S31517803C703C7B8217647B82172DE9F04502F1FF386A
S31517803C80B8F1000F87B006460F4615461C4603F156
S31517803C90040A2CDD1022586805A91DF04BF9059BDF
S31517803CA01A7822B33A2A22D0232A20D009221849F1
S31517803CB060680BF0BBFDAA1E04F10803A0B1C168AA
S31517803CC01448012908BF072111F0010F07D1D0F831
S31517803CD08C40A14203DC104809F0E0FC04E0002484
S31517803CE00190029400910BE04FF0FF300CE0012316
S31517803CF00293084B4246019340F20F730093534643
S31517803D003946304600F0A0F907B0BDE8F08500BF08
S31517803D101020831754B88417227C821710B50C4647
S31517803D20034809F05DFA2146BDE810400BF0A4B9A7
S31517803D30A67A821738B501460446184809F0AEFCAC
S31517803D4020460AF0ABFD0128054621D1144809F013
S31517803D5093FC2268134B9A4201D0134804E02046FD
S31517803D600AF038FC18B9114809F086FC14E0204689
S31517803D700AF012FD0E4809F07FFC20460AF03FFC38
S31517803D8008B90C48F0E70C48002509F075FC03E0E4
S31517803D900A48012509F070FC284638BD4C7C8217E5
S31517803DA06D7C821727051956847C8217997C821712
S31517803DB0B17C8217CC7C8217DD7C8217E17C8217D7
S31517803DC0012AF8B516461F4605DC0C4B1868BDE860
S31517803DD0F840FFF7AFBF002501241022002157F8BE
S31517803DE0240001341DF0A6F8FFF7A4FF002818BF9A
S31517803DF00125A642F1D12846F8BD00BF8C38831716
S31517803E0073B505460D480E4609F0EAF908B900203C
S31517803E1012E00B491CF070FB04460028F7D1094BBA
S31517803E20019009481968009609F038FC6B460122FB
S31517803E3021462846FFF720FF02B070BDF87C82170F
S31517803E40027D82178C388317067D82172DE9F045F8
S31517803E50561E224C87B01F1D1D46324601230293DC
S31517803E6082468DE818003B46884600F0EDF81EB965
S31517803E701B4B1B68236605E01022002168681DF01E
S31517803E8059F8206605AA04A9206E144DFDF72CFE55
S31517803E90F8B9049B05F19000059A296ED21A1BF082
S31517803EA0C9FB3A463146404600F01CF888B900F0FF
S31517803EB0C3F805230194324684F85E3041460123C0
S31517803EC0504602934FF4E06300933B4600F0BCF8EC
S31517803ED000E0012007B0BDE8F08500BF54B884170D
S31517803EE08C388317F0B585B0164C0D46164607469F
S31517803EF004F1680331460193224604F16403284688
S31517803F00009302230AF0DEFC08B10F480FE004F194
S31517803F10700329460293324604F16C030094019389
S31517803F20384602230AF0DAFE054620B1074809F01B
S31517803F30A3FB012003E0E06E01F00AFD284605B0D9
S31517803F40F0BD00BF54B88417127F8217377F821748
S31517803F502DE9F0410546DDF82880D8B216460C467D
S31517803F60099FC8F800100AF003FC024655B9294B79
S31517803F7029492A48B44218BF194609F08FFBB4421B
S31517803F8007D13CE00146264809F088FB012D0AD067
S31517803F9012E0089ABA4217D84FF4803307990698D1
S31517803FA00AF0AEFB2BE008AB079A394606981BF04A
S31517803FB019FA064618B308E029461A4809F06EFB1F
S31517803FC06FF00200BDE8F0810126E8B2089C0AF07E
S31517803FD0D9FBA742014603D8134809F05FFB03E0D4
S31517803FE03246124809F05AFB114809F057FB6FF011
S31517803FF00500FEF735F94FF0FF30BDE8F081089BD5
S315178040000C481C44C8F8004009F036FB0020BDE870
S31517804010F08100BF5F7F82175B7F8217677F82176A
S31517804020757F82178E7F8217B17F8217E17F8217FE
S31517804030FA7F8217DD7C821710B5FDF700FE0446DE
S3151780404006F0FEFD204610BD2DE9F04D8EB0984640
S315178040501746179D169E0991D5F88C30F10707904C
S3151780406043EA0603C5F88C3028D5BD4C4FF49872B1
S31517804070002120461CF0ADFABA4809F047F9C4F872
S31517804080880004F190001BF082FA0AF0FBFA824648
S315178040900AF008FB5146024604F190001BF082FA9B
S315178040A004F19000FDF774FC04F190001BF037FBC8
S315178040B0A020FEF7D5F80123C4F88C30B20740F15B
S315178040C0F38000200DAA87420CA90C904FF0000BA5
S315178040D00D90C8BFD8F800000AF0D6FBDFF880A28B
S315178040E004460120FEF7BCF820460AF0E7FBCAF81B
S315178040F054B0CAF850B004460AF0D0FB012844D110
S315178041002146994809F0CAFA2268984B9A4205D0EF
S31517804110974809F0B1FA4FF0FF3032E00220DAF80B
S3151780412088B0FEF79DF820460AF054FA28B99148C8
S3151780413009F0A2FA6FF0010023E00320FEF790F84A
S3151780414020460AF029FBBBF1000F0FD08A4809F0E9
S3151780415093FA20460AF053FA28B9884809F09EFA46
S315178041606FF002000DE0864809F086FA0420FEF704
S3151780417077F8617F022963D0824809F08FFA6FF04A
S315178041800300FEF76DF8002409E0079B5C467E481E
S31517804190196809F083FA6FF06F00FEF761F8DAF89D
S315178041A05430DFF8BCB10BB978482EE020460AF0B8
S315178041B075FB012819D1A37F04F140028BF85D3076
S315178041C0E37F8BF85C30237F8BF85E30E3681BBA0E
S315178041D01344CBF84C3023691BBACBF85830637F1E
S315178041E0032B8BF85F3002D103E069480DE0182B5B
S315178041F00ED1684A0DAB0321A2F160000AF080FC4C
S31517804200002810DA02300ED0634809F035FAA1E09B
S31517804210DBF844302BB1DBF818301BBACBF860309B
S3151780422001E05E48F1E79AF85D204D4B0E2A04D1DE
S315178042301A6D196E9A650A441A66CAF8484033E0A9
S315178042400520FEF70DF8A37F022B20D104F140033A
S31517804250CAF85030E3681BBACAF8543007E0042B03
S3151780426018D14F4B002120461A1F0AF0E2F9DFF8C2
S315178042703CB14022214658461CF00BFA06200123F2
S315178042804BF8044CCAF84430FDF7EAFF87E7E6D8BF
S31517804290012B00E00E2BD9D0079B4248196809F0ED
S315178042A0FDF96FF004006CE772071CD52C4A92F85B
S315178042B05D100E2900F2138144F21403CB4003F0EC
S315178042C0010383F00101002B00F0098192F85E301B
S315178042D0052B41D1424639460998FFF703FE002838
S315178042E040F02681074616F0080A61D1F00600F1DC
S315178042F0B280B3060FD505F19004E96E20460AF011
S315178043003DFC05F1700205F16C0120460AF060FC50
S31517804310002840F00D8195F85E0000F06FFA04468C
S31517804320002840F0AF8016F4F86F00F0AB80BAF132
S31517804330000F01D0FDF782FC95F85E000AF004FAAB
S3151780434095F85E200146184809F0A8F96FF007001E
S31517804350FDF786FF0120EBE00E2B40F0C280B9E710
S3151780436054B88417178082171E8082172705195607
S31517804370877C82179C7C8217B17C8217CF7C8217A9
S31517804380DD7C82175080821790808217B3808217C0
S31517804390D3808217B4B88417F68082172081821744
S315178043A0A8B884176F808217DD81821758B884174B
S315178043B0FFF742FEAB6CD5F858B00DAA0A93EB6C93
S315178043C059460B932B6D069395F85C30089395F8A1
S315178043D05D3004924FF4000203926A6DCDF800B0F7
S315178043E00292069A019282460898FFF7B1FD044613
S315178043F030B16FF00500FDF733FFA31C54D175E775
S315178044000D995846CBEB01018900FCF7D1F80720A7
S31517804410FDF726FF089B0D9A13B9069B5B4562D05D
S315178044200B9B5B455FD90A9B93425CD26B6C43B1FE
S3151780443095F82230042B7FF459AF3F4809F01CF9C1
S3151780444054E73E484FF0FF3409F016F96FF07300C2
S31517804450FDF706FF28E0696E05F17803AA6E05F168
S315178044609000009305F17403521A0AF0E5FA0028B2
S315178044705ED1696F324808F091FDA96F314808F00F
S315178044808DFD36E7710635D432063BD4F30542D413
S3151780449016F480600CD000942B464FF48062414608
S315178044A0384600F08EF90446BAF1000F06D003E0BD
S315178044B0BAF1000F3CD00446FDF7C0FBE01C04D1CF
S315178044C06FF00600FDF7CCFE07E0611C05D1434669
S315178044D03A4609990798FDF793FC204628E0002766
S315178044E001E70F46FFE6A96D05F19000521A1BF0FA
S315178044F0A1F8FBE62B46424639464020A04783461D
S3151780450090B9C1E72B46424639468020A047834655
S315178045100028BBD008E02B46424639464FF48070B8
S31517804520A04783460028B3D0074809F0A5F8584610
S315178045300EB0BDE8F08D00BF448182177E81821749
S31517804540C5818217D28182170B8282172DE9F04196
S31517804550161F002504460F469846BD420FDA002DD2
S31517804560C4BF84F80080013456F8041F01352046ED
S315178045701BF08AFF30681BF0E7FF0444EDE7BDE8C0
S31517804580F0810000B0F5806F10B50CD11C6E07480E
S31517804590214609F083F80F20FDF762FED9F800004F
S315178045A0A047012010BD002010BD00BF25828217AD
S315178045B0B0F5806FF8B50C4617461D4623D11348BC
S315178045C008F00EFEA0B1102200211CF0B3FC002CBF
S315178045D0064605DD0A233A462146FFF7B7FF07E069
S315178045E00B4808F0FDFD014610B130461BF04CFF15
S315178045F02C6E0848214609F051F80F20FDF730FE3A
S31517804600A0470120F8BD0020F8BD00BF5E82821743
S31517804610437382176782821770B50D460A48164606
S315178046201C4608F0DDFD40B108491BF065FF20B92F
S31517804630616D074808F0B2FC03E0236E31462846C1
S315178046409847002070BD00BFF87C8217A182821719
S31517804650A4828217B0F5806F2DE9F7458846924672
S315178046601F463FD193F82230042B01D0002609E04C
S315178046703E6801AB6A460121304609F0DAFF019B95
S31517804680002BF3D0B8F1000F15DD002425465AF814
S31517804690250001351BF058FFA84500F10100044499
S315178046A0F5D1204609F002FB20235246414604469F
S315178046B0FFF74CFF06E00D4808F092FD0C4C0028DA
S315178046C018BF04463D6E0B48294608F0E7FF0F20B2
S315178046D0FDF7C6FD2346064A3146D9F80000A84796
S315178046E0012000E0002003B0BDE8F08543738217F0
S315178046F08F178317AD8282177FB50446036F00F134
S315178047006C06C16E00F19005039371B328460AF0C3
S3151780471035FA314603AA28460AF05AFA014600287E
S3151780472034D11B4AE06E1AF0DEFC031E01DA02331F
S3151780473013D1184808F054FD0646B0B1E56E1BF044
S3151780474003FF0123134A01931349184433460090F4
S31517804750284601F0BDFD002807DA1AF065FD0F49D6
S3151780476002460F4808F09AFF10E02046FDF7D8F961
S315178047700F20FDF775FDE26E216E0A4808F08EFF51
S315178047802046FDF7E5F9084808F076FF04B070BDB6
S31517804790F782821743738217F682821751628217BE
S315178047A0FE828217118382174D838217B0F5806F29
S315178047B008B504D11846FFF79FFF012008BD0020D2
S315178047C008BDF8B506460F4614461D46FCF75AFD32
S315178047D02B4631463A462046069EB04795F85D30B9
S315178047E0012B09D0B4F5007F06D06FF00800FDF7CE
S315178047F037FD4FF0FF30F8BD0020F8BD014B53F859
S31517804800200070476043821737B5074D074C8DE8F0
S315178048100C000B46641B064902462846A4106143C2
S315178048200BF062F803B030BD08AC84173CB484171C
S31517804830B76DDBB608B50649064808F02FFF064858
S3151780484008F01AFF054808F017FF002008BD00BFBB
S31517804850391A8317FC838217018482173284821749
S315178048602DE9F0418846054638B32C2128461BF09A
S315178048705FFE064690B928461BF066FE044600285A
S3151780488041D0013009F012FA074618B96FF00B00BC
S31517804890BDE8F08129461BF0F7FD11E0441B37D0A0
S315178048A0601C09F003FA07460028EFD022462946EE
S315178048B01BF0F2FD00233B5502E00120BDE8F08195
S315178048C03A2138461BF034FE044628B10023601C73
S315178048D023701BF0BFFD044638461BF0BBFD05460B
S315178048E01BF032FE30B121462846C047044608B130
S315178048F0384608E03846751C09F022F9002EB4D1DF
S315178049003046BDE8F08109F01BF92046BDE8F081F5
S315178049102046751C09F014F9A7E700002DE9F8451C
S3151780492007460D461646002A3FD0002841D00B78F9
S3151780493043B1002429461BF0D3FE034618B1013034
S315178049401C46F7E73C466CB328461BF0FDFD23460D
S3151780495013F8012D202AFBD00138204410F8013F87
S31517804960202BFBD0BC4201D02C2A04D13A2B23D042
S315178049702C2B21D003B32B78002BE3D04FF0000AD2
S31517804980384629461BF0ACFE804648B128461BF0B0
S31517804990DBFD4044844203D308F10100C246F0E7A9
S315178049A05446D0E70220BDE8F8854FF0FF30BDE8C2
S315178049B0F8850120BDE8F88528461BF0C5FD2044FB
S315178049C010F8013B202BFBD03A2B17D104462378BE
S315178049D0621C202B01D11446F9E70B4920461BF0A0
S315178049E0E8FD20B920461BF0AFFD054600E0051B04
S315178049F02A46214630461BF00FFE00E00025002090
S31517804A007055BDE8F88500BF056E82170023836051
S31517804A10184670472DE9F84580460B4E0B4CA41B5C
S31517804A20E41068B10025B24606E05AF835104046BC
S31517804A301BF062FD28B10135A54206EBC507F4DBED
S31517804A4000273846BDE8F885CCB48417FCB484179C
S31517804A5038B50D46074C084908481BF037FB2146E1
S31517804A600748FFF7FDFE21462846FFF7F9FE002087
S31517804A7038BD00BF854A80170D4A80176C34831757
S31517804A807B84821710B58AB0114A002307930C4688
S31517804A90039300930AAB029205AA0690019213E933
S31517804AA00F001AF079FF059B73B10CB9002209E044
S31517804AB020461BF049FD0028F8D02046FFF7AAFFAD
S31517804AC010B14268059B9A6000200AB010BD00BFDE
S31517804AD06C3483172DE9F0410024DFF86C80C0B061
S31517804AE006680546FC22214601A800941BF071FD35
S31517804AF0D8F80030114F2BB1114808F071FBC8F860
S31517804B0000403860386830B96A4631460D48FFF735
S31517804B1005FF80B905E06A463146FFF7FFFE002894
S31517804B20F2D168461BF010FD28B16846FFF772FF71
S31517804B3008B14368AB6040B0BDE8F08184B984178B
S31517804B40008582177B8482171423831730B538B173
S31517804B500C78302C04D14C7804F0DF04582C12D002
S31517804B600A4C0B44994205D00D78655D20B115F036
S31517804B70440F04D12AB930BD15F0040FF9E7013176
S31517804B80F0E7116030BD0231EAE700BFD7628217BE
S31517804B900023C3601846704738B50D46074C084939
S31517804BA008481BF093FA21460748FFF759FE214616
S31517804BB02846FFF755FE002038BD00BF354C8017B5
S31517804BC0914B80176C3483170B85821770B5054602
S31517804BD01BF0BAFC68B1074E297830461BF0A8FC43
S31517804BE0044608B1801B70BD2978034808F056FD26
S31517804BF0204670BD1D6E82171785821770B50546BC
S31517804C001BF0A2FC01280ED9084E697830461BF096
S31517804C108FFC044608B1801B70BD6978044808F07C
S31517804C203DFD204670BD002070BD00BF186E8217EF
S31517804C304B85821770B58AB0154A002307930C46A1
S31517804C40039300930AAB029205AA0690019213E981
S31517804C500F001AF0A1FE059BBBB11CB9059B00225C
S31517804C60DA6012E020461BF06FFC0028F6D020464B
S31517804C70059EFFF7ABFF00F007052046FFF7BEFF3F
S31517804C80044B53F820301D43F56000200AB070BDE1
S31517804C906C348317244982171D4B2DE9F341002461
S31517804CA01B780546DFF87C8006688DF80430D8F8BF
S31517804CB000308DF805408DF80640164F2BB11648F3
S31517804CC008F08EFAC8F800403860386830B901AAFB
S31517804CD031461248FFF722FEB8B905E001AA3146D8
S31517804CE0FFF71CFE0028F2D101A81BF02DFC60B13E
S31517804CF001A8FFF76BFF00F0070401A8FFF77EFFF7
S31517804D00074B53F820301C43EC6002B0BDE8F081A6
S31517804D10CE60821788B98417888582170B85821784
S31517804D2024498217182383172DE9FF4D06460C460B
S31517804D300193174612B1D0F804B000E09346744B2E
S31517804D403568002C08BF1C46012F00F0A380F36836
S31517804D5003F007030093013B052B00F29B80DFE8E6
S31517804D6003F0030E2B44608A4FF0FF3303AA2146C4
S31517804D700020FFF7EBFE039B93F800802DE04FF0A2
S31517804D80FF3303AA21460120FFF7E0FE039B1A781B
S31517804D90002A70D1A21C93427CD12378302B79D1EB
S31517804DA094F8018008F0DF08B8F1580F4FF0FF38F4
S31517804DB018BF4FF0000861E0237803F0DF02592A05
S31517804DC009D0542A07D0A3F13002012A03D903F058
S31517804DD0D703462B4FD194F8018018F1000818BFD6
S31517804DE04FF00108C8F1000848E04FF00008A246C6
S31517804DF0032303AA51460020FFF7A8FE039B5345BA
S31517804E0039D0B8F1030F1A7802D02E2A01D032E0A2
S31517804E108ABB08F1010803F1010AB8F1040FE7D13B
S31517804E2038E04FF0000AA046022303AA4146012024
S31517804E30FFF78CFE039B43451DD008F10202934270
S31517804E4009D198F80020302A05D198F8012002F068
S31517804E50DF02582A0FD0BAF1050F1A7802D03A2AEC
S31517804E6001D008E03AB90AF1010A03F10108BAF14B
S31517804E70060FD9D10EE04FF0FF3802E0B8F1FF3FA9
S31517804E8008D1009A2946234B23489B5C224608F073
S31517804E9005FC38E0019B13F0020802D04FF000089A
S31517804EA031E0012F03D025D3022F09D02BE0F368E9
S31517804EB01807F3D52946194808F0F0FBB84622E0BB
S31517804EC0F368990613D45A06E8D52846104C08F085
S31517804ED032FA5946002818BF04461148224608F068
S31517804EE0DDFB214658461BF007FB0028D6D02946FE
S31517804EF00C4804E0F368DB06D0D50B48294608F042
S31517804F00CDFB4FF00108404604B0BDE8F08D00BFD9
S31517804F108F1783171D6E82178F858217CF858217F6
S31517804F200C868217EC8582172486821708B508B9EE
S31517804F30054803E013F08CF920B1044808F09CFB70
S31517804F404FF0FF3008BD00BF4186821754868217FF
S31517804F504FF4C0230020136070470020704700006D
S31517804F60034A0020C9F824200122C9F8282070474F
S31517804F70E16382172DE9F045ADF5005D8BB0FFF73C
S31517804F80ECFF054612F0BCF90746FFF7CFFFC0BB0B
S31517804F900DF1270626F01F06304608F07FFA0146E0
S31517804FA068BB01AA3846FFF7D3FF044648BB2A4693
S31517804FB019491A4808F072FBFD6E0198C5F1000869
S31517804FC028442946013800EA08001EF0E6EE2946ED
S31517804FD0824605F5FF501F3000EA08001EF0DCEE0A
S31517804FE0D7F830710546FFF7B8FF33462A4651463C
S31517804FF0B847854207D00A4808F03EFB01E00446C9
S3151780500004E0012402E0074808F036FB20460DF538
S31517805010005D0BB0BDE8F0858F17831765868217FD
S315178050200EFF8217261683172DE9F04DADF5005D15
S315178050308AB0FFF792FF12F063F90646FFF776FFFD
S31517805040014678BB01AA3046FFF782FF50BB019C09
S31517805050FFF783FFD6F868A00DF1270525F01F0502
S31517805060CAF1000B514680460AF5FF501F3000EAF9
S315178050700B001EF092EE5146074604EB0A000138E4
S3151780508000EA0B001EF088EED6F82C412B463A46DE
S3151780509001464046A047874204D10121284608F099
S315178050A0B3F902E0002008F05BF90DF5005D0AB050
S315178050B0BDE8F08D38B504461A4808F027F9054635
S315178050C0204609F0EBFB012823D12268164B9A421A
S315178050D001D016481EE0204609F07CFA08B9144814
S315178050E018E02DB1204609F08AFA08B9114811E05F
S315178050F0A37F062B01D010480CE0216C04F14000E9
S3151780510009BA09B90D4805E050F8042B002AFBD1D6
S3151780511004E00B4808F0B0FA012038BDBDE83840E6
S3151780512009F0B1BF17808217270519567E86821711
S3151780513090868217A0868217AE868217BE868217BA
S31517805140CC868217012A10B506DD102200215868F1
S315178051501BF0F0FE044601E04FF0905421460448B8
S3151780516008F09CFA20460021BDE81040FFF7A2BF41
S31517805170F58682170A460146014808F08FBA00BF9E
S315178051803187821730B585B0D9F800403448216CFD
S31517805190FFF7F0FF616C3348FFF7ECFF00213248C9
S315178051A0FFF7E8FFA16C3148FFF7E4FFE16C304861
S315178051B00024FFF7DFFF20461CF080FD0546E0B18F
S315178051C0024621462B4808F069FA2CB122462A490D
S315178051D001A81BF0AAFF03E0284901A81BF054F980
S315178051E001A8013407F0FCFF254A01A9002818BF3A
S315178051F00246244808F052FADDE71CF099FF01466B
S31517805200214808F04BFA214807F0EAFF0146204863
S3151780521008F044FA1F48D9F8081008F03FFA1E48D4
S31517805220D9F8F010FFF7A6FF1C48D9F83010FFF70A
S31517805230A1FF1B48D9F84410FFF79CFF1948D9F8E6
S315178052403C10FFF797FF1848D9F84010FFF792FFE1
S315178052501648D9F81C10FFF78DFF284605B030BDC4
S315178052604B87821757878217638782176D878217AF
S31517805270768782177E878217918782175398821728
S31517805280418782179B878217A6878217B8878217C7
S31517805290BF878217D1878217E7878217F08782178A
S315178052A0FA878217048882170B88821715888217C0
S315178052B02DE9F04105460E46571E0A4902225868BF
S315178052C003F104080AF0B2FA40B1C46843463A4675
S315178052D031462846A446BDE8F04160474FF0FF3077
S315178052E0BDE8F081702383172DE9F7458246184864
S315178052F090464FF48017019708F0D8FC054618B9E1
S31517805300144808F0B9F90DE0461C01AB26F00306E0
S315178053105246B41C394620461AF064F820B12846FE
S3151780532008F00EFC00200FE0019BB3F5801F02D119
S31517805330094808F0A1F9B378422BF0D163784D2B41
S31517805340EDD12046C8F8005003B0BDE8F08500BF00
S31517805350030010004188821762888217012A13B5C5
S3151780536007D0022A4ED11022002158681BF0E2FD81
S3151780537001E0264B18680023009303780446422BD6
S3151780538002D143784D2B0AD06A4601A9FFF7ACFFA5
S31517805390044620B91E4808F081F9012034E0E27DE1
S315178053A0A37DE17C43EA0222237E607E42EA0342A2
S315178053B0A37C42EA0062174843EA0123217D43EA28
S315178053C00143617D43EA016108F068F9617F237FB4
S315178053D0114843EA012108F061F9E17FA37F0F485D
S315178053E043EA012394F8201043EA014394F82110E5
S315178053F043EA016108F052F9009828B108F0A0FB3A
S31517805400002001E04FF0FF3002B010BD8C388317B3
S31517805410A7888217D8888217F188821705898217F5
S3151780542037B5154600220092027803460C46422A63
S3151780543002D142784D2A0AD06A4601A91846FFF743
S3151780544053FF20B9084808F029F9012009E02146B9
S315178054502A460DF0CBFE0446009808B108F070FB7B
S31517805460204603B030BD00BFA788821773B502A93F
S315178054700024684641F8044D16461D46009407F0E9
S31517805480B5FA022E06D0042E0BD0012E21D1134B3E
S315178054901E6818E01022214668681BF04BFD0646E9
S315178054A011E01022214668681BF044FD0A22214626
S315178054B00646A8681BF03EFD0A2221460090E8683A
S315178054C01BF038FD01909DE806003046FFF7A8FFD0
S315178054D001E04FF0FF3002B070BD00BF8C388317E4
S315178054E010B504460A491BF007F868B109492046E2
S315178054F01BF002F850B1084920461AF0FDFF00301C
S3151780550018BF0120404210BD022010BD012010BDDA
