S00E0000752D626F6F742E73726563C0
S31517800000BE0000EA14F09FE514F09FE514F09FE513
S3151780001014F09FE514F09FE514F09FE514F09FE523
S3151780002060008017C0008017200180178001801715
S31517800030E001801740028017A0028017EFBEADDE61
S31517800040DEC0AD0B00F020E300F020E300F020E3E4
S3151780005000F020E300F020E300F020E300F020E337
S3151780006028D01FE500E08DE500E04FE104E08DE53F
S3151780007013D0A0E30DF069E10FE0A0E10EF0B0E137
S3151780008048D04DE2FF1F8DE850201FE50C0092E8FF
S3151780009048008DE234508DE20E10A0E10F0085E8FE
S315178000A00D00A0E1930700FA00F020E300F020E3AB
S315178000B000F020E300F020E300F020E300F020E3D7
S315178000C088D01FE500E08DE500E04FE104E08DE57F
S315178000D013D0A0E30DF069E10FE0A0E10EF0B0E1D7
S315178000E048D04DE2FF1F8DE8B0201FE50C0092E83F
S315178000F048008DE234508DE20E10A0E10F0085E89E
S315178001000D00A0E1810700FA00F020E300F020E35C
S3151780011000F020E300F020E300F020E300F020E376
S31517800120E8D01FE500E08DE500E04FE104E08DE5BE
S3151780013013D0A0E30DF069E10FE0A0E10EF0B0E176
S3151780014048D04DE2FF1F8DE810211FE50C0092E87D
S3151780015048008DE234508DE20E10A0E10F0085E83D
S315178001600D00A0E16F0700FA00F020E300F020E30E
S3151780017000F020E300F020E300F020E300F020E316
S3151780018048D11FE500E08DE500E04FE104E08DE5FD
S3151780019013D0A0E30DF069E10FE0A0E10EF0B0E116
S315178001A048D04DE2FF1F8DE870211FE50C0092E8BD
S315178001B048008DE234508DE20E10A0E10F0085E8DD
S315178001C00D00A0E15D0700FA00F020E300F020E3C0
S315178001D000F020E300F020E300F020E300F020E3B6
S315178001E0A8D11FE500E08DE500E04FE104E08DE53D
S315178001F013D0A0E30DF069E10FE0A0E10EF0B0E1B6
S3151780020048D04DE2FF1F8DE8D0211FE50C0092E8FC
S3151780021048008DE234508DE20E10A0E10F0085E87C
S315178002200D00A0E14B0700FA00F020E300F020E371
S3151780023000F020E300F020E300F020E300F020E355
S3151780024008D21FE500E08DE500E04FE104E08DE57B
S3151780025013D0A0E30DF069E10FE0A0E10EF0B0E155
S3151780026048D04DE2FF1F8DE830221FE50C0092E83B
S3151780027048008DE234508DE20E10A0E10F0085E81C
S315178002800D00A0E13F0700FA00F020E300F020E31D
S3151780029000F020E300F020E300F020E300F020E3F5
S315178002A068D21FE500E08DE500E04FE104E08DE5BB
S315178002B013D0A0E30DF069E10FE0A0E10EF0B0E1F5
S315178002C048D04DE2FF1F8DE890221FE50C0092E87B
S315178002D048008DE234508DE20E10A0E10F0085E8BC
S315178002E00D00A0E1210700FA00F020E300F020E3DB
S315178002F000F020E300F020E300F020E300F020E395
S31517800300120000EA00000FE11F1000E21A0031E325
S315178003101F00C01313008013C00080E300F029E18B
S31517800320100F11EE020AC0E3100F01EE84009FE54D
S31517800330100F0CEE060000EB1D0000EB8E0500EB90
S31517800340150F07EE9A0F07EE950F07EE1EFF2FE193
S31517800350EBFFFFEA0000A0E3170F08EE150F07EE75
S31517800360D50F07EE9A0F07EE950F07EE100F11EEC2
S31517800370020AC0E30700C0E3020080E3020B80E3B2
S31517800380010A80E3100F01EE300F1FEE400080E365
S31517800390300F0FEE0E50A0E1101F10EE213AA0E19C
S315178003A00F3003E20F4001E20322A0E1022084E12D
S315178003B005F0A0E1000000EA0000801710D09FE545
S315178003C007D0CDE30090A0E300502DE9420100FA53
S315178003D00090BDE800FF93002DE9F04530EE306FB1
S315178003E000210D464C00631826FA03F303F0070322
S315178003F0023B022B47D840EE104F30EE107FC7F3E3
S31517800400C90307F0070E03F1010A0EF1040EC7F3AD
S315178004104E374FF0FF3CD0465FEA58080CF1010281
S3151780042001D09446F8E713EA0A0F18BF0CF10202B7
S315178004300128C2F1200211D103FA02FABC464AEA10
S31517800440040A0CFA0EF848EA0A0807EE568F1CF1CA
S31517800450FF3CF6D213F1FF33EED212E0022812D107
S3151780046003FA02FABC464AEA040A0CFA0EF848EA74
S315178004700A0807EE5E8F1CF1FF3CF6D213F1FF33A5
S31517800480EED207EE9A5F01310729ABD1BDE8F08529
S31517800490002307EE153F07EED53F07EE9A3F07EE87
S315178004A0953F704770470000174A10B5136823F0B9
S315178004B00103136008324FF499731360536002F681
S315178004C058621168114841F0E04343F00F03006802
S315178004D000F47074C02C09D100F03F0007289EBF26
S315178004E021F0804343F0405343F00F031360084ACB
S315178004F0136843F003031360A2F56862136843F029
S315178005000103136010BD00BF0021A0000020A000CA
S31517800510802FA00070470000024A136823F001035A
S31517800520136070470021A00008B50220FFF754FF1B
S31517800530BDE8084001F0FCBB08B50120FFF74CFF6A
S31517800540BDE8084001F0EEBB08B5FFF7ADFFFFF732
S31517800550F3FF002308EE173F08EE163F08EE153F08
S3151780056007EE9A3F07EE953F08BD30EE103F012202
S3151780057003F0070304339A4053420340994203D941
S3151780058007EE3E3F1344F9E7002307EE9A3F01F043
S31517800590D5BB08B5FFF7E9FF002308EE173F08EE2E
S315178005A0163F08EE153F07EE9A3F07EE953F08BDB3
S315178005B00144FFF7DABF00002DE9F04106460F46E2
S315178005C030EE105F05F007052B1D01259D4005F1BF
S315178005D0FF3810EA080F09D00246741E11491248CF
S315178005E00DF014F963196C421C4000E0044617EAB3
S315178005F0080F07D03A460B490C480DF007F96B429E
S315178006003B4000E03B469C4203D207EE364F2C44D4
S31517800610F9E7002307EE9A3F39463046BDE8F041A1
S3151780062001F09CBB3F648217AE728217E172821704
S31517800630704708B501F0D3FB01F034FDFFF728FFAB
S3151780064001F068FDFFF768FFFFF776FFFFF7F0FF0A
S31517800650002008BD4FF42003586800F00300704748
S31517800660114AD2F88032C3F30740602813D0D2F8E4
S3151780067060324FF420025268C3F3074002F0030238
S31517800680612803D1002A08BF662004E0632802D1B7
S31517800690012A08BF6720C3F30722DBB2013203EBB7
S315178006A0021343EA0030704700800C0208B5FFF743
S315178006B0D7FFC0F30733662B04D1C0F30B0040F482
S315178006C0C22008BD672B04BFC0F30B0040F4C620B9
S315178006D008BD000009494FF077330B604B60084A15
S315178006E01360536000230B644B648B64CB640B6578
S315178006F0136453649364D3641365704700C0070209
S3151780070000C0170238B511EE103F23F0020301EE31
S31517800710103F3C4C2368D80305D523F4803300203B
S31517800720236015F0E7FEFFF7D5FF374A536823F4A2
S315178007304033536002F58042D2F850311906FBD503
S31517800740324B08220020C3F8542100F071FA304B3F
S3151780075098420DD12C4D00F0EBF96B692D4A23F495
S31517800760E053A0FB02010A0D013A43EA82236B612B
S31517800770294A002313814FF003721381236843F4A8
S3151780078080232360FFF76CFFC0F30730632805D1FA
S31517800790FFF766FFC0B2202818D505E0FFF760FF80
S315178007A0C0F307306728F3D01C4A136843F0010358
S315178007B013601B4B1A6842F001021A601A68D20737
S315178007C0FCD4124B4FF47852C3F84821154A136854
S315178007D023F001031360FFF743FFC0F30730632845
S315178007E008D1FFF73DFFC0B2202809D40E4A0F4B18
S315178007F01A6005E0FFF734FFC0F307306728F0D09B
S31517800800002038BD04000E0200400C0200800C0246
S31517800810007B9A17239A080200C00B0260C20D024A
S3151780082000C00D0200800D02010200800806BB0081
S315178008300E4A08B5D2F84031D2F8701121F07C51A2
S31517800840C3F38440C2F87011C0F113000028B8BFF3
S31517800850404248B123F4F80343F49803C2F8403171
S3151780086000EB400020F0AEF8002008BD00800C0297
S3151780087008B5FFF761FE01F01EFC1E22064900200F
S3151780088001F0D6FB1E224FF480214FF41000BDE8ED
S31517800890084001F0CDBB00BFFFFF0F00074BD3F811
S315178008A03026100A4A700870D3F820361A0E4B7104
S315178008B08A701A0CCA701A0A0A71704700C01B020E
S315178008C0054B18645A6C10B142F0805201E022F041
S315178008D080525A64704700BF00800D0208B5FFF733
S315178008E0BFFEC0F30730622837D0FFF7B9FEC0F3D3
S315178008F00730642831D0194B9A69C2F34153C2F332
S315178009008142022B09D0022A0ED0012B15D0012A3B
S3151780091013D0032B124B04D110E0012A1AD04FF0B3
S315178009208023032A06D109E0012B13D0032B11D07C
S315178009304FF0802343F4000300E0094B094A4FF038
S315178009408031C2F8F410C2F80431C2F8F810C2F830
S31517800950083108BD4FF08023F0E708BD00400C0230
S315178009608080008000800C027047000038B50C4DDF
S315178009702C78E4B244F0800340F6B8302B7020F020
S3151780098021F844F0C00340F6B8302B7020F01AF8DF
S3151780099044F0C8042C70034B00221A7038BD00BF70
S315178009A00030120005401200054B10B51B685C69B4
S315178009B000F03AFCC4F30121013123F02EEB10BD70
S315178009C0281E831708B50B4B1A6844F21003D358A1
S315178009D0516A03F00303084A01F03F015B000131B6
S315178009E014335343054AA3FB0223980823F014EBC9
S315178009F008BD00BF281E831700366E01ABAAAAAAA8
S31517800A00012837B50CD0022829D1164B44F2F002AB
S31517800A101B689C5844F210029A5802F003020BE0A6
S31517800A2003291CD00F4B1B6803F58242146844F2C6
S31517800A3030029A5802F0010252000B4B1432CD0045
S31517800A403F2102A853431222A9402140E940A3FB24
S31517800A50022360E902231FF0E5FD009800E00020DD
S31517800A6003B030BD281E831700366E01144B10B5A0
S31517800A701A68D369546A032819D8DFE800F0020781
S31517800A800C11C4F3C22403F480330DE0C4F302447B
S31517800A9003F4003308E0C4F3C24403F4802303E06D
S31517800AA0C4F3825403F4002313B1002101E0002418
S31517800AB002210120FFF7A4FF611C23F0AEEA10BDC7
S31517800AC0281E8317054B1A68136F10B143F44053CA
S31517800AD001E023F440531367704700BF281E83171E
S31517800AE0064B1A68D2F8803010B143F0030301E041
S31517800AF023F00303C2F88030704700BF281E831780
S31517800B0002290FD803234900063103FA01F1074B4F
S31517800B101A68136F08B1194301E023EA01011167B7
S31517800B20002070476FF01500704700BF281E831787
S31517800B301F4B10B51B68596911F0007414D09A6948
S31517800B40C1F3C261C2F3013222B1022A194888BFA2
S31517800B50002029E044F210029858164B00F0030043
S31517800B604000143058431FE09869C0F3814002282B
S31517800B700FD0032812D0012809D044F23002985892
S31517800B800C4B00F001004000143058430BE0022153
S31517800B9001E001202146FFF733FF04E002210120FF
S31517800BA0FFF72EFF40082146013123F036EA10BDA4
S31517800BB0281E831700366E010B4B10B51B685B69B1
S31517800BC05A06C3F3024408D51B0647BF02210120E4
S31517800BD001210220FFF714FF01E0FFF7A9FF611C2F
S31517800BE023F01AEA10BD00BF281E8317FFF7EABE47
S31517800BF0024A136823F03003136070477C400C0257
S31517800C000A4B1A69002A0FDB4FF480525A618022E9
S31517800C10C3F87821054A19690029FBDA4FF480331E
S31517800C2093614FF400535361704700BF00800C02E5
S31517800C3010B5014610287CD8DFE800F00918771C14
S31517800C4020282C3D41616C6E7375777B20003B4B5A
S31517800C501B68196903F58043186801F00701384B3B
S31517800C60013100F07F005843400850E0BDE810403E
S31517800C70FFF75EBFBDE81040FFF796BE2F4B1B6888
S31517800C80DC69FFF791FE04F03F013FE0BDE81040B5
S31517800C90FFF798BE294B44F2100229481B68996BB7
S31517800CA09B58C1F3C54103F0030301315B00C900AB
S31517800CB0143358432BE0BDE81040FFF77DBF1F4B19
S31517800CC01B68D969C1F3C254C1F34171022911D086
S31517800CD003290ED0012902D0FFF76EFF0DE044F2EB
S31517800CE0100217489B5803F003035B0014335843CD
S31517800CF003E000210120FFF783FE611C07E00F4BFD
S31517800D001B685C69FFF714FFC4F3C241013123F0F6
S31517800D1084E910BD002000E00120BDE81040FFF7F0
S31517800D20A5BE0220F9E70320F7E7BDE8104000F0DB
S31517800D307BBA04480CF06AFD002010BD281E831765
S31517800D4000366E016F7382170320FFF771BF00009D
S31517800D5070B5544E544D554C336803F58043186817
S31517800D6000F07F0068434008A0FB04015048890CB7
S31517800D700CF04CFD326844F23003D05800F0010075
S31517800D80400014306843A0FB04014A48890C0CF0D4
S31517800D903DFD326844F21003D05800F0030040003E
S31517800DA014306843A0FB04014348890C0CF02EFDD0
S31517800DB0326844F2E003D35803F00303581C00EB60
S31517800DC053003E4B5843A0FB04013D483D4C890CCC
S31517800DD00CF01CFD3C480CF019FD0320FFF728FF8B
S31517800DE0A0FB0401394889090CF010FD0520FFF78F
S31517800DF01FFFA0FB0401364889090CF007FD022066
S31517800E00FFF716FFA0FB0401324889090CF0FEFC98
S31517800E100720FFF70DFFA0FB04012F4889090CF067
S31517800E20F5FC0920FFF704FFA0FB04012B4889096D
S31517800E300CF0ECFC0A20FFF7FBFEA0FB0401284808
S31517800E4089090CF0E3FC0B20FFF7F2FEA0FB0401E7
S31517800E50244889090CF0DAFC0C20FFF7E9FEA0FB81
S31517800E600401214889090CF0D1FC0D20FFF7E0FE1B
S31517800E70A0FB04011D4889090CF0C8FC0820FFF760
S31517800E80D7FEA0FB04011A4889090CF0BFFC042081
S31517800E90FFF7CEFEA0FB0401164889090CF0B6FCB5
S31517800EA0002070BD281E831700366E0183DE1B4314
S31517800EB0887382179C738217B073821740787D0167
S31517800EC0C4738217D34D62109A7C8217D873821790
S31517800ED0EC7382170074821714748217287482171A
S31517800EE03C748217507482176474821778748217C9
S31517800EF08C748217A0748217024A536F43F00303C8
S31517800F005367704700400C02044A054B116853F823
S31517800F10203000200B431360704700BF00800D02FE
S31517800F20B846821708B50146064B1A68064B53F81A
S31517800F30203006481A4214BF012200220CF066FCA4
S31517800F40002008BD00800D02A8468217C374821739
S31517800F501346002110B510220446186820F02AF986
S31517800F60022C06D0032C07D0012C10D1094B98627E
S31517800F7004E0084B186301E0064B9863054A002086
S31517800F80054B116853F824300B43136010BD0120AD
S31517800F9010BD00BF00800D02A846821710B5044603
S31517800FA0FFF758FBA04234BF0020012010BD000078
S31517800FB0044A054B53F820100020136823EA0103CF
S31517800FC01360704700800D02A8468217F0B500F0AF
S31517800FD07F4401F00F0501F4F873220EC0F30B045A
S31517800FE004F103741E0942EA05222B0E04F5003418
S31517800FF0114D26600D4052EA03044FEA552507D056
S3151780100002F1037201F0F04702F50032FB0E13600E
S31517801010AB030FD4094A0023194010400B0B020B60
S3151780102042EA015252EA03011EBF02F1037202F528
S3151780103000321560F0BD00BF00FEFF0700F0FF000D
S3151780104070B504460E46FFF70BFBC0F307306328CF
S3151780105006D0FFF705FBC0F30730672818BF08349B
S315178010600025B54204F1100405D054E90401013571
S31517801070FFF7ACFFF5E770BD0E4B10B519689C6985
S315178010800D48C1F30253C1F302620C32C35C0B489D
S315178010901A44C1F30143C1F380711944C4F3401351
S315178010A0C35C13440B44202B1ABF012098404FF082
S315178010B0704010BD00001B02DC668217DA66821745
S315178010C0513821289ABF024B53F8200001487047A0
S315178010D0004582175CB08217F0B585B0FFF7C0FA66
S315178010E03E4F0446FFF7BCFA04F47F2604F00F053B
S315178010F004F0F004C0F30730632815D1FFF7B0FA70
S31517801100C0B2202816D4300BFFF7DAFF0646002028
S31517801110FFF78EFD2209013AA0FB070130488B0C99
S31517801120314600932B4614E0FFF79AFAC0F307303F
S315178011306728E3D0300BFFF7C3FF06460020FFF77B
S3151780114077FD2209A0FB070126488B0C31460093B1
S315178011502B460CF05BFB02AA00210E2010F0B2FB87
S3151780116058B903A9029815F0D1F920B903991E48E1
S315178011700CF04CFB04E01D4800E01D480CF046FBC4
S315178011801C4A93689360102B1B4A136017D005D897
S31517801190042B10D0082B10D0012B03E0202B10D056
S315178011A002D8112B11D112E0402B0CD0B3F5803F0A
S315178011B00BD112490CE012490AE0124908E012498C
S315178011C006E0124904E0124902E0124900E012498A
S315178011D012480CF01BFB002005B0F0BD83DE1B43C5
S315178011E014758217417582176D75821786758217E2
S315178011F0AF75821700800D022C1E8317FC74821719
S31517801200D6748217DA748217E3748217E874821792
S31517801210F474821706758217D2748217DD75821752
S3151780122017F026BF16F030B8054B10B55C69FFF777
S315178012307FFCC4F38221013122F0EEEE10BD00BF90
S3151780124000400C0208B508F049FDFFF7D1FCBDE850
S31517801250084012F0A5BD10B50A204C46FFF7E8FCEA
S31517801260C4F8D000002010BDF7B5044690F82800C2
S3151780127015F050FA207C15F04DFAD4E90801FFF7DE
S31517801280A5FED4E90201FFF7A1FE94F8280015F010
S3151780129025FA0546207C15F021FA05EA0002034651
S315178012A0012A01D1002574E0227C3F493F480192EB
S315178012B094F8282000922A460CF0A8FA0121207C5F
S315178012C0092515F03DFA4FF47A701FF07BFB012143
S315178012D0207C15F035FA32201FF074FB0021207C14
S315178012E015F02EFA32201FF06DFB013DEFD101214B
S315178012F094F8280015F024FA32201FF063FB012199
S31517801300207C15F01DFA32201FF05CFB2946207CC5
S3151780131015F016FA32201FF055FB294694F8280047
S3151780132015F00EFA32201FF04DFB0121207C15F0A7
S3151780133007FA32201FF046FB012194F8280015F092
S31517801340FFF932201FF03EFB94F8280015F0E2F9DA
S31517801350207C15F0DFF9284600F0CEF9074694F879
S31517801360280015F0BBF90546207C15F0B7F905EA74
S3151780137000030646012B95D0384600F0BDF9C828DC
S31517801380EDD92A46334608496FF00F0508480CF001
S315178013903DFAD4E90601FFF719FED4E90001FFF7F4
S315178013A015FE284603B0F0BD896482172A76821700
S315178013B05576821702282DE9F041064686B00F46E4
S315178013C090461D4633D802461B4903A81FF0EDFFEA
S315178013D003A995F8280015F095F950BB3246174999
S315178013E003A81FF0E2FF03A9287C15F08BF90446A2
S315178013F0B8B931460120FFF783FB044670B92846F2
S31517801400FFF732FF044648B90D48424600953946DC
S315178014100C4B50F8260015F081FC06E0287C15F059
S3151780142077F995F8280015F073F9204601E06FF0E3
S31517801430150006B0BDE8F0817D768217897682170A
S31517801440C04C8217691280172DE9F0412E480BF090
S315178014507FFF2E4F054620B100244C26DFF8B0803B
S3151780146023E02B4E0446B0463B689C420AD2F3686B
S3151780147083B13046984768B17569264829460CF076
S31517801480C5F9ADB9D8F814500024234829460CF06D
S31517801490BDF90DE001344C36E6E706FB0483284692
S315178014A059691FF069F918B101343B689C42F4D326
S315178014B03B689C4220D24C20154D002160432E1844
S315178014C0B2683046143012F0B5FE024668B93369F1
S315178014D00BB1304698474C23104803FB0454236AB4
S315178014E0E26961690CF092F903E071690C480CF0B6
S315178014F08DF90020BDE8F08129460A480CF086F957
S315178015006FF01500BDE8F08195768217E81E831770
S31517801510F84A82179B768217B3768217D576821703
S31517801520EA7682170B778217024B1878C0B200F0CB
S31517801530F200704704301200374B4FF4004210B553
S3151780154000211A606422013A1960FCD1324B1B685C
S3151780155023F4E074FFF784F8C0F30730632806D1C5
S31517801560FFF77EF8C0B2103800281EDC05E0FFF7BB
S3151780157077F8C0F307306728F2D0FFF771F8C0F312
S315178015800730612811D0FFF76BF8C0F3073066284C
S315178015900BD0FFF765F8C0F30730622805D0FFF741
S315178015A05FF8C0F3073064282BD1FFF759F8C0F3DB
S315178015B00730612805D0FFF753F8C0F30730662840
S315178015C008D1154A44F4A8634FF4E04143F0010368
S315178015D0516018E0FFF744F8C0F307306228F0D05F
S315178015E0FFF73EF8C0F307307228EAD0FFF738F8CE
S315178015F0C0F307306428E4D044F4A07343F00103A2
S3151780160001E044F04103044A00201360526AC9F886
S31517801610DC20C9F8D80010BD008009020B4B596A27
S31517801620D9F8DC2091423EBFD9F8D8200132C9F8C3
S31517801630D8200022C9F8DC10D9F8D810D9F8DC00E0
S315178016400B4642EA00021046194670470080090287
S31517801650D3B5FFF7E3FFCDE90001FFF701F8C0F334
S315178016600730632806D1FEF7FBFFC0B21038002873
S315178016703BDC05E0FEF7F4FFC0F307306728F2D0AE
S31517801680FEF7EEFFC0F3073061282ED0FEF7E8FF8E
S31517801690C0F30730662828D0FEF7E2FFC0F307307D
S315178016A0622822D0FEF7DCFFC0F3073064281CD0EF
S315178016B00420FFF7BDFA0146009A4FF47A70019C11
S315178016C00027A2FB002300FB0434264656EA0700B0
S315178016D02346CDE9002304D1104622F09EEC0090D4
S315178016E005E068461EF09EFF01E00249E4E7009890
S315178016F002B0D0BDC0C62D0010B50446FFF7A8FFAF
S31517801700001B10BD73B5002300900193FEF7A8FF49
S31517801710C0F30730632806D1FEF7A2FFC0B2103890
S3151780172000284BDC05E0FEF79BFFC0F307306728E0
S31517801730F2D0FEF795FFC0F3073061283ED0FEF74B
S315178017408FFFC0F30730662838D0FEF789FFC0F3BE
S315178017500730622832D0FEF783FFC0F3073064283C
S315178017602CD00420FFF764FA009A0026019B314695
S31517801770A2FB0045134A121900FB03554FF00003CD
S315178017806B41CDE900231846014306D10E4BA2FBC8
S3151780179003239B0C8DE8480003E00C4968461EF02E
S315178017A041FF009EFFF73AFF841941F10005FFF7C5
S315178017B035FFA94208BFA042F9D301E00448D3E711
S315178017C002B070BD3F420F0083DE1B4340420F00BD
S315178017D0C0C62D0008B5FEF743FFC0F30730632850
S315178017E006D1FEF73DFFC0B21038002823DC05E08E
S315178017F0FEF736FFC0F307306728F2D0FEF730FFC3
S31517801800C0F30730612816D0FEF72AFFC0F30730DA
S31517801810662810D0FEF724FFC0F3073062280AD057
S31517801820FEF71EFFC0F30730642804D00420BDE8F6
S315178018300840FFF7FDB9014808BD00BFC0C62D0097
S315178018402DE9F04D00274FF07C0B0446B846144B14
S3151780185053F82850ADB1083555F8080C88B11EF0E5
S31517801860B3FF064600F1010A4CB1024626442046CC
S31517801870544455F8081C1FF00FF886F800B05744E3
S31517801880E9E708F10108B8F1020FE0D124B10B227C
S315178018900449601E1FF000F807F10A00BDE8F08DB5
S315178018A06496831721778217012A2DE9F04D1746FB
S315178018B0984602DC4FF0FF352EE0D3F804A00026B9
S315178018C0DFF860B05BF826404CB90136022EF1D0AE
S315178018D0F8E751461EF050FF054620B108342068B8
S315178018E00028F6D1F1E7032F14D10D49D8F808004F
S315178018F01EF042FF0028DDD12E466068FEF7E0FF16
S3151780190056B1636843B100231A461946184600F044
S3151780191047FB01E00126F0E72846BDE8F08D00BFBA
S315178019202C7782176496831738B505460A4C206933
S3151780193018B10CF0BDF900232361084B0020084A23
S315178019401D605A60FFF77CFF0CF068FA054610B1E8
S31517801950FFF776FF256138BDA48C831764968317A6
S3151780196094518217044B1B78DBB213F0F20F0CBF1E
S3151780197001200020704700BF0430120090D09FE5E9
S3151780198007D0CDE30D20A0E1F8D04DE207D0CDE307
S315178019900D90A0E10D10A0E10000A0E3020051E137
S315178019A00000813504108132FBFFFF3A01DB4DE2DF
S315178019B0C0D089E5A20800FA40D099E507D0CDE3D3
S315178019C0009099E5F89049E20CE08FE2440099E59A
S315178019D000E08EE0300099E5140000EA100000EB75
S315178019E056FAFFEB2C009FE52C109FE50020A0E30D
S315178019F0010050E10020803504008032FBFFFF3A5A
S31517801A00630800FB630800FA0900A0E1301099E526
S31517801A1008F09FE500FF930064968317CC218817FB
S31517801A207D3D8017300099E5100F0CEE1EFF2FE1D4
S31517801A304C109FE5014050E01000000A44209FE5B6
S31517801A40000CB1E8000CA0E8020051E1FBFFFF3A59
S31517801A5034209FE534309FE50300B2E8FF1001E29A
S31517801A60170051E30300001A040080E0001090E588
S31517801A70041081E0001080E5030052E1F5FFFF3A7C
S31517801A801EFF2FE1000080176496831764968317CD
S31517801A907C1084171FB50023D9F800200393916C07
S31517801AA0D26C8DE80A0001230292694602AA04F0D5
S31517801AB0EFFD05B05DF804FBD9F8003073B5054620
S31517801AC01B6C01F40074066E144801930BF040FCEE
S31517801AD038B1102101AA1FF0A5FB019910480BF008
S31517801AE095FE0F2000F072FC0E4B0F490F48002C05
S31517801AF008BF19460BF08AFEA12000F067FCFEF797
S31517801B0098FD2B6F0BB1EA6E02E0D9F800305A6C4C
S31517801B1014B901992046B04702B070BD6D77821708
S31517801B2074778217161B83175677821799778217BA
S31517801B30D9F80020D9F800306946926CA1F5805102
S31517801B40DB6C1A44521A1DF0B5BE7047F8B50646B7
S31517801B5034480BF0FDFB336F4BB130460DF08BF8E5
S31517801B6000285ED030480BF051FE1EF09BFDD9F849
S31517801B7000102E4C4D6C052185E812002C4CAB605D
S31517801B80EB602B6105F114032360D9F80030B8B1E7
S31517801B90074610F8013B202BFAD08BB1254B3846D8
S31517801BA0AB611EF011FE39460D30800868612068DA
S31517801BB008301EF0A9FD23681A6803EB8203236099
S31517801BC0FEF774FD23681C4A032183E806001B4928
S31517801BD098604D46D9F8002004201961D860916C19
S31517801BE09961D26C5A6103F11C02716E226079B1C8
S31517801BF0B26E6AB12D68521A114D2C3343F8042CE4
S31517801C000B4A43F80C5C43F8100C43F8081C136016
S31517801C100748FFF79AFF00224B461B6823685A60CE
S31517801C201A60F8BDB2778217BB77821701004154C5
S31517801C306C9683170900415407004154020041549A
S31517801C4005004254F8B510F0C00504461E4617D154
S31517801C5010F4807703D01846FFF778FF12E010F458
S31517801C60C06505D001461846FFF726FF3D4609E0B1
S31517801C701846FFF76BFF21463046FFF71DFF01E039
S31517801C804FF0FF352846F8BD10B50A4B446A9C427B
S31517801C9004D009480BF0A8FD012010BD836A0B609C
S31517801CA0C36A13600A68014604480BF0AFFD00202B
S31517801CB010BD00BF18286F01DB778217F877821758
S31517801CC010B50446C06E58B107491DF0C9F80028EB
S31517801CD006DAE06EFFF7DEFE10B104480BF084FDDE
S31517801CE0BDE81040FEF7A5BC237882172B7882179C
S31517801CF0036EC06E18470000084B1B6813F4803FAD
S31517801D0014BF4FF480334FF48073013B036003682D
S31517801D10002BFCD1024A1360704700BF0421A00034
S31517801D203027A0000148FFF7E7BF00BF7C27A00038
S31517801D300148FFF7E1BF00BFFC27A000054B20F045
S31517801D401F00884202D218602030FAE7024B002221
S31517801D501A607047F027A0003027A000C20638B552
S31517801D6004460D4607D002460C490D481F340BF022
S31517801D704DFD24F01F04EB0606D02A46074909486D
S31517801D8025F01F050BF042FD074BA54202D91C60B3
S31517801D902034FAE7054B00221A6038BD556482173E
S31517801DA0AE728217E17282177027A0003027A000C3
S31517801DB0D9F840200020C9F83C20D9F84020103A9D
S31517801DC0C9F8402070470000034A0020D9F83C30F4
S31517801DD008331360704700BF400080177047002094
S31517801DE07047000008B501481FF0ECFA4D78821746
S31517801DF070B5A2B004468022334902A81EF04CFD66
S31517801E00A26BE16B3148256C0BF000FD05F070462F
S31517801E10D9F80420D2070AD5D9F84410A06BD9F877
S31517801E204420E36B821A2A48591A0BF0EFFCE36AAF
S31517801E30226B616B27480BF0E9FC236A626AA16AF9
S31517801E4025480BF0E3FC2369244800936369A2694C
S31517801E50E1690BF0DBFC236821480093E16863682E
S31517801E60A2680BF0D3FC002EB4BF4E216E2115F05D
S31517801E70804F14BF5A227A2215F0005F14BF43236E
S31517801E80632315F0805F14BF56207620009015487F
S31517801E900BF0BCFC236C144A22AC144813F0800F49
S31517801EA014BF1146014613F0400F03F01F0308BFF6
S31517801EB002460F4804EB83030E4C009453F8803C7C
S31517801EC00BF0A4FC22B070BD804482176678821707
S31517801ED06078821788788217AC788217D0788217BD
S31517801EE00079821730798217698B821717118317B2
S31517801EF040798217161B831708B5044603480BF0DB
S31517801F0085FC2046FFF774FFFFF76CFF5F79821712
S31517801F1008B5044603480BF079FC2046FFF768FF9F
S31517801F20FFF760FF7679821708B5044603480BF0EA
S31517801F306DFC2046FFF75CFFFFF754FF8A798217FF
S31517801F4008B5044603480BF061FC2046FFF750FF9F
S31517801F50FFF748FF9A79821708B5044603480BF0AE
S31517801F6055FC2046FFF744FFFFF73CFFA6798217FB
S31517801F7008B5044603480BF049FC2046FFF738FF9F
S31517801F80FFF730FFB079821708B5044603480BF080
S31517801F903DFC2046FFF72CFFFFF724FFB579821704
S31517801FA008B508480BF020FC4CF250301EF00AFD9D
S31517801FB0FFF715FFFEF7D8FC002014F09BFA0020D8
S31517801FC008BD00BFB37A821782B000230193019BA5
S31517801FD0632B03DC0046019B0133F7E702B070479A
S31517801FE038B511EE102F0546FFF7EEFF042802D1FC
S31517801FF0530712D5052511EE104FFFF7E5FF052D6F
S3151780200007D1FEF791FA24F0040301EE103FFEF78D
S315178020108BFA24EA050401EE104F38BD7047D9F8BC
S31517802020F03041EA005141F4406143F8201070477F
S31517802030F8B500F57F2303F6FF73050D1944D9F814
S31517802040F0702E460C0DA64205D230461146FFF784
S31517802050E6FF0136F7E707EB840107EB8500BDE856
S31517802060F840FEF796BA10B5D9F8004004EBC004CD
S31517802070A26C120DE36CA16C1B0D03EB11539342EB
S3151780208005D910461E21FFF7CAFF0132F2E710BDA8
S3151780209008B511EE102FFFF797FF42F4805201EE25
S315178020A0102F08BD4FF48050FFF79ABF11EE100F0F
S315178020B0C0F30030704710B511EE102F12F00104DF
S315178020C01FD1FEF741FA224610461221FFF7A7FFC6
S315178020D00132B2F5805FF7D10020FFF7C4FFD9F838
S315178020E0F03002EE103F4FF0FF3303EE103FFFF74D
S315178020F095FF11EE102FFFF767FF42F0010201EEF1
S31517802100102F11EE102FFFF75FFF42F0040201EE3A
S31517802110102F10BD0420FFF763BF11EE100FC0F309
S3151780212080007047FEF722BC10B54C46FEF7A4FF19
S315178021306063002010BD000008B503691A68064B56
S315178021409A4206D1072014F0C9FAB0FA80F04009EE
S3151780215008BD012008BD00BF0080190238B50721C8
S3151780216005461248FEF76CFF0C20FEF761FD104CF2
S31517802170042323726060072014F0CCFA2146284680
S3151780218015F00CF888B90B210A48FEF759FF0A2073
S31517802190FEF74EFD082304F12C0184F834302063B2
S315178021A02846BDE8384014F0F9BF38BD604382171A
S315178021B0601E8317D043821737B5044600680723F6
S315178021C04FF0FF320093616B0D23056BA84720688C
S315178021D048F216034FF0FF3200930E23056B616B9F
S315178021E0A847206844F207034FF0FF3200930D2368
S315178021F0056B616BA84720680E234FF0FF32616B22
S31517802200C56AA8474FF6E3734FF0FF32616B0340F9
S31517802210206843F0180300930E23056BA8472068A0
S3151780222005234FF0FF3200931D23056B616BA8477B
S3151780223020681E234FF0FF32616BC56AA8474FF09F
S31517802240FF32616B83B2206843F4807300931E2339
S31517802250056BA84763689B690BB120469847002092
S3151780226003B030BD10B5102104460A48FEF7E8FEC4
S315178022700021192014F064FA4FF4FA701EF0A2FBAD
S315178022800121192014F010FA2046BDE81040FEF7F8
S31517802290C7BF00BF3042821708B502210D48FEF727
S315178022A0CFFEFEF729FE0C4A536B43F003035363A5
S315178022B0FEF7D6F9C0F30730632813BF50210748B6
S315178022C042F250010648FEF781FE742014F022FA76
S315178022D0002008BD3043821700400C026C0148006D
S315178022E0AC003C000120704708B50F48FFF71CFB70
S315178022F0FEF7B6F9C0F30730632805D10B490C48AA
S315178023000AF0DCFE0B490AE0FEF7AAF9C0F307309C
S315178023106728F3D0084906480AF0D0FE07490848C7
S315178023200AF0CCFE002008BD30468217DF7A821766
S31517802330E47A8217EE7A82170A7B8217107B8217C6
S31517802340017B821708B50120D9F80030164A17493C
S315178023505A647F22164BFFF72DF8FEF781F9C0F3E3
S315178023600730632801D1134B06E0FEF779F9C0F3DE
S3151780237007306728F7D00E4B7F220C490120FFF7CD
S3151780238019F801210C48FEF75BFE0021332014F063
S31517802390D7F94FF4FA601EF015FB0121332014F09C
S315178023A083F9002008BD00BF00010010A086010038
S315178023B0B81E8317301E83175043821708B50248F5
S315178023C00BF012FA002008BD257B8217704708B5D7
S315178023D0A220FFF7FBFF0CF057FF01F05DFA01F023
S315178023E0A5FABDE808400CF04BBF70470720704729
S315178023F010B578204C460BF011FD3949A066D9F8EF
S31517802400682038481160D9F8682037495160D9F85B
S31517802410682036499160D9F868203549D160D9F84E
S31517802420682034491161D9F8682033495161D9F840
S315178024306810324A8A61D9F86810CA61D9F8681063
S315178024400862D9F868102E484862D9F868102D485E
S315178024508862D9F868102C48C862D9F868102B4852
S315178024600863D9F868102A484863D9F86810294844
S315178024708863D9F868102848C863D9F86810274838
S315178024800864D9F8681026484864D9F8681025482A
S315178024908864D9F868102448C864D9F8681023481E
S315178024A00865D9F8681022484865D9F868108A658A
S315178024B0D9F86810CA65D9F868100A66D9F8681005
S315178024C04A66D9F868108A66D9F86810CA66D9F83C
S315178024D068201849D9F868301167174A5A6710BDA6
S315178024E0ED2380171DDE801751D8801785D8801762
S315178024F0C5D78017E9D780170DD88017EB23801794
S31517802500B1DC8017C5098217F91680179FD88017EF
S31517802510A11F801751D38017BDD08017B511821789
S315178025202512821767128217790782170969811709
S31517802530D568811781128217591382172DE9F041B1
S31517802540069E079D012E28DDCB0701D5022E24D0A6
S315178025501022002128681EF02DFE10220021074622
S3151780256068681EF027FE4FF48033394602460446C4
S3151780257000201EF055F83A19013A39460346804627
S3151780258009480BF043F9022E0BD010220021A868B8
S315178025901EF010FEC0F8008003E04FF0FF30BDE854
S315178025A0F0810020BDE8F081627B821702680023E4
S315178025B04360036102B11370704703685A1C026047
S315178025C01878002808BF4FF0FF30704703681878CF
S315178025D070470000034A013810F8013F0BB1D154F8
S315178025E0FAE770478097831701480BF00FB900BF3A
S315178025F08D7B82172DE9FF4D00264FF0180B044669
S315178026000191002C3DD00026019B37460333029358
S3151780261023689F4229DA0BFB07F8D4F804A00AEB44
S3151780262008055AF80810C1B10021A868814208DA4E
S315178026302868039150F821000BF03AFB0399013172
S31517802640F3E75AF808000BF033FB68680BF030FB9A
S315178026500021A9604AF8081005E0E86818B10299C0
S31517802660FFF7C8FF06460137D2E760680BF020FBF5
S31517802670A568002320466360A3602C460BF018FBE1
S31517802680BFE7304604B0BDE8F08D000008B50BF003
S31517802690C5FB18B902480BF0B9F8FEE708BD00BFAD
S315178026A09B7B821708B51420FFF7F0FF0022026084
S315178026B042608260C260026108BD000008B50BF0F7
S315178026C01BFE18B902480BF0A1F8FEE708BD00BF3C
S315178026D09B7B8217036870B50646856833B1DA68BF
S315178026E00AB91B68ABB12B6801332B60296818248C
S315178026F0686801FB0441FFF7E1FF2B6800225C4302
S315178027000319686002515A60DA601A61B2693360D8
S315178027105A61002070BD38B504460D46FFF7DAFFBB
S31517802720A368E268DD6000251A61FFF7BBFFA3681F
S315178027309860A06020462560FFF7CCFF284638BDF5
S3151780274043682DE9F04D07460C4623B9036913B93B
S315178027500020BDE8F08D2568EB6813B1FFF744FFBD
S3151780276095E02E6816B13B6801207DE0A3699B072B
S31517802770F9D5DFF88CB156F80B100BEB060A3868CB
S315178027801DF0FAFF8046002862D1DAF8083018055E
S315178027902AD51C20FFF77AFFE3680C2B834601D0D6
S315178027A0062B05D1FFF720FF58460BF081FA25E057
S315178027B0264605460FCE0FC596E8070085E807001B
S315178027C0C4F80880C4F80080FFF76CFFC4F80C8043
S315178027D0C4F81480C4F810806060A0602046FFF7A4
S315178027E079FFC4F814B00CE0E3682BB12369DAF8E3
S315178027F004201341D90704D4FFF7F6FE0D23E360AF
S315178028001CE0DAF80430E360DAF80830DA07236177
S3151780281014D501212046FFF77EFFD4F814E06268AD
S315178028202546DEF800307646DA600FCE0FC596E875
S31517802830070085E8070070460BF03AFA3846FFF727
S31517802840B5FEE068A0F10D0358425841BDE8F08DFA
S315178028500C36842E8FD186E71A783AB15C2A00F126
S31517802860010008BF01330133002BF5D10BF0D6FADF
S31517802870804660B1286800B9A860AE68731C0236B6
S31517802880AB60B60031460BF037FD286010B90120D2
S31517802890BDE8F08D314668680BF02EFD686000281C
S315178028A0F5D02A68A6F108033969043E42F80380F1
S315178028B06A68D15000232A6893516A6893513B6896
S315178028C093B90025384688F80050FFF76FFEE368FE
S315178028D0062B7FF43DAF21463846FFF731FF01219E
S315178028E02046FFF718FF33E71A78002AE9D05C2AC3
S315178028F008BF013313F8012B08F8012BE0E700BF57
S31517802900EC1E8317012A2DE9F34D17469B4602D0F5
S31517802910002401262FE01E4B1C68002C34D094E827
S3151780292006001C480AF072FF0AF0C8FF20B11A4841
S315178029300AF05AFF012028E02469EEE74146286805
S315178029401DF01AFF38B9019095E8060011480AF06C
S315178029505DFF019B9A460AF0B1FF0028E7D12D69E2
S31517802960002DEBD1BAF1FF3F04D141460B480AF04F
S315178029704DFF01340136BE4206DA054B4FF0FF3A5A
S315178029805BF826801D68EBE7204602B0BDE8F08D20
S31517802990AC988317B97B8217C07B8217CC7B82173B
S315178029A088B1094A0378D35C13F003030AD010F869
S315178029B0013FD15C4907FAD15F2BF8D03D3B58428E
S315178029C05841704718467047DA65821703682DE9AC
S315178029D0F0410446002B75D136E01DF0F5FE002830
S315178029E065D101236360A36800263C4D012B08BF80
S315178029F03B48A84618BF3B480CF0C8FF013028460D
S31517802A0001BF00236360384A13601DF0DDFE0A2379
S31517802A102B54284446700AF0AFFF08B1324B1E601C
S31517802A200AF0B0FFA768314B0026012F1E6017D119
S31517802A302A782D4D0A2A0BD12A687AB927492C4824
S31517802A401DF062FE2A4B236020680028C5D1C8E78F
S31517802A50224927481DF058FE2F60F3E71F60F1E7DC
S31517802A602B780A2B1AD0224D28461DF0ADFE074625
S31517802A701A481DF0A9FE3844FF280AD828461DF0A3
S31517802A80A3FE16492023284400F8013C1DF03CFE7E
S31517802A9004E00A232B70144B6E701E6062681AB995
S31517802AA0134B0A215A701970C4F80080CCE7206836
S31517802AB00223A36078B1037863B1431C236000783F
S31517802AC0BDE8F0811A78002ABED05A1C02601878A1
S31517802AD0BDE8F0811846BDE8F08100BF54E584173C
S31517802AE097A682178B0C83177096831780988317F0
S31517802AF07896831770B50E464368044681688B426D
S31517802B000CDB056801F164036531836028460BF099
S31517802B10F3FB206020B928460BF0CAF8206840B12D
S31517802B206368C65400206368226801336360D05493
S31517802B3070BD012070BD000038B504460D462AB910
S31517802B4029462046BDE83840FFF7D4BF05481DF013
S31517802B502FFE0028F4D05C212046FFF7CBFF0028F4
S31517802B60EED038BDE87B8217036818787047000067
S31517802B7038B5054608B9002038BD0378242B0DD102
S31517802B80437800200C4C3F2B207014D10B4B2046DA
S31517802B900B491A681EF009FC204638BD094B1C687C
S31517802BA0002CE8D0294620681DF0E6FD08B9606834
S31517802BB038BD2469F4E738BD849883177C978317C3
S31517802BC0ED7B8217AC9883172DE9F04D88460378ED
S31517802BD03C4AD35C9B0722D01DF01AFE07460AF0A3
S31517802BE0B7FB044630B138480AF010FE38460BF06A
S31517802BF05FF814E03D2138461DF0DAFD334B1D682A
S31517802C00002808BF012000F1010A04701C4655B13F
S31517802C10394628681DF0B0FD28B32D69F7E74FF0C0
S31517802C20FF30BDE8F08D14200BF0F8F8064628B370
S31517802C3038461DF0EDFD306018B930460BF038F880
S31517802C401CE05046D4F800B01DF0E2FD3561C6F899
S31517802C500880F5607060DBF810400CB1A346FAE780
S31517802C60CBF810600CE0514668681DF085FD68B199
S31517802C70EB689BB1394616480AF0C8FD4FF0FF340A
S31517802C8038460BF015F82046BDE8F08DB8F1000FE1
S31517802C9015DDAC689CB9C5F80880F1E7B8F1000F67
S31517802CA002DCAB68012B01DD0123AB606868002469
S31517802CB00AF0FEFF50461DF0ABFD6860E0E7012481
S31517802CC0DEE700BFDA658217F07B8217AC98831729
S31517802CD0337C82172DE9FF4D002405460291A046C5
S31517802CE02646032128461DF063FD0746002800F077
S31517802CF0B080BD420ED0C5EB070A204606EB0A0800
S31517802D004146FFF7DBFC52462946044630441DF000
S31517802D1003FD4646013703214FF0000838461DF05C
S31517802D2047FD019080F80080002F00F08A803A21B5
S31517802D3038461DF03DFD824618B900229046154645
S31517802D4012E0437880F800802D2B02D1851C4246ED
S31517802D500AE03D2B04D14246851C4FF0010803E05B
S31517802D602B2BEAD1851C0122384603920AF0F0FAFA
S31517802D70039A834648B93846FFF7FAFE039A83467D
S31517802D8018B9B8F1000F28D006E0584603921DF0FF
S31517802D901BFD0028F5D019E038461DF015FD804635
S31517802DA028461DF011FD404402300BF037F8804657
S31517802DB040B137492B463A461EF0F7FA002140466E
S31517802DC0FFF702FF40460AF073FF06E0039A42B107
S31517802DD058461DF0F9FC0BEB0005BAF1000F04D12C
S31517802DE006E05D46BAF1000F03D03A238AF8003021
S31517802DF03DB3029B284623B11DF0E6FCB71C07445A
S31517802E0002E01DF0E1FC37182046791CFFF756FCC7
S31517802E10029B044683B106F10108294680444FF088
S31517802E20040A40461DF070FC04F806A028461DF0DB
S31517802E30CBFC08F800A003E0294630441DF064FC5B
S31517802E403E46019D4FF003034FF0010805F8013BFD
S31517802E5047E7B8F1000F14D028461DF0B5FC711C52
S31517802E6001442046FFF72AFC2946044630441DF0C4
S31517802E704BFC20260A2120461DF09AFC08B10670C5
S31517802E80F8E7002C14BF2046284604B0BDE8F08D1D
S31517802E90497C82172DE9F0410E4686B004460028F4
S31517802EA036D00378002B35D00A21DFF878801DF0CD
S31517802EB07FFC1A4F08B14378F3B120461DF084FC86
S31517802EC00230FFF7E3FB214605461DF01DFC14492A
S31517802ED028461DF02DFC314601A80123CDF8148014
S31517802EE0029303930497019500F08AFA04462846BD
S31517802EF00AF0DEFE20460EE0314601A80123CDF802
S31517802F001480049702930393019400F079FA02E0F0
S31517802F10012000E0184606B0BDE8F081BB25801772
S31517802F209A7C8217692B80172DE9F04D8EB006464D
S31517802F300346E3B11A699B680C2A01D0062AF8D191
S31517802F402BB9FFF751FB9D4B00221A6045E20C2ADD
S31517802F5007D11A690C2AECD15A681268002AE8D068
S31517802F60EFE7062AE5D11A690C2AE2D0E9E74FF08E
S31517802F700B0801271D469A469B460393049306938F
S31517802F8005930B930A93002E00F029823369063B2B
S31517802F90022B0DD80AF092FC0AF0EEFC002840F0BE
S31517802FA01C82039B0BB1059002E08246039605901F
S31517802FB03469A04506D12FB1F76817F1FF3718BFC7
S31517802FC0012703E2022C02D0042C0BD104E0049BC8
S31517802FD0002B40F0F78103E0049B002B00F0F28171
S31517802FE00693C3E0032C04D1069B002B40F0BE80CA
S31517802FF0F5E1062C40F0A4803368002B00F0E481BD
S31517803000BBF1000F7BD1B3685B681F68002F00F098
S31517803010DB8173681B681B6818460A931DF0D4FBFF
S315178030200B900420FFF732FB3B1F0993002307936E
S315178030308346099B53F8040F0993002853D0002120
S31517803040FFF748FE074608903B78002B42D0202B87
S3151780305001D10137F8E7202138461DF0A9FB034631
S3151780306010B1C7EB000A04E038461DF0ADFB3B18DC
S3151780307082460C935846079B03F102084FEA880845
S315178030804146A8F10808FFF719FB0B9B8346981C46
S315178030905044FFF7FBFA0A994BF808001DF034FBEA
S315178030A047495BF808001DF043FB524639465BF8E3
S315178030B008001DF04CFB079B5BF80820013307932C
S315178030C00B9B1A444FF0000392448AF801300C9BED
S315178030D01F46B9E7099B089A1B689A42A9D01046DA
S315178030E00AF0E6FDA5E7079B4FF0010ACDF82CB04D
S315178030F04BF8230073681B681A6818600A927368FE
S31517803100DBF800801B681868B8F1000F0DD10AF03C
S31517803110CFFD0B980AF0CCFD73680A9A0B2401270A
S31517803120C2461B68C3461A6050E108B10AF0C0FD53
S3151780313073680BF1040B5BF8042C1B681A6015E097
S315178031400C2C00F04181092C04D1BAF1000F00F044
S315178031503B810BE00A2C09D1059BBAF1000F18BFEA
S3151780316001230593039B08BF002303933368002B22
S3151780317000F02A81012B40F00681D6F80480D8F812
S315178031800C0010B1FFF7D0FEF2E0D8F80070002FD0
S3151780319000F0F980054657F8252010460792FFF765
S315178031A0FFFB079A08B10135F5E7064B1B680793AE
S315178031B0002D47D042B1054644E000BF709683176D
S315178031C0B9A78217809883171746D8F80030D85929
S315178031D000B31DF01DFB3D2105461DF0E9FA10B120
S315178031E04FF00003037028460AF062FDD8F80030C6
S315178031F00021D859FFF76EFD00210546FFF7E4FC3D
S31517803200D8F80030DB599D4202D028460AF050FD87
S315178032100437DAE70546B8E000211046FFF75AFD6E
S3151780322000210746FFF7D0FCD8F800305B59BB4220
S3151780323007D0D8F810303846013BC8F810300AF056
S3151780324037FD0435D8F800305F195A591046089259
S31517803250FFF7A6FB089A0028DED1D8F810100029A8
S315178032606ED007906048D8F80480FFF781FC38B194
S315178032700078079B302805D0031C18BF012301E06F
S31517803280089000E0089345444FF000083B1F0793CA
S31517803290474602230C93079B53F8042F0793002A5C
S315178032A03BD008991046FFF715FD09901DF08CFA4B
S315178032B029680C9B0D9503EB410101443846FFF7AE
S315178032C0FDF90746B8F1000F03D048491DF030FACB
S315178032D001E080F800802B681BB1454938461DF000
S315178032E027FA099938461DF023FA0D9B04351B6872
S315178032F01BB13F4938461DF01BFA38461DF064FA54
S31517803300099AC31C0C93079B1B689A4202D01046D6
S315178033100AF0CEFC08F10108BDE7384607921DF082
S3151780332053FA079A0A2305213B5438444270384684
S31517803330FFF7B0FD38460AF0BBFC2E4B1D6818E028
S315178033403B2110461DF034FA30B1D8F800302A48A0
S3151780335059590AF05BFA16E000900798274B003008
S31517803360D8F80020D8F8081018BF01200CF0B4FD43
S3151780337005466B1C09DA1F4A6FF001035B1B6FF05A
S31517803380010013602CE04FF0FF351A4A2B1C18BF2B
S315178033900123136024F00202012A0AD0072C04D1D4
S315178033A0B5FA85FA4FEA5A1A04E0082C08BF9A46E6
S315178033B000E00495F3680DB9032B00E0022B18BFC4
S315178033C00B2402E0049B06930B240127059B0BB95C
S315178033D0B66800E0039EA046D5E5012000E02846A2
S315178033E00EB0BDE8F08D00BF4F7C82177719831713
S315178033F02B8282177C9783175C7C8217709683172C
S315178034002DE9F04D90B004461422009104A80021AE
S3151780341001261DF01EFA009B002513F0080F14BF16
S315178034204FF0FF330A230193009B0B9509950F9352
S31517803430FFF738F90C950E950D95A54F0A900B90B9
S3151780344009A8FFF747F9A34809F082FF08B1386042
S3151780345001E0A14B3B604FF4807200219F481DF01D
S31517803460F8F9032103A804238DF80D508DF80C3035
S31517803470FFF7B0F803219A48FFF7ACF8012199486E
S31517803480FFF7A8F802213868FFF7A4F8009B03F026
S315178034900603022B03D000219348FFF79BF80123DD
S315178034A0A360E36820469847B0F1FF3F804600F057
S315178034B03F818A4A12F808B06268002A00F03A817A
S315178034C0B8F10A0F04D0226920469047824601E058
S315178034D04FF0000ABBF1000F05D00BF1FF32012A1E
S315178034E015D8079A12B1079A414659E0BBF1020FD0
S315178034F00DD109A904A8FFF723F9002840F01A81EE
S31517803500B8F10A0F03D1012109A8FFF704F9019B26
S31517803510984505D1079F1FB90C9A002A00F00E818E
S31517803520BBF1020FBDD0B8F1260F00F0C48012DCB4
S31517803530B8F1220F00F0B18006DCB8F1040F40F025
S31517803540F48001230893EAE0B8F1230F17D0B8F176
S31517803550240F38D0E9E0B8F13B0F00F0A68006DCDF
S31517803560B8F1270F40F0E180012308938EE0B8F178
S315178035705C0F19D0B8F17C0F00F0BA80D5E0059BA7
S3151780358063B9079B53B9236920469847471C88D048
S315178035900A2886D0E36820469847F4E7079A2321B6
S315178035A004A8FFF7C9FA7CE7BAF1FF3F00F0BD80A0
S315178035B0079A414604A8FFF7BFFAE368204698475B
S315178035C0079A0146ECE7226920469047474BC2B2D5
S315178035D007469A5C910714D0032104A8FFF78AFA45
S315178035E0099A1369013313612369204698473F4A1D
S315178035F0C3B20746D35C5A0740F0DA805F2834D1C6
S31517803600D6E03F280DD07B2834D1032104A8FFF7B5
S3151780361071FA099A2046136901331361E36898474B
S315178036201CE0099904A80A6901320A610321FFF788
S3151780363061FA414604A8FFF75DFA394604A8FFF7F1
S3151780364059FA032104A8FFF755FAE36820469847E5
S3151780365027E77D2809D004A8FFF74CFAE3682046A8
S315178036609847431C0146F4D15FE0032104A8FFF76E
S3151780367041FA16E7079A242192E727283FF411AFD4
S315178036806368002B56D004A8FFF734FAE368204600
S315178036909847471C0146F0D147E001230893079BBB
S315178036A0B3FA83F35B090793FBE609A904A8FFF727
S315178036B047F8012127E009A904A8FFF741F8BAF1CD
S315178036C0260F32D1E3682046984702211BE000BFB8
S315178036D074968317947C8217987C821780978317A2
S315178036E09C7C8217A17C8217A67C8217DA65821743
S315178036F009A904A8FFF724F8BAF17C0F15D1E36856
S3151780370020469847032109A8FFF705F8C9E6042933
S315178037103FF4C7AE63686BB104A8FFF7EBF9E368AC
S315178037202046984701460130F1D1FEF75DFF01E04B
S31517803730074603E03C4B01271D600AE00D9B1BB132
S31517803740FEF752FF384B1D60DDF834A0BAF1000F33
S3151780375036D00D9B2BB10E980AF0AAFA04A8FEF75D
S3151780376025FF636813B931480AF050F8012325609D
S31517803770636000210A9808950795FEF73BFF04A812
S31517803780FEF714FF04980AF093FA04950695013705
S3151780379044D0009BDB0741D42269254B9A427FF49C
S315178037A043AE2046FFF7E0F900287FF43DAE35E0BB
S315178037B0E36820469847394604A8FFF79BF913E72D
S315178037C009A904A8FEF7BCFF012109A8FEF7A3FFE4
S315178037D0DDF828B05846FFF7A7FB514606465846E8
S315178037E0FEF708FFB11C12D104A8FEF7DFFE049876
S315178037F00AF05EFA22690F4BCDF810A09A42CDF8DF
S3151780380018A00AD10C4856460AF000F8BFE7721C72
S31517803810B5D1054BC3F800A0B1E75646301C18BF83
S31517803820012010B0BDE8F08D70968317D47C82176F
S31517803830692B8017CD258017AB7C82177FB506A895
S31517803840074B02210593074B049301230293039396
S31517803850002340F8143DFFF7D3FD07B05DF804FB4E
S31517803860CD258017CD29801738B5084D2C685CB9BA
S3151780387014200AF0D3FA064B0360064B28600461BE
S31517803880436001238460C360002038BDAC988317DA
S31517803890E17C8217EE7C821738B51B4809F058FDF4
S315178038A028B10A2200211DF0DEFC054600E002251C
S315178038B0164B1C6814F480140CD103F53B2314485B
S315178038C003F5A07325461C6009F0A0FF114809F07F
S315178038D0FFFD02E0104809F099FF104809F038FDFE
S315178038E00A4B1B680446DB0207D40D4809F030FDE6
S315178038F0044601460B4809F089FF4B462046DB6D87
S31517803900094B1D6038BD00BFB17D821700900C0230
S31517803910BB7D8217D77D8217027E82170F7E82170D
S31517803920177E8217237E8217B0988317F8B50646B7
S315178039301C4B1C68631C33D090B3002C03DB2146C9
S31517803940194809F063FF0025002C1DDDDDB92846CF
S31517803950FDF7D2FE074609F095FF20B109F078FFEB
S31517803960012500240AE042F210701DF02BF8384624
S31517803970FDF7C2FEB0F57A7FEDD3013C21460B48A1
S3151780398009F044FFE0E701250A2009F01BFF3DB93E
S315178039902A4630464FF0FF31BDE8F8400BF02BBC76
S315178039A0F8BD00BFB0988317387E82175B7E821763
S315178039B003490020034B5B1AC9F83830704700BF9C
S315178039C000008017CC218817D9F83030002023F4CF
S315178039D07F6323F00F03C9F8303070474FF4804266
S315178039E0C9F8F420D9F8F4100020D9F83020521AE3
S315178039F0C9F83020D9F83020120C1204C9F83020B3
S31517803A00D9F83020C9F8F0207047D9F83810002037
S31517803A10D9F83020521AC9F83020D9F8302022F434
S31517803A207F6222F00F02C9F83020D9F83020C9F802
S31517803A3040207047D9F840300020A3F52003C9F8F5
S31517803A4040307047D9F8003041F2E73200201A64C7
S31517803A507047D9F840200020F83AC9F84020D9F89D
S31517803A604020C9F848207047D9F85C20BAB1D9F8F0
S31517803A705C20526812BA02F580521F3222F01F025A
S31517803A80C9F86420D9F86410D9F84020521AC9F8B1
S31517803A904020D9F84020D9F86410C9F86020002052
S31517803AA0704700207047D9F8C0200020D9F8C02069
S31517803AB002F58062C9F8C420C9F8C800704700208B
S31517803AC0704708B54946D9F83030F822A3F1BC5368
S31517803AD0C9F84430D9F848001CF0DEFE002008BD2E
S31517803AE0D9F8602008B55AB1D9F86000D9F85C10B2
S31517803AF0D9F864201CF0D0FED9F86020C9F85C206C
S31517803B00002008BD08B5024809F06EFE002008BDE2
S31517803B10637E821708B5054809F066FE12F0C2FE65
S31517803B20034809F061FE002008BD00BF6B7E82172F
S31517803B305800831710B54FF4E1320A2103484C46D3
S31517803B4009F03FFCA060002010BD00BF737E82176E
S31517803B5001200DF0F7BD08B59A20FEF737FC002037
S31517803B6008BDD9F8001008B569B9D9F84020503A78
S31517803B70C9F84020D9F84020C9F800205022D9F832
S31517803B8000001CF066FE002008BD0020704700204C
S31517803B90704700207047704770477047D9F80030D4
S31517803BA010B50024D86C064A21461CF0F3FB204634
S31517803BB0FFF7F3FF0A2009F005FE204610BD00BF68
S31517803BC0161B8317D9F800204FF0805110B59164D2
S31517803BD0D9F800400BF058FAE06410BD08B5FFF726
S31517803BE0F1FF002008BDD9F82C20B2F1805F2CBFD9
S31517803BF0D9F82C000020704710B54FF08052C9F8BD
S31517803C002C200BF041FAD9F82C304C461844C9F8B9
S31517803C102C00D9F83800FFF7E6FFE0620020D9F8C4
S31517803C202C20C9F8302010BDD9F84020103AC9F891
S31517803C304020D9F8402022F00F02C9F84020FEF71D
S31517803C40B7B8000008B50022C9F80400C9F82020C3
S31517803C5003481BF041FD08B11CF024FD08BD00BFC9
S31517803C60701F831700207047034A0020034B9B1A47
S31517803C70034A1360704700BF000080177C108417B3
S31517803C80B4988317002070470020704708B5FEF751
S31517803C909EFBFCE708B5044809F0A6FDD9F8000095
S31517803CA01EF034FA002008BD7C7E8217D9F80010E2
S31517803CB008B5303102481EF0FFF8002008BD00BF56
S31517803CC0BC9B821708B5FEF789F8002008BD08B592
S31517803CD0FEF78EFB002008BD10B509F0C9FC102130
S31517803CE0034C0448226809F06CFB2060002010BD45
S31517803CF0783C8317847E821708B5044809F074FDCB
S31517803D00D9F8000014F03AFC002008BD8D7E821782
S31517803D1008B515F027FE002008BDD9F84C200020DD
S31517803D20C9F85020C9F84C000DF00CBDD9F83000F1
S31517803D304FF4200108B5A0F5200009F065FF002093
S31517803D4008BD08B5FCF794FD002008BD08B59B2073
S31517803D50D9F8043043F4007343F00103C9F80430EB
S31517803D60FEF734FB002008BD0020704700207047FF
S31517803D70704708B5FFF7FCFF002008BD08B5024855
S31517803D801BF0AAFC1CF08EFC0C208317FEF716BBC3
S31517803D900346084611461847012A70B5164618DD98
S31517803DA01C46102254F8040F00211DF003FA05460D
S31517803DB001460A4809F02AFD2246711E2846FFF752
S31517803DC0E7FF041C0146064818BF012409F01EFDAB
S31517803DD001E04FF0FF34204670BD00BFA57E8217E5
S31517803DE0CD7E82172DE9F04502F1FF38B8F1000F25
S31517803DF087B006460F4615461C4603F1040A2CDD86
S31517803E001022586805A91DF0D5F9059B1A7822B393
S31517803E103A2A22D0232A20D00922184960680BF023
S31517803E20BDFDAA1E04F10803A0B1C1681448012973
S31517803E3008BF072111F0010F07D1D0F88C40A14296
S31517803E4003DC104809F0E2FC04E000240190029498
S31517803E5000910BE04FF0FF300CE001230293084BE3
S31517803E604246019340F20F730093534639463046C4
S31517803E7000F0A0F907B0BDE8F08500BFFC238317D3
S31517803E80B89883178B7F821710B50C46034809F0AD
S31517803E905FFA2146BDE810400BF0A6B90F7E821750
S31517803EA038B501460446184809F0B0FC20460AF092
S31517803EB0ADFD0128054621D1144809F095FC2268E5
S31517803EC0134B9A4201D0134804E020460AF03AFC75
S31517803ED018B9114809F088FC14E020460AF014FD39
S31517803EE00E4809F081FC20460AF041FC08B90C48B7
S31517803EF0F0E70C48002509F077FC03E00A4801250E
S31517803F0009F072FC284638BDB57F8217D67F82178F
S31517803F1027051956ED7F8217028082171A80821716
S31517803F2035808217468082174A808217012AF8B50C
S31517803F3016461F4605DC0C4B1868BDE8F840FFF798
S31517803F40AFBF002501241022002157F82400013421
S31517803F501DF030F9FFF7A4FF002818BF0125A642E8
S31517803F60F1D12846F8BD00BF783C831773B505464F
S31517803F700D480E4609F0ECF908B9002012E00B49F6
S31517803F801CF0FAFB04460028F7D1094B0190094823
S31517803F901968009609F03AFC6B4601222146284695
S31517803FA0FFF720FF02B070BD618082176B80821782
S31517803FB0783C83176F8082172DE9F045561E224C61
S31517803FC087B01F1D1D4632460123029382468DE810
S31517803FD018003B46884600F0EDF81EB91B4B1B6848
S31517803FE0236605E01022002168681DF0E3F8206635
S31517803FF005AA04A9206E144DFDF746FEF8B9049B51
S3151780400005F19000059A296ED21A1BF053FC3A4691
S315178040103146404600F01CF888B900F0C3F80523EE
S315178040200194324684F85E30414601235046029306
S315178040304FF4E06300933B4600F0BCF800E00120A4
S3151780404007B0BDE8F08500BFB8988317783C83170B
S31517804050F0B585B0164C0D461646074604F168032B
S3151780406031460193224604F16403284600930223BE
S315178040700AF0E0FC08B10F480FE004F170032946F7
S315178040800293324604F16C03009401933846022357
S315178040900AF0DCFE054620B1074809F0A5FB01208A
S315178040A003E0E06E01F00AFD284605B0F0BD00BFBB
S315178040B0B89883177B828217A08282172DE9F041E1
S315178040C00546DDF82880D8B216460C46099FC8F8EB
S315178040D000100AF005FC024655B9294B29492A488A
S315178040E0B44218BF194609F091FBB44207D13CE098
S315178040F00146264809F08AFB012D0AD012E0089A54
S31517804100BA4217D84FF48033079906980AF0B0FB4E
S315178041102BE008AB079A394606981BF0A3FA064692
S3151780412018B308E029461A4809F070FB6FF00200A9
S31517804130BDE8F0810126E8B2089C0AF0DBFBA742AE
S31517804140014603D8134809F061FB03E0324612484B
S3151780415009F05CFB114809F059FB6FF00500FEF773
S3151780416035F94FF0FF30BDE8F081089B0C481C44A9
S31517804170C8F8004009F038FB0020BDE8F08100BF81
S31517804180C8828217C4828217D0828217DE828217EC
S31517804190F78282171A8382174A8382176383821755
S315178041A04680821710B5FDF71AFE044606F0FEFD07
S315178041B0204610BD2DE9F04D8EB098461746179DAF
S315178041C0169E0991D5F88C30F107079043EA0603B6
S315178041D0C5F88C3028D5BD4C4FF4987200212046EF
S315178041E01CF037FBBA4809F049F9C4F8880004F17E
S315178041F090001BF00CFB0AF0FDFA82460AF00AFBC8
S315178042005146024604F190001BF00CFB04F1900016
S31517804210FDF78EFC04F190001BF0C1FBA020FEF782
S31517804220D5F80123C4F88C30B20740F1F38000200B
S315178042300DAA87420CA90C904FF0000B0D90C8BFA2
S31517804240D8F800000AF0D8FBDFF880A204460120D0
S31517804250FEF7BCF820460AF0E9FBCAF854B0CAF84C
S3151780426050B004460AF0D2FB012844D1214699481A
S3151780427009F0CCFA2268984B9A4205D0974809F0EC
S31517804280B3FA4FF0FF3032E00220DAF888B0FEF743
S315178042909DF820460AF056FA28B9914809F0A4FAEB
S315178042A06FF0010023E00320FEF790F820460AF00E
S315178042B02BFBBBF1000F0FD08A4809F095FA2046E1
S315178042C00AF055FA28B9884809F0A0FA6FF0020063
S315178042D00DE0864809F088FA0420FEF777F8617FA3
S315178042E0022963D0824809F091FA6FF00300FEF72E
S315178042F06DF8002409E0079B5C467E48196809F02B
S3151780430085FA6FF06F00FEF761F8DAF85430DFF848
S31517804310BCB10BB978482EE020460AF077FB012806
S3151780432019D1A37F04F140028BF85D30E37F8BF8B8
S315178043305C30237F8BF85E30E3681BBA1344CBF867
S315178043404C3023691BBACBF85830637F032B8BF815
S315178043505F3002D103E069480DE0182B0ED1684A09
S315178043600DAB0321A2F160000AF082FC002810DA57
S3151780437002300ED0634809F037FAA1E0DBF84430F3
S315178043802BB1DBF818301BBACBF8603001E05E48EA
S31517804390F1E79AF85D204D4B0E2A04D11A6D196EE6
S315178043A09A650A441A66CAF8484033E00520FEF72C
S315178043B00DF8A37F022B20D104F14003CAF85030A1
S315178043C0E3681BBACAF8543007E0042B18D14F4B51
S315178043D0002120461A1F0AF0E4F9DFF83CB1402283
S315178043E0214658461CF095FA062001234BF8044CB3
S315178043F0CAF84430FDF7EAFF87E7E6D8012B00E0D5
S315178044000E2BD9D0079B4248196809F0FFF96FF030
S3151780441004006CE772071CD52C4A92F85D100E299A
S3151780442000F2138144F21403CB4003F0010383F0A7
S315178044300101002B00F0098192F85E30052B41D1DE
S31517804440424639460998FFF703FE002840F0268131
S31517804450074616F0080A61D1F00600F1B280B30656
S315178044600FD505F19004E96E20460AF03FFC05F159
S31517804470700205F16C0120460AF062FC002840F0B4
S315178044800D8195F85E0000F06FFA0446002840F01B
S31517804490AF8016F4F86F00F0AB80BAF1000F01D039
S315178044A0FDF79CFC95F85E000AF006FA95F85E20F3
S315178044B00146184809F0AAF96FF00700FDF786FF3D
S315178044C00120EBE00E2B40F0C280B9E7B89883172E
S315178044D0808382178783821727051956F07F82175D
S315178044E0058082171A80821738808217468082172E
S315178044F0B9838217F98382171C8482173C848217A3
S31517804500189983175F848217898482170C99831762
S31517804510D883821746858217BC988317FFF742FE82
S31517804520AB6CD5F858B00DAA0A93EB6C59460B931A
S315178045302B6D069395F85C30089395F85D30049249
S315178045404FF4000203926A6DCDF800B00292069A74
S31517804550019282460898FFF7B1FD044630B16FF095
S315178045600500FDF733FFA31C54D175E70D995846FF
S31517804570CBEB01018900FCF71BF80720FDF726FF17
S31517804580089B0D9A13B9069B5B4562D00B9B5B45BF
S315178045905FD90A9B93425CD26B6C43B195F82230F4
S315178045A0042B7FF459AF3F4809F01EF954E73E486C
S315178045B04FF0FF3409F018F96FF07300FDF706FF17
S315178045C028E0696E05F17803AA6E05F190000093CD
S315178045D005F17403521A0AF0E7FA00285ED1696F5B
S315178045E0324808F093FDA96F314808F08FFD36E7FA
S315178045F0710635D432063BD4F30542D416F480605F
S315178046000CD000942B464FF480624146384600F012
S315178046108EF90446BAF1000F06D003E0BAF1000FFF
S315178046203CD00446FDF7DAFBE01C04D16FF0060098
S31517804630FDF7CCFE07E0611C05D143463A4609993A
S315178046400798FDF7ADFC204628E0002701E70F46BF
S31517804650FFE6A96D05F19000521A1BF02BF9FBE6C0
S315178046602B46424639464020A047834690B9C1E734
S315178046702B46424639468020A04783460028BBD022
S3151780468008E02B46424639464FF48070A04783464A
S315178046900028B3D0074809F0A7F858460EB0BDE8EA
S315178046A0F08D00BFAD848217E78482172E85821717
S315178046B03B858217748582172DE9F041161F0025D1
S315178046C004460F469846BD420FDA002DC4BF84F8BC
S315178046D00080013456F8041F013520461CF014F863
S315178046E030681CF071F80444EDE7BDE8F0810000EE
S315178046F0B0F5806F10B50CD11C6E0748214609F0AE
S3151780470085F80F20FDF762FED9F80000A047012033
S3151780471010BD002010BD00BF8E858217B0F5806F43
S31517804720F8B50C4617461D4623D1134808F010FED8
S31517804730A0B1102200211CF03DFD002C064605DD98
S315178047400A233A462146FFF7B7FF07E00B4808F0DA
S31517804750FFFD014610B130461BF0D6FF2C6E084878
S31517804760214609F053F80F20FDF730FEA0470120A8
S31517804770F8BD0020F8BD00BFC7858217B2778217AC
S31517804780D085821770B50D460A4816461C4608F01E
S31517804790DFFD40B108491BF0EFFF20B9616D07486F
S315178047A008F0B4FC03E0236E31462846984700206C
S315178047B070BD00BF618082170A8682170D868217A1
S315178047C0B0F5806F2DE9F745884692461F463FD14B
S315178047D093F82230042B01D0002609E03E6801ABFE
S315178047E06A460121304609F0DCFF019B002BF3D086
S315178047F0B8F1000F15DD002425465AF82500013536
S315178048001BF0E2FFA84500F101000444F5D12046CC
S3151780481009F004FB2023524641460446FFF74CFF16
S3151780482006E00D4808F094FD0C4C002818BF044686
S315178048303D6E0B48294608F0E9FF0F20FDF7C6FDA8
S315178048402346064A3146D9F80000A847012000E0DA
S31517804850002003B0BDE8F085B2778217161B831741
S31517804860168682177FB50446036F00F16C06C16EF4
S3151780487000F19005039371B328460AF037FA31464B
S3151780488003AA28460AF05CFA0146002834D11B4A47
S31517804890E06E1AF068FD031E01DA023313D1184849
S315178048A008F056FD0646B0B1E56E1BF08DFF012365
S315178048B0134A01931349184433460090284601F04A
S315178048C0BDFD002807DA1AF0EFFD0F4902460F489B
S315178048D008F09CFF10E02046FDF7F2F90F20FDF750
S315178048E075FDE26E216E0A4808F090FF2046FDF7A7
S315178048F0FFF9084808F078FF04B070BD6086821704
S31517804900B27782175F8682175465821767868217F2
S315178049107A868217B6868217B0F5806F08B504D166
S315178049201846FFF79FFF012008BD002008BDF8B580
S3151780493006460F4614461D46FCF784FC2B46314621
S315178049403A462046069EB04795F85D30012B09D02A
S31517804950B4F5007F06D06FF00800FDF737FD4FF0EE
S31517804960FF30F8BD0020F8BD014B53F82000704783
S315178049704846821737B5074D074C8DE80C000B460E
S31517804980641B064902462846A41061430BF064F857
S3151780499003B030BD6C8C8317A0948317B76DDBB6C5
S315178049A008B50649064808F031FF064808F01CFF87
S315178049B0054808F019FF002008BD00BFC01D8317E2
S315178049C0658782176A8782179B8782172DE9F04139
S315178049D08846054638B32C2128461BF0E9FE06463D
S315178049E090B928461BF0F0FE0446002841D00130C6
S315178049F009F014FA074618B96FF00B00BDE8F08175
S31517804A0029461BF081FE11E0441B37D0601C09F044
S31517804A1005FA07460028EFD0224629461BF07CFE6A
S31517804A2000233B5502E00120BDE8F0813A21384644
S31517804A301BF0BEFE044628B10023601C23701BF0B2
S31517804A4049FE044638461BF045FE05461BF0BCFE5C
S31517804A5030B121462846C047044608B1384608E093
S31517804A603846751C09F024F9002EB4D13046BDE8B6
S31517804A70F08109F01DF92046BDE8F0812046751CA6
S31517804A8009F016F9A7E700002DE9F84507460D4600
S31517804A901646002A3FD0002841D00B7843B1002410
S31517804AA029461BF05DFF034618B101301C46F7E710
S31517804AB03C466CB328461BF087FE234613F8012D18
S31517804AC0202AFBD00138204410F8013F202BFBD039
S31517804AD0BC4201D02C2A04D13A2B23D02C2B21D09F
S31517804AE003B32B78002BE3D04FF0000A38462946BC
S31517804AF01BF036FF804648B128461BF065FE4044BA
S31517804B00844203D308F10100C246F0E75446D0E742
S31517804B100220BDE8F8854FF0FF30BDE8F885012003
S31517804B20BDE8F88528461BF04FFE204410F8013B58
S31517804B30202BFBD03A2B17D104462378621C202BC7
S31517804B4001D11446F9E70B4920461BF072FE20B9AE
S31517804B5020461BF039FE054600E0051B2A462146EE
S31517804B6030461BF099FE00E0002500207055BDE801
S31517804B70F88500BF747282170023836018467047C2
S31517804B802DE9F84580460B4E0B4CA41BE41068B1F3
S31517804B900025B24606E05AF8351040461BF0ECFD64
S31517804BA028B10135A54206EBC507F4DB0027384641
S31517804BB0BDE8F885309583176095831738B50D4608
S31517804BC0074C084908481BF0C1FB21460748FFF7E1
S31517804BD0FDFE21462846FFF7F9FE002038BD00BFA7
S31517804BE0F14B8017794B801758388317E4878217CC
S31517804BF010B58AB0114A002307930C460393009386
S31517804C000AAB029205AA0690019213E90F001BF0D0
S31517804C1003F8059B73B10CB9002209E020461BF0F7
S31517804C20D3FD0028F8D02046FFF7AAFF10B14268B7
S31517804C30059B9A6000200AB010BD00BF58388317AD
S31517804C402DE9F0410024DFF86C80C0B00668054670
S31517804C50FC22214601A800941BF0FBFDD8F80030F2
S31517804C60114F2BB1114808F073FBC8F80040386014
S31517804C70386830B96A4631460D48FFF705FF80B95F
S31517804C8005E06A463146FFF7FFFE0028F2D16846EF
S31517804C901BF09AFD28B16846FFF772FF08B1436883
S31517804CA0AB6040B0BDE8F081E899831769888217B1
S31517804CB0E48782170027831730B538B10C78302CE4
S31517804CC004D14C7804F0DF04582C12D00A4C0B44CC
S31517804CD0994205D00D78655D20B115F0440F04D142
S31517804CE02AB930BD15F0040FF9E70131F0E71160E5
S31517804CF030BD0231EAE700BFDA6582170023C36049
S31517804D001846704738B50D46074C084908481BF0B2
S31517804D101DFB21460748FFF759FE21462846FFF710
S31517804D2055FE002038BD00BFA14D8017FD4C80175A
S31517804D30583883177488821770B505461BF044FD5B
S31517804D4068B1074E297830461BF032FD044608B104
S31517804D50801B70BD2978034808F058FD204670BD22
S31517804D608C7282178088821770B505461BF02CFDCA
S31517804D7001280ED9084E697830461BF019FD04466E
S31517804D8008B1801B70BD6978044808F03FFD20463E
S31517804D9070BD002070BD00BF87728217B4888217D6
S31517804DA070B58AB0154A002307930C460393009370
S31517804DB00AAB029205AA0690019213E90F001AF020
S31517804DC02BFF059BBBB11CB9059B0022DA6012E04D
S31517804DD020461BF0F9FC0028F6D02046059EFFF7E3
S31517804DE0ABFF00F007052046FFF7BEFF044B53F8CD
S31517804DF020301D43F56000200AB070BD58388317E0
S31517804E000C4C82171D4B2DE9F34100241B78054660
S31517804E10DFF87C8006688DF80430D8F800308DF876
S31517804E2005408DF80640164F2BB1164808F090FAB4
S31517804E30C8F800403860386830B901AA3146124838
S31517804E40FFF722FEB8B905E001AA3146FFF71CFE27
S31517804E500028F2D101A81BF0B7FC60B101A8FFF7B3
S31517804E606BFF00F0070401A8FFF77EFF074B53F887
S31517804E7020301C43EC6002B0BDE8F081C263821714
S31517804E80EC998317F1888217748882170C4C8217CE
S31517804E90042783172DE9FF4D06460C4601931746BF
S31517804EA012B1D0F804B000E09346744B3568002CE5
S31517804EB008BF1C46012F00F0A380F36803F0070391
S31517804EC00093013B052B00F29B80DFE803F0030E6E
S31517804ED02B44608A4FF0FF3303AA21460020FFF741
S31517804EE0EBFE039B93F800802DE04FF0FF3303AA68
S31517804EF021460120FFF7E0FE039B1A78002A70D11E
S31517804F00A21C93427CD12378302B79D194F80180D7
S31517804F1008F0DF08B8F1580F4FF0FF3818BF4FF079
S31517804F20000861E0237803F0DF02592A09D0542A52
S31517804F3007D0A3F13002012A03D903F0D703462BF2
S31517804F404FD194F8018018F1000818BF4FF0010867
S31517804F50C8F1000848E04FF00008A246032303AAC9
S31517804F6051460020FFF7A8FE039B534539D0B8F169
S31517804F70030F1A7802D02E2A01D032E08ABB08F1A5
S31517804F80010803F1010AB8F1040FE7D138E04FF0B1
S31517804F90000AA046022303AA41460120FFF78CFE8A
S31517804FA0039B43451DD008F10202934209D198F815
S31517804FB00020302A05D198F8012002F0DF02582AFE
S31517804FC00FD0BAF1050F1A7802D03A2A01D008E025
S31517804FD03AB90AF1010A03F10108BAF1060FD9D1D4
S31517804FE00EE04FF0FF3802E0B8F1FF3F08D1009A84
S31517804FF02946234B23489B5C224608F007FC38E05A
S31517805000019B13F0020802D04FF0000831E0012F00
S3151780501003D025D3022F09D02BE0F3681807F3D5D1
S315178050202946194808F0F2FBB84622E0F368990634
S3151780503013D45A06E8D52846104C08F034FA594640
S31517805040002818BF04461148224608F0DFFB214680
S3151780505058461BF091FB0028D6D029460C4804E009
S31517805060F368DB06D0D50B48294608F0CFFB4FF0FF
S315178050700108404604B0BDE8F08D00BF161B8317A4
S315178050808C728217F88882173889821775898217E2
S31517805090558982178D89821708B508B9054803E09F
S315178050A013F0C4F920B1044808F09EFB4FF0FF3087
S315178050B008BD00BFAA898217BD8982174FF4C023FE
S315178050C0002013607047002070470000034A0020B5
S315178050D0C9F824200122C9F828207047E466821768
S315178050E02DE9F045ADF5005D8BB0FFF7ECFF054672
S315178050F012F0F4F90746FFF7CFFFC0BB0DF127066D
S3151780510026F01F06304608F081FA014668BB01AAC9
S315178051103846FFF7D3FF044648BB2A4619491A482B
S3151780512008F074FBFD6E0198C5F1000828442946DE
S31517805130013800EA08001EF070EF2946824605F509
S31517805140FF501F3000EA08001EF066EFD7F830715F
S315178051500546FFF7B8FF33462A465146B847854274
S3151780516007D00A4808F040FB01E0044604E0012412
S3151780517002E0074808F038FB20460DF5005D0BB0B6
S31517805180BDE8F085161B8317CE8982178D02831784
S31517805190AD1983172DE9F04DADF5005D8AB0FFF790
S315178051A092FF12F09BF90646FFF776FF014678BB0A
S315178051B001AA3046FFF782FF50BB019CFFF783FF9A
S315178051C0D6F868A00DF1270525F01F05CAF1000B43
S315178051D0514680460AF5FF501F3000EA0B001EF035
S315178051E01CEF5146074604EB0A00013800EA0B000C
S315178051F01EF012EFD6F82C412B463A46014640460A
S31517805200A047874204D10121284608F0B5F902E064
S31517805210002008F05DF90DF5005D0AB0BDE8F08D48
S3151780522038B504461A4808F029F90546204609F084
S31517805230EDFB012823D12268164B9A4201D01648D6
S315178052401EE0204609F07EFA08B9144818E02DB1F9
S31517805250204609F08CFA08B9114811E0A37F062B6E
S3151780526001D010480CE0216C04F1400009BA09B945
S315178052700D4805E050F8042B002AFBD104E00B48B3
S3151780528008F0B2FA012038BDBDE8384009F0B3BF3F
S315178052908083821727051956E7898217F989821716
S315178052A0098A8217178A8217278A8217358A821759
S315178052B0012A10B506DD1022002158681BF07AFFE7
S315178052C0044601E04FF090542146044808F09EFAB0
S315178052D020460021BDE81040FFF7A2BF5E8A8217DD
S315178052E00A460146014808F091BA00BF9A8A821782
S315178052F030B585B0D9F800403448216CFFF7F0FFF8
S31517805300616C3348FFF7ECFF00213248FFF7E8FF5F
S31517805310A16C3148FFF7E4FFE16C30480024FFF7B2
S31517805320DFFF20461CF00AFE0546E0B102462146FD
S315178053302B4808F06BFA2CB122462A4901A81CF093
S3151780534034F803E0284901A81BF0DEF901A80134D7
S3151780535007F0FEFF254A01A9002818BF02462448F0
S3151780536008F054FADDE71DF023F80146214808F0C6
S315178053704DFA214807F0ECFF0146204808F046FA17
S315178053801F48D9F8081008F041FA1E48D9F8F010C6
S31517805390FFF7A6FF1C48D9F83010FFF7A1FF1B4867
S315178053A0D9F84410FFF79CFF1948D9F83C10FFF736
S315178053B097FF1848D9F84010FFF792FF1648D9F883
S315178053C01C10FFF78DFF284605B030BDB48A8217AB
S315178053D0C08A8217CC8A8217D68A8217DF8A821763
S315178053E0E78A8217FA8A8217BC9B8217AA8A82173C
S315178053F0048B82170F8B8217218B8217288B821724
S315178054003A8B8217508B8217598B8217638B821729
S315178054106D8B8217748B82177E8B82172DE9F041DD
S3151780542005460E46571E0A490222586803F1040894
S315178054300AF0B4FA40B1C46843463A46314628461C
S31517805440A446BDE8F04160474FF0FF30BDE8F081D4
S315178054505C2783172DE9F7458246184890464FF4FF
S315178054608017019708F0DAFC054618B9144808F032
S31517805470BBF90DE0461C01AB26F003065246B41C59
S31517805480394620461AF0EEF820B1284608F010FC67
S3151780549000200FE0019BB3F5801F02D1094808F061
S315178054A0A3F9B378422BF0D163784D2BEDD12046F3
S315178054B0C8F8005003B0BDE8F08500BF03001000A0
S315178054C0AA8B8217CB8B8217012A13B507D0022A8C
S315178054D04ED11022002158681BF06CFE01E0264B36
S315178054E018680023009303780446422B02D1437829
S315178054F04D2B0AD06A4601A9FFF7ACFF044620B99F
S315178055001E4808F083F9012034E0E27DA37DE17C13
