S00E0000752D626F6F742E73726563C0
S31517800000BE0000EA14F09FE514F09FE514F09FE513
S3151780001014F09FE514F09FE514F09FE514F09FE523
S3151780002060008017C0008017200180178001801715
S31517800030E001801740028017A0028017EFBEADDE61
S31517800040DEC0AD0B00F020E300F020E300F020E3E4
S3151780005000F020E300F020E300F020E300F020E337
S3151780006028D01FE500E08DE500E04FE104E08DE53F
S3151780007013D0A0E30DF069E10FE0A0E10EF0B0E137
S3151780008048D04DE2FF1F8DE850201FE50C0092E8FF
S3151780009048008DE234508DE20E10A0E10F0085E8FE
S315178000A00D00A0E1A90700FA00F020E300F020E395
S315178000B000F020E300F020E300F020E300F020E3D7
S315178000C088D01FE500E08DE500E04FE104E08DE57F
S315178000D013D0A0E30DF069E10FE0A0E10EF0B0E1D7
S315178000E048D04DE2FF1F8DE8B0201FE50C0092E83F
S315178000F048008DE234508DE20E10A0E10F0085E89E
S315178001000D00A0E1970700FA00F020E300F020E346
S3151780011000F020E300F020E300F020E300F020E376
S31517800120E8D01FE500E08DE500E04FE104E08DE5BE
S3151780013013D0A0E30DF069E10FE0A0E10EF0B0E176
S3151780014048D04DE2FF1F8DE810211FE50C0092E87D
S3151780015048008DE234508DE20E10A0E10F0085E83D
S315178001600D00A0E1850700FA00F020E300F020E3F8
S3151780017000F020E300F020E300F020E300F020E316
S3151780018048D11FE500E08DE500E04FE104E08DE5FD
S3151780019013D0A0E30DF069E10FE0A0E10EF0B0E116
S315178001A048D04DE2FF1F8DE870211FE50C0092E8BD
S315178001B048008DE234508DE20E10A0E10F0085E8DD
S315178001C00D00A0E1730700FA00F020E300F020E3AA
S315178001D000F020E300F020E300F020E300F020E3B6
S315178001E0A8D11FE500E08DE500E04FE104E08DE53D
S315178001F013D0A0E30DF069E10FE0A0E10EF0B0E1B6
S3151780020048D04DE2FF1F8DE8D0211FE50C0092E8FC
S3151780021048008DE234508DE20E10A0E10F0085E87C
S315178002200D00A0E1610700FA00F020E300F020E35B
S3151780023000F020E300F020E300F020E300F020E355
S3151780024008D21FE500E08DE500E04FE104E08DE57B
S3151780025013D0A0E30DF069E10FE0A0E10EF0B0E155
S3151780026048D04DE2FF1F8DE830221FE50C0092E83B
S3151780027048008DE234508DE20E10A0E10F0085E81C
S315178002800D00A0E1550700FA00F020E300F020E307
S3151780029000F020E300F020E300F020E300F020E3F5
S315178002A068D21FE500E08DE500E04FE104E08DE5BB
S315178002B013D0A0E30DF069E10FE0A0E10EF0B0E1F5
S315178002C048D04DE2FF1F8DE890221FE50C0092E87B
S315178002D048008DE234508DE20E10A0E10F0085E8BC
S315178002E00D00A0E1370700FA00F020E300F020E3C5
S315178002F000F020E300F020E300F020E300F020E395
S31517800300120000EA00000FE11F1000E21A0031E325
S315178003101F00C01313008013C00080E300F029E18B
S31517800320100F11EE020AC0E3100F01EE84009FE54D
S31517800330100F0CEE060000EB1D0000EBA40500EB7A
S31517800340150F07EE9A0F07EE950F07EE1EFF2FE193
S31517800350EBFFFFEA0000A0E3170F08EE150F07EE75
S31517800360D50F07EE9A0F07EE950F07EE100F11EEC2
S31517800370020AC0E30700C0E3020080E3020B80E3B2
S31517800380010A80E3100F01EE300F1FEE400080E365
S31517800390300F0FEE0E50A0E1101F10EE213AA0E19C
S315178003A00F3003E20F4001E20322A0E1022084E12D
S315178003B005F0A0E1000000EA0000801710D09FE545
S315178003C007D0CDE30090A0E300502DE9420100FA53
S315178003D00090BDE800FF93002DE9F04530EE306FB1
S315178003E000210D464C00631826FA03F303F0070322
S315178003F0023B022B47D840EE104F30EE107FC7F3E3
S31517800400C90307F0070E03F1010A0EF1040EC7F3AD
S315178004104E374FF0FF3CD0465FEA58080CF1010281
S3151780042001D09446F8E713EA0A0F18BF0CF10202B7
S315178004300128C2F1200211D103FA02FABC464AEA10
S31517800440040A0CFA0EF848EA0A0807EE568F1CF1CA
S31517800450FF3CF6D213F1FF33EED212E0022812D107
S3151780046003FA02FABC464AEA040A0CFA0EF848EA74
S315178004700A0807EE5E8F1CF1FF3CF6D213F1FF33A5
S31517800480EED207EE9A5F01310729ABD1BDE8F08529
S31517800490002307EE153F07EED53F07EE9A3F07EE87
S315178004A0953F704770470000174A10B5136823F0B9
S315178004B00103136008324FF499731360536002F681
S315178004C058621168114841F0E04343F00F03006802
S315178004D000F47074C02C09D100F03F0007289EBF26
S315178004E021F0804343F0405343F00F031360084ACB
S315178004F0136843F003031360A2F56862136843F029
S315178005000103136010BD00BF0021A0000020A000CA
S31517800510802FA00070470000024A136823F001035A
S31517800520136070470021A00008B50220FFF754FF1B
S31517800530BDE8084001F028BC08B50120FFF74CFF3D
S31517800540BDE8084001F01ABC08B5FFF7ADFFFFF705
S31517800550F3FF002308EE173F08EE163F08EE153F08
S3151780056007EE9A3F07EE953F08BD30EE103F012202
S3151780057003F0070304339A4053420340994203D941
S3151780058007EE3E3F1344F9E7002307EE9A3F01F043
S3151780059001BC08B5FFF7E9FF002308EE173F08EE01
S315178005A0163F08EE153F07EE9A3F07EE953F08BDB3
S315178005B00144FFF7DABF00002DE9F04106460F46E2
S315178005C030EE105F05F007052B1D01259D4005F1BF
S315178005D0FF3810EA080F09D00246741E11491248CF
S315178005E00DF018F863196C421C4000E0044617EAB0
S315178005F0080F07D03A460B490C480DF00BF86B429B
S315178006003B4000E03B469C4203D207EE364F2C44D4
S31517800610F9E7002307EE9A3F39463046BDE8F041A1
S3151780062001F0C8BBB76182171C6E82174F6E82178F
S31517800630704708B501F0FFFB01F060FDFFF728FF53
S3151780064001F094FDFFF768FFFFF776FFFFF7F0FFDE
S31517800650002008BD4FF42003586800F00300704748
S31517800660114AD2F88032C3F30740602813D0D2F8E4
S3151780067060324FF420025268C3F3074002F0030238
S31517800680612803D1002A08BF662004E0632802D1B7
S31517800690012A08BF6720C3F30722DBB2013203EBB7
S315178006A0021343EA0030704700800C0208B5FFF743
S315178006B0D7FFC0F30733662B04D1C0F30B0040F482
S315178006C0C22008BD672B04BFC0F30B0040F4C620B9
S315178006D008BD000009494FF077330B604B60084A15
S315178006E01360536000230B644B648B64CB640B6578
S315178006F0136453649364D3641365704700C0070209
S3151780070000C0170238B511EE103F23F0020301EE31
S31517800710103F3C4C2368D80305D523F4803300203B
S31517800720236015F0A3FDFFF7D5FF374A536823F4E7
S315178007304033536002F58042D2F850311906FBD503
S31517800740324B08220020C3F8542100F09DFA304B13
S3151780075098420DD12C4D00F017FA6B692D4A23F468
S31517800760E053A0FB02010A0D013A43EA82236B612B
S31517800770294A002313814FF003721381236843F4A8
S3151780078080232360FFF76CFFC0F30730632805D1FA
S31517800790FFF766FFC0B2202818D505E0FFF760FF80
S315178007A0C0F307306728F3D01C4A136843F0010358
S315178007B013601B4B1A6842F001021A601A68D20737
S315178007C0FCD4124B4FF47852C3F84821154A136854
S315178007D023F001031360FFF743FFC0F30730632845
S315178007E008D1FFF73DFFC0B2202809D40E4A0F4B18
S315178007F01A6005E0FFF734FFC0F307306728F0D09B
S31517800800002038BD04000E0200400C0200800C0246
S31517800810007B9A17239A080200C00B0260C20D024A
S3151780082000C00D0200800D02010200800806BB0081
S315178008300E4A08B5D2F84031D2F8701121F07C51A2
S31517800840C3F38440C2F87011C0F113000028B8BFF3
S31517800850404248B123F4F80343F49803C2F8403171
S3151780086000EB40001FF070FF002008BD00800C02CF
S3151780087008B5FFF761FE01F04AFC1E2206490020E3
S3151780088001F002FC1E224FF480214FF41000BDE8C0
S31517800890084001F0F9BB00BFFFFF0F00074BD3F8E5
S315178008A03026100A4A700870D3F820361A0E4B7104
S315178008B08A701A0CCA701A0A0A71704700C01B020E
S315178008C0054B18645A6C10B142F0805201E022F041
S315178008D080525A64704700BF00800D0208B5FFF733
S315178008E0BFFEC0F30730622837D0FFF7B9FEC0F3D3
S315178008F00730642831D0194B9A69C2F34153C2F332
S315178009008142022B09D0022A0ED0012B15D0012A3B
S3151780091013D0032B124B04D110E0012A1AD04FF0B3
S315178009208023032A06D109E0012B13D0032B11D07C
S315178009304FF0802343F4000300E0094B094A4FF038
S315178009408031C2F8F410C2F80431C2F8F810C2F830
S31517800950083108BD4FF08023F0E708BD00400C0230
S315178009608080008000800C027047000038B50C4DDF
S315178009702C78E4B244F0800340F6B8302B701FF021
S31517800980E3FE44F0C00340F6B8302B701FF0DCFE50
S3151780099044F0C8042C70034B00221A7038BD00BF70
S315178009A00030120005401200114A136F43F03303CB
S315178009B01367104B01211970536B23F4FF7323F0C0
S315178009C0010343F4A87353634FF4901393F80231DA
S315178009D0DBB29B070AD0084BFD221A70074A137899
S315178009E0DBB213701370137013701370704700BFD8
S315178009F000400C020540120002401200001012003F
S31517800A00054B10B51B685C6900F03AFCC4F30121ED
S31517800A10013123F0C4E910BDC817831708B50B4BEE
S31517800A201A6844F21003D358516A03F00303084A2D
S31517800A3001F03F015B00013114335343054AA3FB91
S31517800A400223980823F0AAE908BD00BFC8178317A1
S31517800A5000366E01ABAAAAAA012837B50CD0022890
S31517800A6029D1164B44F2F0021B689C5844F21002A7
S31517800A709A5802F003020BE003291CD00F4B1B6810
S31517800A8003F58242146844F230029A5802F0010242
S31517800A9052000B4B1432CD003F2102A8534312222A
S31517800AA0A9402140E940A3FB022360E902231FF0F6
S31517800AB077FC009800E0002003B030BDC817831775
S31517800AC000366E01144B10B51A68D369546A032819
S31517800AD019D8DFE800F002070C11C4F3C22403F417
S31517800AE080330DE0C4F3024403F4003308E0C4F303
S31517800AF0C24403F4802303E0C4F3825403F400232F
S31517800B0013B1002101E0002402210120FFF7A4FF81
S31517800B10611C23F044E910BDC8178317054B1A6863
S31517800B20136F10B143F4405301E023F44053136716
S31517800B30704700BFC8178317064B1A68D2F88030DC
S31517800B4010B143F0030301E023F00303C2F88030AA
S31517800B50704700BFC817831702290FD80323490088
S31517800B60063103FA01F1074B1A68136F08B1194357
S31517800B7001E023EA01011167002070476FF0150025
S31517800B80704700BFC81783171F4B10B51B68596965
S31517800B9011F0007414D09A69C1F3C261C2F301329D
S31517800BA022B1022A194888BF002029E044F2100290
S31517800BB09858164B00F003004000143058431FE036
S31517800BC09869C0F3814002280FD0032812D00128D4
S31517800BD009D044F2300298580C4B00F001004000BF
S31517800BE0143058430BE0022101E001202146FFF71C
S31517800BF033FF04E002210120FFF72EFF400821462C
S31517800C00013123F0CCE810BDC817831700366E0163
S31517800C100B4B10B51B685B695A06C3F3024408D59C
S31517800C201B0647BF0221012001210220FFF714FF6F
S31517800C3001E0FFF7A9FF611C23F0B0E810BD00BFE4
S31517800C40C8178317FFF7EABE024A136823F03003E3
S31517800C50136070477C400C020A4B1A69002A0FDB17
S31517800C604FF480525A618022C3F87821054A196950
S31517800C700029FBDA4FF4803393614FF400535361A5
S31517800C80704700BF00800C0210B5014610287CD82B
S31517800C90DFE800F00918771C20282C3D41616C6E1F
S31517800CA07375777B20003B4B1B68196903F5804367
S31517800CB0186801F00701384B013100F07F0058435F
S31517800CC0400850E0BDE81040FFF75EBFBDE8104012
S31517800CD0FFF796BE2F4B1B68DC69FFF791FE04F072
S31517800CE03F013FE0BDE81040FFF798BE294B44F21D
S31517800CF0100229481B68996B9B58C1F3C54103F0AD
S31517800D00030301315B00C900143358432BE0BDE858
S31517800D101040FFF77DBF1F4B1B68D969C1F3C254BB
S31517800D20C1F34171022911D003290ED0012902D0AE
S31517800D30FFF76EFF0DE044F2100217489B5803F039
S31517800D4003035B001433584303E000210120FFF7A8
S31517800D5083FE611C07E00F4B1B685C69FFF714FF66
S31517800D60C4F3C241013123F01AE810BD002000E018
S31517800D700120BDE81040FFF7A5BE0220F9E7032042
S31517800D80F7E7BDE8104000F07BBA04480CF042FC48
S31517800D90002010BDC817831700366E01DD6E8217C7
S31517800DA00320FFF771BF000070B5544E544D554C54
S31517800DB0336803F58043186800F07F00684340085E
S31517800DC0A0FB04015048890C0CF024FC326844F2CD
S31517800DD03003D05800F00100400014306843A0FB60
S31517800DE004014A48890C0CF015FC326844F210034A
S31517800DF0D05800F00300400014306843A0FB04016C
S31517800E004348890C0CF006FC326844F2E003D35849
S31517800E1003F00303581C00EB53003E4B5843A0FBCB
S31517800E2004013D483D4C890C0CF0F4FB3C480CF012
S31517800E30F1FB0320FFF728FFA0FB04013948890936
S31517800E400CF0E8FB0520FFF71FFFA0FB04013648CF
S31517800E5089090CF0DFFB0220FFF716FFA0FB0401C0
S31517800E60324889090CF0D6FB0720FFF70DFFA0FB48
S31517800E7004012F4889090CF0CDFB0920FFF704FFE1
S31517800E80A0FB04012B4889090CF0C4FB0A20FFF745
S31517800E90FBFEA0FB0401284889090CF0BBFB0B203D
S31517800EA0FFF7F2FEA0FB0401244889090CF0B2FB78
S31517800EB00C20FFF7E9FEA0FB0401214889090CF0F5
S31517800EC0A9FB0D20FFF7E0FEA0FB04011D48890949
S31517800ED00CF0A0FB0820FFF7D7FEA0FB04011A48E9
S31517800EE089090CF097FB0420FFF7CEFEA0FB0401BF
S31517800EF0164889090CF08EFB002070BDC81783171A
S31517800F0000366E0183DE1B43F66E82170A6F8217D1
S31517800F101E6F821740787D01326F8217D34D62100C
S31517800F20D7778217466F82175A6F82176E6F821717
S31517800F30826F8217966F8217AA6F8217BE6F821774
S31517800F40D26F8217E66F8217FA6F82170E70821723
S31517800F50024A536F43F003035367704700400C02EE
S31517800F60044A054B116853F8203000200B43136051
S31517800F70704700BF00800D023044821708B50146BE
S31517800F80064B1A68064B53F8203006481A4214BF88
S31517800F90012200220CF03EFB002008BD00800D02C6
S31517800FA020448217317082171346002110B51022FC
S31517800FB0044618681FF0C0FF022C06D0032C07D0F2
S31517800FC0012C10D1094B986204E0084B186301E095
S31517800FD0064B9863054A0020054B116853F8243051
S31517800FE00B43136010BD012010BD00BF00800D029A
S31517800FF02044821710B50446FFF72CFBA04234BF56
S315178010000020012010BD0000044A054B53F820101C
S315178010100020136823EA01031360704700800D02CE
S3151780102020448217F0B500F07F4401F00F0501F4D4
S31517801030F873220EC0F30B0404F103741E0942EAF7
S3151780104005222B0E04F50034114D26600D4052EA09
S3151780105003044FEA552507D002F1037201F0F047D2
S3151780106002F50032FB0E1360AB030FD4094A002337
S31517801070194010400B0B020B42EA015252EA030148
S315178010801EBF02F1037202F500321560F0BD00BF74
S3151780109000FEFF0700F0FF0070B504460E46FFF707
S315178010A0DFFAC0F30730632806D0FFF7D9FAC0F303
S315178010B00730672818BF08340025B54204F1100495
S315178010C005D054E904010135FFF7ACFFF5E770BD8C
S315178010D00E4B10B519689C690D48C1F30253C1F3BD
S315178010E002620C32C35C0B481A44C1F30143C1F345
S315178010F080711944C4F34013C35C13440B44202BEB
S315178011001ABF012098404FF0704010BD00001B0297
S315178011105464821752648217513821289ABF024B1A
S3151780112053F8200001487047784282173FAA8217E2
S31517801130F0B585B0FFF794FA3E4F0446FFF790FA5D
S3151780114004F47F2604F00F0504F0F004C0F307308B
S31517801150632815D1FFF784FAC0B2202816D4300B2E
S31517801160FFF7DAFF06460020FFF78EFD2209013AC0
S31517801170A0FB070130488B0C314600932B4614E0B1
S31517801180FFF76EFAC0F307306728E3D0300BFFF707
S31517801190C3FF06460020FFF777FD2209A0FB07014C
S315178011A026488B0C314600932B460CF033FA02AA4D
S315178011B000210E2010F08AFA58B903A9029815F063
S315178011C061F820B903991E480CF024FA04E01D48EB
S315178011D000E01D480CF01EFA1C4A93689360102B8A
S315178011E01B4A136017D005D8042B10D0082B10D0A4
S315178011F0012B03E0202B10D002D8112B11D112E02E
S31517801200402B0CD0B3F5803F0BD112490CE0124915
S315178012100AE0124908E0124906E0124904E0124929
S3151780122002E0124900E0124912480CF0F3F9002047
S3151780123005B0F0BD83DE1B4382708217AF708217AD
S31517801240DB708217F47082171D71821700800D026A
S31517801250CC1783176A708217447082174870821763
S315178012605170821756708217627082177470821740
S31517801270407082174B71821717F0B6BD15F0C0BE36
S31517801280054B10B55C69FFF77FFCC4F382210131EA
S3151780129022F084ED10BD00BF00400C0208B508F09F
S315178012A025FCFFF7D1FCBDE8084012F037BC10B516
S315178012B00A204C46FFF7E8FCC4F8D000002010BD82
S315178012C0F7B5044690F8280015F0E0F8207C15F05D
S315178012D0DDF8D4E90801FFF7A5FED4E90201FFF787
S315178012E0A1FE94F8280015F0B5F80546207C15F070
S315178012F0B1F805EA00020346012A01D1002574E0F8
S31517801300227C3F493F48019294F8282000922A462A
S315178013100CF080F90121207C092515F0CDF84FF4C2
S315178013207A701FF011FA0121207C15F0C5F832204A
S315178013301FF00AFA0021207C15F0BEF832201FF024
S3151780134003FA013DEFD1012194F8280015F0B4F87E
S3151780135032201FF0F9F90121207C15F0ADF83220E3
S315178013601FF0F2F92946207C15F0A6F832201FF0D7
S31517801370EBF9294694F8280015F09EF832201FF0CD
S31517801380E3F90121207C15F097F832201FF0DCF95C
S31517801390012194F8280015F08FF832201FF0D4F920
S315178013A094F8280015F072F8207C15F06FF8284607
S315178013B000F0CEF9074694F8280015F04BF8054645
S315178013C0207C15F047F805EA00030646012B95D0D1
S315178013D0384600F0BDF9C828EDD92A46334608495C
S315178013E06FF00F0508480CF015F9D4E90601FFF7D9
S315178013F019FED4E90001FFF715FE284603B0F0BDA4
S315178014000162821798718217C371821702282DE994
S31517801410F041064686B00F4690461D4633D802469B
S315178014201B4903A81FF083FE03A995F8280015F01A
S3151780143025F850BB3246174903A81FF078FE03A933
S31517801440287C15F01BF80446B8B931460120FFF7FA
S3151780145083FB044670B92846FFF732FF044648B91E
S315178014600D484246009539460C4B50F8260015F024
S3151780147011FB06E0287C15F007F895F8280015F07B
S3151780148003F8204601E06FF0150006B0BDE8F0813D
S31517801490EB718217F7718217384A8217C112801734
S315178014A02DE9F0412E480BF057FE2E4F054620B1F9
S315178014B000244C26DFF8B08023E02B4E0446B04636
S315178014C03B689C420AD2F36883B13046984768B125
S315178014D07569264829460CF09DF8ADB9D8F8145089
S315178014E00024234829460CF095F80DE001344C3634
S315178014F0E6E706FB0483284659691EF0FBFF18B1F9
S3151780150001343B689C42F4D33B689C4220D24C20E2
S31517801510154D002160432E18B2683046143012F0EC
S3151780152047FD024668B933690BB1304698474C2355
S31517801530104803FB0454236AE26961690CF06AF860
S3151780154003E071690C480CF065F80020BDE8F0815E
S3151780155029460A480CF05EF86FF01500BDE8F08151
S315178015600372821788188317704882170972821731
S31517801570217282174372821758728217797282176D
S31517801580024B1878C0B200F0F20070470430120090
S31517801590374B4FF4004210B500211A606422013A86
S315178015A01960FCD1324B1B6823F4E074FFF758F8A7
S315178015B0C0F30730632806D1FFF752F8C0B2103848
S315178015C000281EDC05E0FFF74BF8C0F307306728C5
S315178015D0F2D0FFF745F8C0F30730612811D0FFF72F
S315178015E03FF8C0F3073066280BD0FFF739F8C0F3FA
S315178015F00730622805D0FFF733F8C0F30730642821
S315178016002BD1FFF72DF8C0F30730612805D0FFF7E8
S3151780161027F8C0F30730662808D1154A44F4A8631B
S315178016204FF4E04143F00103516018E0FFF718F8D3
S31517801630C0F307306228F0D0FFF712F8C0F30730EF
S315178016407228EAD0FFF70CF8C0F307306428E4D085
S3151780165044F4A07343F0010301E044F04103044AC4
S3151780166000201360526AC9F8DC20C9F8D80010BD6B
S31517801670008009020B4B596AD9F8DC2091423EBF8C
S31517801680D9F8D8200132C9F8D8200022C9F8DC1039
S31517801690D9F8D810D9F8DC000B4642EA0002104672
S315178016A01946704700800902D3B5FFF7E3FFCDE9E6
S315178016B00001FEF7D5FFC0F30730632806D1FEF782
S315178016C0CFFFC0B2103800283BDC05E0FEF7C8FF15
S315178016D0C0F307306728F2D0FEF7C2FFC0F3073092
S315178016E061282ED0FEF7BCFFC0F30730662828D0B6
S315178016F0FEF7B6FFC0F30730622822D0FEF7B0FF99
S31517801700C0F3073064281CD00420FFF7BDFA0146C2
S31517801710009A4FF47A70019C0027A2FB002300FBE6
S315178017200434264656EA07002346CDE9002304D11A
S31517801730104622F034EB009005E068461EF030FE26
S3151780174001E00249E4E7009802B0D0BDC0C62D007B
S3151780175010B50446FFF7A8FF001B10BD73B500230D
S3151780176000900193FEF77CFFC0F30730632806D1FC
S31517801770FEF776FFC0B2103800284BDC05E0FEF77F
S315178017806FFFC0F307306728F2D0FEF769FFC0F303
S31517801790073061283ED0FEF763FFC0F3073066280F
S315178017A038D0FEF75DFFC0F30730622832D0FEF7D8
S315178017B057FFC0F3073064282CD00420FFF764FA4C
S315178017C0009A0026019B3146A2FB0045134A12193F
S315178017D000FB03554FF000036B41CDE900231846F4
S315178017E0014306D10E4BA2FB03239B0C8DE84800C1
S315178017F003E00C4968461EF0D3FD009EFFF73AFFBB
S31517801800841941F10005FFF735FFA94208BFA042A9
S31517801810F9D301E00448D3E702B070BD3F420F0009
S3151780182083DE1B4340420F00C0C62D0008B5FEF766
S3151780183017FFC0F30730632806D1FEF711FFC0B232
S315178018401038002823DC05E0FEF70AFFC0F30730BF
S315178018506728F2D0FEF704FFC0F30730612816D049
S31517801860FEF7FEFEC0F30730662810D0FEF7F8FEA7
S31517801870C0F3073062280AD0FEF7F2FEC0F30730AE
S31517801880642804D00420BDE80840FFF7FDB9014855
S3151780189008BD00BFC0C62D002DE9F04D00274FF0BB
S315178018A07C0B0446B846144B53F82850ADB108350F
S315178018B055F8080C88B11EF049FE064600F1010A54
S315178018C04CB1024626442046544455F8081C1EF04F
S315178018D0A5FE86F800B05744E9E708F10108B8F184
S315178018E0020FE0D124B10B220449601E1EF096FE2A
S315178018F007F10A00BDE8F08DAC8F83178F728217B8
S31517801900012A2DE9F04D1746984602DC4FF0FF3530
S315178019102EE0D3F804A00026DFF860B05BF82640E7
S315178019204CB90136022EF1D0F8E751461EF0E2FD8A
S31517801930054620B1083420680028F6D1F1E7032F31
S3151780194014D10D49D8F808001EF0D4FD0028DDD132
S315178019502E466068FEF7B4FF56B1636843B100231D
S315178019601A461946184600F047FB01E00126F0E7AC
S315178019702846BDE8F08D00BF9A728217AC8F831701
S3151780198038B505460A4C206918B10CF095F800232E
S315178019902361084B0020084A1D605A60FFF77CFFB9
S315178019A00CF040F9054610B1FFF776FF256138BD73
S315178019B008868317AC8F83170C4F8217044B1B78B7
S315178019C0DBB213F0F20F0CBF01200020704700BF67
S315178019D00430120090D09FE507D0CDE30D20A0E10B
S315178019E0F8D04DE207D0CDE30D90A0E10D10A0E120
S315178019F00000A0E3020051E1000081350410813216
S31517801A00FBFFFF3A01DB4DE2C0D089E59C0800FA5F
S31517801A1040D099E507D0CDE3009099E5F89049E253
S31517801A200CE08FE2440099E500E08EE0300099E5FE
S31517801A30140000EA100000EB40FAFFEB2C009FE53C
S31517801A402C109FE50020A0E3010050E1002080358F
S31517801A5004008032FBFFFF3A5D0800FB5D0800FA41
S31517801A600900A0E1301099E508F09FE500FF930083
S31517801A70AC8F83172C1B8817BD3D8017300099E5CF
S31517801A80100F0CEE1EFF2FE14C109FE5014050E022
S31517801A901000000A44209FE5000CB1E8000CA0E86E
S31517801AA0020051E1FBFFFF3A34209FE534309FE572
S31517801AB00300B2E8FF1001E2170051E30300001A92
S31517801AC0040080E0001090E5041081E0001080E5A6
S31517801AD0030052E1F5FFFF3A1EFF2FE10000801742
S31517801AE0AC8F8317AC8F8317E40884171FB5002331
S31517801AF0D9F800200393916CD26C8DE80A000123E4
S31517801B000292694602AA04F0CBFC05B05DF804FB85
S31517801B10D9F8003073B505461B6C01F40074066E50
S31517801B20144801930BF018FB38B1102101AA1FF046
S31517801B303BFA019910480BF06DFD0F2000F066FCFB
S31517801B400E4B0F490F48002C08BF19460BF062FD44
S31517801B50A12000F05BFCFEF76CFD2B6F0BB1EA6ED4
S31517801B6002E0D9F800305A6C14B901992046B0476B
S31517801B7002B070BDDB728217E2728217CA1483179E
S31517801B80C472821707738217D9F80020D9F80030E4
S31517801B906946926CA1F58051DB6C1A44521A1DF076
S31517801BA047BD7047F8B5064634480BF0D5FA336FFC
S31517801BB04BB130460CF063FF00285ED030480BF0EF
S31517801BC029FD1EF02DFCD9F800102E4C4D6C0521E1
S31517801BD085E812002C4CAB60EB602B6105F1140382
S31517801BE02360D9F80030B8B1074610F8013B202B8F
S31517801BF0FAD08BB1254B3846AB611EF0A7FC394618
S31517801C000D3080086861206808301EF03BFC236819
S31517801C101A6803EB82032360FEF748FD23681C4A84
S31517801C20032183E806001B4998604D46D9F80020A2
S31517801C3004201961D860916C9961D26C5A6103F14D
S31517801C401C02716E226079B1B26E6AB12D68521A12
S31517801C50114D2C3343F8042C0B4A43F80C5C43F88C
S31517801C60100C43F8081C13600748FFF79AFF0022E9
S31517801C704B461B6823685A601A60F8BD2073821713
S31517801C802973821701004154B48F83170900415471
S31517801C90070041540200415405004254F8B510F02C
S31517801CA0C00504461E4617D110F4807703D0184610
S31517801CB0FFF778FF12E010F4C06505D00146184685
S31517801CC0FFF726FF3D4609E01846FFF76BFF2146CB
S31517801CD03046FFF71DFF01E04FF0FF352846F8BD68
S31517801CE010B50A4B446A9C4204D009480BF080FC15
S31517801CF0012010BD836A0B60C36A13600A680146A8
S31517801D0004480BF087FC002010BD00BF18286F0110
S31517801D10497382176673821710B50446C06E58B119
S31517801D2007491CF05BFF002806DAE06EFFF7DEFE38
S31517801D3010B104480BF05CFCBDE81040FEF779BC87
S31517801D409173821799738217036EC06E18470000B6
S31517801D50084B1B6813F4803F14BF4FF480334FF43E
S31517801D608073013B03600368002BFCD1024A136022
S31517801D70704700BF0421A0003027A0000148FFF755
S31517801D80E7BF00BF7C27A0000148FFF7E1BF00BF70
S31517801D90FC27A000054B20F01F00884202D218604E
S31517801DA02030FAE7024B00221A607047F027A0000E
S31517801DB03027A000C20638B504460D4607D002461E
S31517801DC00C490D481F340BF025FC24F01F04EB0635
S31517801DD006D02A460749094825F01F050BF01AFC35
S31517801DE0074BA54202D91C602034FAE7054B00221F
S31517801DF01A6038BDCD6182171C6E82174F6E821797
S31517801E007027A0003027A000D9F840200020C9F8F5
S31517801E103C20D9F84020103AC9F840207047000076
S31517801E20034A0020D9F83C3008331360704700BF47
S31517801E3040008017704700207047000008B501489A
S31517801E401FF082F9BB73821770B5A2B00446802241
S31517801E50334902A81EF0E2FBA26BE16B3148256C71
S31517801E600BF0D8FB05F07046D9F80420D2070AD5AF
S31517801E70D9F84410A06BD9F84420E36B821A2A4804
S31517801E80591A0BF0C7FBE36A226B616B27480BF075
S31517801E90C1FB236A626AA16A25480BF0BBFB2369DB
S31517801EA0244800936369A269E1690BF0B3FB236841
S31517801EB021480093E1686368A2680BF0ABFB002E9C
S31517801EC0B4BF4E216E2115F0804F14BF5A227A2245
S31517801ED015F0005F14BF4323632315F0805F14BF8B
S31517801EE056207620009015480BF094FB236C144AE5
S31517801EF022AC144813F0800F14BF1146014613F015
S31517801F00400F03F01F0308BF02460F4804EB8303F5
S31517801F100E4C009453F8803C0BF07CFB22B070BDBE
S31517801F20F8418217D4738217CE738217F673821786
S31517801F301A7482173E7482176E7482179E7482176C
S31517801F40A6868217CB0A8317AE748217CA1483178D
S31517801F5008B5044603480BF05DFB2046FFF774FF70
S31517801F60FFF76CFFCD74821708B5044603480BF04C
S31517801F7051FB2046FFF768FFFFF760FFE47482176F
S31517801F8008B5044603480BF045FB2046FFF75CFF70
S31517801F90FFF754FFF874821708B5044603480BF009
S31517801FA039FB2046FFF750FFFFF748FF0875821762
S31517801FB008B5044603480BF02DFB2046FFF744FF70
S31517801FC0FFF73CFF1475821708B5044603480BF0D4
S31517801FD021FB2046FFF738FFFFF730FF1E75821764
S31517801FE008B5044603480BF015FB2046FFF72CFF70
S31517801FF0FFF724FF2375821708B508480BF0F8FA00
S315178020004CF250301EF0A0FBFFF715FFFEF7ACFC25
S31517802010002014F02BF9002008BD00BF2176821707
S3151780202082B000230193019B632B03DC0046019B3F
S315178020300133F7E702B0704738B511EE102F054612
S31517802040FFF7EEFF042802D1530712D5052511EEA7
S31517802050104FFFF7E5FF052D07D1FEF765FA24F038
S31517802060040301EE103FFEF75FFA24EA050401EE3A
S31517802070104F38BD7047D9F8F03041EA005141F416
S31517802080406143F820107047F8B500F57F2303F6B3
S31517802090FF73050D1944D9F8F0702E460C0DA6421C
S315178020A005D230461146FFF7E6FF0136F7E707EB0D
S315178020B0840107EB8500BDE8F840FEF76ABA10B5CC
S315178020C0D9F8004004EBC004A26C120DE36CA16C26
S315178020D01B0D03EB1153934205D910461E21FFF7AB
S315178020E0CAFF0132F2E710BD08B511EE102FFFF7C0
S315178020F097FF42F4805201EE102F08BD4FF480509F
S31517802100FFF79ABF11EE100FC0F30030704710B566
S3151780211011EE102F12F001041FD1FEF715FA224681
S3151780212010461221FFF7A7FF0132B2F5805FF7D16C
S315178021300020FFF7C4FFD9F8F03002EE103F4FF0BA
S31517802140FF3303EE103FFFF795FF11EE102FFFF7C2
S3151780215067FF42F0010201EE102F11EE102FFFF7E5
S315178021605FFF42F0040201EE102F10BD0420FFF727
S3151780217063BF11EE100FC0F380007047FEF7F6BBF2
S3151780218010B54C46FEF7A4FF6063002010BD000013
S3151780219008B503691A68064B9A4206D1072014F0C8
S315178021A059F9B0FA80F0400908BD012008BD00BF73
S315178021B00080190238B5072105461248FEF76CFFCD
S315178021C00C20FEF761FD104C0423237260600720F4
S315178021D014F05CF92146284614F09CFE88B90B2129
S315178021E00A48FEF759FF0A20FEF74EFD082304F129
S315178021F02C0184F8343020632846BDE8384014F023
S3151780220089BE38BDD8408217001883174841821770
S3151780221037B50446006807234FF0FF320093616B8A
S315178022200D23056BA847206848F216034FF0FF3237
S3151780223000930E23056B616BA847206844F207034A
S315178022404FF0FF3200930D23056B616BA84720680B
S315178022500E234FF0FF32616BC56AA8474FF6E373BB
S315178022604FF0FF32616B0340206843F018030093E9
S315178022700E23056BA847206805234FF0FF3200937E
S315178022801D23056B616BA84720681E234FF0FF320D
S31517802290616BC56AA8474FF0FF32616B83B22068BE
S315178022A043F4807300931E23056BA84763689B6965
S315178022B00BB120469847002003B030BD10B51021CA
S315178022C004460A48FEF7E8FE0021192014F0F4F8B0
S315178022D04FF4FA701EF038FA0121192014F0A0F87D
S315178022E02046BDE81040FEF7C7BF00BFA83F82173C
S315178022F008B502210E48FEF7CFFEFEF729FEFEF738
S3151780230053FB0C4A536B43F003035363FEF7A8F949
S31517802310C0F30730632813BF5021074842F2500194
S315178023200648FEF77FFE742014F0B0F8002008BD2B
S31517802330A840821700400C026C014800AC003C0094
S315178023400120704708B50B48FFF71AFBFEF788F987
S31517802350C0F30730632801D1074906E0FEF780F9F5
S31517802360C0F307306728F7D0044905480AF0AAFD55
S31517802370002008BDA84382174D7682175C76821790
S315178023805276821708B50120D9F80030164A1749B0
S315178023905A647F22164BFFF739F8FEF761F9C0F3B7
S315178023A00730632801D1134B06E0FEF759F9C0F3BE
S315178023B007306728F7D00E4B7F220C490120FFF78D
S315178023C025F801210C48FEF767FE0021332014F00B
S315178023D073F84FF4FA601EF0B7F90121332014F021
S315178023E01FF8002008BD00BF00010010A08601005D
S315178023F058188317D0178317C840821708B502480D
S315178024000BF0F6F8002008BD62768217704708B57C
S31517802410A220FFF7FBFF0CF03BFE01F05DFA01F0FF
S31517802420A5FABDE808400CF02FBE70470720704705
S3151780243010B578204C460BF0F5FB3949A066D9F8CC
S31517802440682038481160D9F8682037495160D9F81B
S31517802450682036499160D9F868203549D160D9F80E
S31517802460682034491161D9F8682033495161D9F800
S315178024706810324A8A61D9F86810CA61D9F8681023
S315178024800862D9F868102E484862D9F868102D481E
S315178024908862D9F868102C48C862D9F868102B4812
S315178024A00863D9F868102A484863D9F86810294804
S315178024B08863D9F868102848C863D9F868102748F8
S315178024C00864D9F8681026484864D9F868102548EA
S315178024D08864D9F868102448C864D9F868102348DE
S315178024E00865D9F8681022484865D9F868108A654A
S315178024F0D9F86810CA65D9F868100A66D9F86810C5
S315178025004A66D9F868108A66D9F86810CA66D9F8FB
S3151780251068201849D9F868301167174A5A6710BD65
S315178025202D24801725DC801759D680178DD68017CE
S31517802530CDD58017F1D5801715D680172B24801700
S31517802540B9DA80174907821751178017A7D68017C8
S31517802550F91F801759D18017C5CE8017390F821763
S31517802560A90F8217EB0F8217F504821781668117D9
S315178025704D66811705108217DD1082172DE9F041F8
S31517802580069E079D012E28DDCB0701D5022E24D066
S315178025901022002128681EF0CFFC10220021074642
S315178025A068681EF0C9FC4FF48033394602460446E4
S315178025B000201DF0F3FE3A19013A39460346804644
S315178025C009480BF027F8022E0BD010220021A86895
S315178025D01EF0B2FCC0F8008003E04FF0FF30BDE874
S315178025E0F0810020BDE8F0819F768217026800236C
S315178025F04360036102B11370704703685A1C026007
S315178026001878002808BF4FF0FF307047036818788E
S3151780261070470000034A013810F8013F0BB1D154B7
S31517802620FAE77047C890831701480AF0F3BF00BFCF
S31517802630CA7682172DE9FF4D00264FF0180B0446F0
S315178026400191002C3DD00026019B37460333029318
S3151780265023689F4229DA0BFB07F8D4F804A00AEB04
S3151780266008055AF80810C1B10021A868814208DA0E
S315178026702868039150F821000BF01EFA039901314F
S31517802680F3E75AF808000BF017FA68680BF014FA94
S315178026900021A9604AF8081005E0E86818B1029980
S315178026A0FFF7C8FF06460137D2E760680BF004FAD2
S315178026B0A568002320466360A3602C460BF0FCF9BF
S315178026C0BFE7304604B0BDE8F08D000008B50BF0C3
S315178026D0A9FA18B902480AF09DFFFEE708BD00BFA0
S315178026E0D876821708B51420FFF7F0FF002202600C
S315178026F042608260C260026108BD000008B50BF0B7
S31517802700FFFC18B902480AF085FFFEE708BD00BF2F
S31517802710D8768217036870B50646856833B1DA6846
S315178027200AB91B68ABB12B6801332B60296818244B
S31517802730686801FB0441FFF7E1FF2B6800225C43C1
S315178027400319686002515A60DA601A61B269336098
S315178027505A61002070BD38B504460D46FFF7DAFF7B
S31517802760A368E268DD6000251A61FFF7BBFFA368DF
S315178027709860A06020462560FFF7CCFF284638BDB5
S3151780278043682DE9F04D07460C4623B9036913B9FB
S315178027900020BDE8F08D2568EB6813B1FFF744FF7D
S315178027A095E02E6816B13B6801207DE0A3699B07EB
S315178027B0F9D5DFF88CB156F80B100BEB060A38688B
S315178027C01DF098FE8046002862D1DAF80830180581
S315178027D02AD51C20FFF77AFFE3680C2B834601D096
S315178027E0062B05D1FFF720FF58460BF065F925E034
S315178027F0264605460FCE0FC596E8070085E80700DB
S31517802800C4F80880C4F80080FFF76CFFC4F80C8002
S31517802810C4F81480C4F810806060A0602046FFF763
S3151780282079FFC4F814B00CE0E3682BB12369DAF8A2
S3151780283004201341D90704D4FFF7F6FE0D23E3606E
S315178028401CE0DAF80430E360DAF80830DA07236137
S3151780285014D501212046FFF77EFFD4F814E062686D
S315178028602546DEF800307646DA600FCE0FC596E835
S31517802870070085E8070070460BF01EF93846FFF704
S31517802880B5FEE068A0F10D0358425841BDE8F08DBA
S315178028900C36842E8FD186E71A783AB15C2A00F1E6
S315178028A0010008BF01330133002BF5D10BF0BAF9BC
S315178028B0804660B1286800B9A860AE68731C023676
S315178028C0AB60B60031460BF01BFC286010B90120AF
S315178028D0BDE8F08D314668680BF012FC68600028F9
S315178028E0F5D02A68A6F108033969043E42F80380B1
S315178028F06A68D15000232A6893516A6893513B6856
S3151780290093B90025384688F80050FFF76FFEE368BD
S31517802910062B7FF43DAF21463846FFF731FF01215D
S315178029202046FFF718FF33E71A78002AE9D05C2A82
S3151780293008BF013313F8012B08F8012BE0E700BF16
S315178029408C188317012A2DE9F34D17469B4602D01B
S31517802950002401262FE01E4B1C68002C34D094E8E7
S3151780296006001C480AF056FE0AF0ACFE20B11A483B
S315178029700AF03EFE012028E02469EEE741462868E2
S315178029801DF0B8FD38B9019095E8060011480AF090
S3151780299041FE019B9A460AF095FE0028E7D12D69DC
S315178029A0002DEBD1BAF1FF3F04D141460B480AF00F
S315178029B031FE01340136BE4206DA054B4FF0FF3A37
S315178029C05BF826801D68EBE7204602B0BDE8F08DE0
S315178029D0F4918317F6768217FD7682170977821711
S315178029E088B1094A0378D35C13F003030AD010F829
S315178029F0013FD15C4907FAD15F2BF8D03D3B58424E
S31517802A0058417047184670475263821703682DE9F5
S31517802A10F0410446002B75D136E01DF097FD00284E
S31517802A2065D101236360A36800263C4D012B08BF3F
S31517802A303B48A84618BF3B480CF0ACFE01302846E9
S31517802A4001BF00236360384A13601DF07FFD0A2398
S31517802A502B54284446700AF093FE08B1324B1E60F9
S31517802A600AF094FEA768314B0026012F1E6017D1F6
S31517802A702A782D4D0A2A0BD12A687AB927492C48E4
S31517802A801DF000FD2A4B236020680028C5D1C8E7B2
S31517802A90224927481DF0F6FC2F60F3E71F60F1E700
S31517802AA02B780A2B1AD0224D28461DF04FFD074644
S31517802AB01A481DF04BFD3844FF280AD828461DF0C2
S31517802AC045FD16492023284400F8013C1DF0DAFC01
S31517802AD004E00A232B70144B6E701E6062681AB955
S31517802AE0134B0A215A701970C4F80080CCE72068F6
S31517802AF00223A36078B1037863B1431C23600078FF
S31517802B00BDE8F0811A78002ABED05A1C0260187860
S31517802B10BDE8F0811846BDE8F08100BFB4DE8417A2
S31517802B207AA082173F068317B88F8317C8918317A2
S31517802B30C08F831770B50E464368044681688B42EB
S31517802B400CDB056801F164036531836028460BF059
S31517802B50D7FA206020B928460AF0AEFF206840B120
S31517802B606368C65400206368226801336360D05453
S31517802B7070BD012070BD000038B504460D462AB9D0
S31517802B8029462046BDE83840FFF7D4BF05481DF0D3
S31517802B90D1FC0028F4D05C212046FFF7CBFF002814
S31517802BA0EED038BD257782170368187870470000EE
S31517802BB038B5054608B9002038BD0378242B0DD1C2
S31517802BC0437800200C4C3F2B207014D10B4B20469A
S31517802BD00B491A681EF0ABFA204638BD094B1C689C
S31517802BE0002CE8D0294620681DF084FC08B9606857
S31517802BF038BD2469F4E738BDCC918317C490831701
S31517802C002A778217F49183172DE9F04D8846037832
S31517802C103C4AD35C9B0722D01DF0BCFC07460AF0C2
S31517802C209BFA044630B138480AF0F4FC38460AF065
S31517802C3043FF14E03D2138461DF07CFC334B1D685D
S31517802C40002808BF012000F1010A04701C4655B1FF
S31517802C50394628681DF04EFC28B32D69F7E74FF0E3
S31517802C60FF30BDE8F08D14200AF0DCFF064628B346
S31517802C7038461DF08FFC306018B930460AF01CFFB5
S31517802C801CE05046D4F800B01DF084FC3561C6F8B8
S31517802C900880F5607060DBF810400CB1A346FAE740
S31517802CA0CBF810600CE0514668681DF023FC68B1BC
S31517802CB0EB689BB1394616480AF0ACFC4FF0FF34E7
S31517802CC038460AF0F9FE2046BDE8F08DB8F1000FB8
S31517802CD015DDAC689CB9C5F80880F1E7B8F1000F27
S31517802CE002DCAB68012B01DD0123AB606868002429
S31517802CF00AF0E2FE50461DF04DFC6860E0E70124BD
S31517802D00DEE700BF526382172D778217F4918317F8
S31517802D10707782172DE9FF4D002405460291A0464C
S31517802D202646032128461DF005FC0746002800F095
S31517802D30B080BD420ED0C5EB070A204606EB0A08BF
S31517802D404146FFF7DBFC52462946044630441DF0C0
S31517802D50A1FB4646013703214FF0000838461DF080
S31517802D60E9FB019080F80080002F00F08A803A21D5
S31517802D7038461DF0DFFB824618B900229046154665
S31517802D8012E0437880F800802D2B02D1851C4246AD
S31517802D900AE03D2B04D14246851C4FF0010803E01B
S31517802DA02B2BEAD1851C0122384603920AF0D4F9D7
S31517802DB0039A834648B93846FFF7FAFE039A83463D
S31517802DC018B9B8F1000F28D006E0584603921DF0BF
S31517802DD0BDFB0028F5D019E038461DF0B7FB8046B5
S31517802DE028461DF0B3FB404402300AF01BFF80468D
S31517802DF040B137492B463A461EF099F9002140468D
S31517802E00FFF702FF40460AF057FE06E0039A42B1E3
S31517802E1058461DF09BFB0BEB0005BAF1000F04D14A
S31517802E2006E05D46BAF1000F03D03A238AF80030E0
S31517802E303DB3029B284623B11DF088FBB71C074478
S31517802E4002E01DF083FB37182046791CFFF756FCE6
S31517802E50029B044683B106F10108294680444FF048
S31517802E60040A40461DF00EFB04F806A028461DF0FE
S31517802E706DFB08F800A003E0294630441DF002FBDD
S31517802E803E46019D4FF003034FF0010805F8013BBD
S31517802E9047E7B8F1000F14D028461DF057FB711C71
S31517802EA001442046FFF72AFC2946044630441DF084
S31517802EB0E9FA20260A2120461DF03CFB08B1067048
S31517802EC0F8E7002C14BF2046284604B0BDE8F08DDD
S31517802ED0867782172DE9F0410E4686B0044600287C
S31517802EE036D00378002B35D00A21DFF878801DF08D
S31517802EF021FB1A4F08B14378F3B120461DF026FB04
S31517802F000230FFF7E3FB214605461DF0BBFA14494D
S31517802F1028461DF0CBFA314601A80123CDF8148037
S31517802F20029303930497019500F08AFA044628467C
S31517802F300AF0C2FD20460EE0314601A80123CDF8DE
S31517802F401480049702930393019400F079FA02E0B0
S31517802F50012000E0184606B0BDE8F081FB258017F2
S31517802F60D7778217A92B80172DE9F04D8EB0064695
S31517802F700346E3B11A699B680C2A01D0062AF8D151
S31517802F802BB9FFF751FB9D4B00221A6045E20C2A9D
S31517802F9007D11A690C2AECD15A681268002AE8D028
S31517802FA0EFE7062AE5D11A690C2AE2D0E9E74FF04E
S31517802FB00B0801271D469A469B460393049306934F
S31517802FC005930B930A93002E00F029823369063BEB
S31517802FD0022B0DD80AF076FB0AF0D2FB002840F0B8
S31517802FE01C82039B0BB1059002E0824603960590DF
S31517802FF03469A04506D12FB1F76817F1FF3718BF87
S31517803000012703E2022C02D0042C0BD104E0049B87
S31517803010002B40F0F78103E0049B002B00F0F28130
S315178030200693C3E0032C04D1069B002B40F0BE8089
S31517803030F5E1062C40F0A4803368002B00F0E4817C
S31517803040BBF1000F7BD1B3685B681F68002F00F058
S31517803050DB8173681B681B6818460A931DF076FA1E
S315178030600B900420FFF732FB3B1F0993002307932E
S315178030708346099B53F8040F0993002853D00021E0
S31517803080FFF748FE074608903B78002B42D0202B47
S3151780309001D10137F8E7202138461DF04BFA034650
S315178030A010B1C7EB000A04E038461DF04FFA3B18FB
S315178030B082460C935846079B03F102084FEA880805
S315178030C04146A8F10808FFF719FB0B9B8346981C06
S315178030D05044FFF7FBFA0A994BF808001DF0D2F90E
S315178030E047495BF808001DF0E1F9524639465BF807
S315178030F008001DF0EAF9079B5BF808200133079350
S315178031000B9B1A444FF0000392448AF801300C9BAC
S315178031101F46B9E7099B089A1B689A42A9D0104699
S315178031200AF0CAFCA5E7079B4FF0010ACDF82CB029
S315178031304BF8230073681B681A6818600A927368BD
S31517803140DBF800801B681868B8F1000F0DD10AF0FC
S31517803150B3FC0B980AF0B0FC73680A9A0B24012704
S31517803160C2461B68C3461A6050E108B10AF0A4FC30
S3151780317073680BF1040B5BF8042C1B681A6015E057
S315178031800C2C00F04181092C04D1BAF1000F00F004
S315178031903B810BE00A2C09D1059BBAF1000F18BFAA
S315178031A001230593039B08BF002303933368002BE2
S315178031B000F02A81012B40F00681D6F80480D8F8D2
S315178031C00C0010B1FFF7D0FEF2E0D8F80070002F90
S315178031D000F0F980054657F8252010460792FFF725
S315178031E0FFFB079A08B10135F5E7064B1B6807936E
S315178031F0002D47D042B1054644E000BFB88F8317EC
S315178032009CA18217C89183171746D8F80030D859CA
S3151780321000B31DF0BFF93D2105461DF08BF910B19E
S315178032204FF00003037028460AF046FCD8F80030A2
S315178032300021D859FFF76EFD00210546FFF7E4FCFC
S31517803240D8F80030DB599D4202D028460AF034FC64
S315178032500437DAE70546B8E000211046FFF75AFD2E
S3151780326000210746FFF7D0FCD8F800305B59BB42E0
S3151780327007D0D8F810303846013BC8F810300AF016
S315178032801BFC0435D8F800305F195A591046089236
S31517803290FFF7A6FB089A0028DED1D8F81010002968
S315178032A06ED007906048D8F80480FFF781FC38B154
S315178032B00078079B302805D0031C18BF012301E02F
S315178032C0089000E0089345444FF000083B1F07938A
S315178032D0474602230C93079B53F8042F0793002A1C
S315178032E03BD008991046FFF715FD09901DF02EF96A
S315178032F029680C9B0D9503EB410101443846FFF76E
S31517803300FDF90746B8F1000F03D048491DF0CEF8EE
S3151780331001E080F800802B681BB1454938461DF0BF
S31517803320C5F8099938461DF0C1F80D9B04351B68F9
S315178033301BB13F4938461DF0B9F838461DF006F9D6
S31517803340099AC31C0C93079B1B689A4202D0104696
S315178033500AF0B2FB08F10108BDE7384607921DF05F
S31517803360F5F8079A0A2305213B54384442703846A4
S31517803370FFF7B0FD38460AF09FFB2E4B1D6818E005
S315178033803B2110461DF0D6F830B1D8F800302A48C0
S3151780339059590AF03FF916E000900798274B0030E5
S315178033A0D8F80020D8F8081018BF01200CF098FC20
S315178033B005466B1C09DA1F4A6FF001035B1B6FF01A
S315178033C0010013602CE04FF0FF351A4A2B1C18BFEB
S315178033D00123136024F00202012A0AD0072C04D194
S315178033E0B5FA85FA4FEA5A1A04E0082C08BF9A46A6
S315178033F000E00495F3680DB9032B00E0022B18BF84
S315178034000B2402E0049B06930B240127059B0BB91B
S31517803410B66800E0039EA046D5E5012000E0284661
S315178034200EB0BDE8F08D00BF8C7782172B138317EC
S31517803430687D8217C490831799778217B88F8317F9
S315178034402DE9F04D90B004461422009104A800216E
S3151780345001261DF0C0F8009B002513F0080F14BF36
S315178034604FF0FF330A230193009B0B9509950F9312
S31517803470FFF738F90C950E950D95A54F0A900B9079
S3151780348009A8FFF747F9A34809F066FE08B138601F
S3151780349001E0A14B3B604FF4807200219F481DF0DD
S315178034A09AF8032103A804238DF80D508DF80C3054
S315178034B0FFF7B0F803219A48FFF7ACF8012199482E
S315178034C0FFF7A8F802213868FFF7A4F8009B03F0E6
S315178034D00603022B03D000219348FFF79BF801239D
S315178034E0A360E36820469847B0F1FF3F804600F017
S315178034F03F818A4A12F808B06268002A00F03A813A
S31517803500B8F10A0F04D0226920469047824601E017
S315178035104FF0000ABBF1000F05D00BF1FF32012ADD
S3151780352015D8079A12B1079A414659E0BBF1020F8F
S315178035300DD109A904A8FFF723F9002840F01A81AD
S31517803540B8F10A0F03D1012109A8FFF704F9019BE6
S31517803550984505D1079F1FB90C9A002A00F00E814E
S31517803560BBF1020FBDD0B8F1260F00F0C48012DC74
S31517803570B8F1220F00F0B18006DCB8F1040F40F0E5
S31517803580F48001230893EAE0B8F1230F17D0B8F136
S31517803590240F38D0E9E0B8F13B0F00F0A68006DC9F
S315178035A0B8F1270F40F0E180012308938EE0B8F138
S315178035B05C0F19D0B8F17C0F00F0BA80D5E0059B67
S315178035C063B9079B53B9236920469847471C88D008
S315178035D00A2886D0E36820469847F4E7079A232176
S315178035E004A8FFF7C9FA7CE7BAF1FF3F00F0BD8060
S315178035F0079A414604A8FFF7BFFAE368204698471B
S31517803600079A0146ECE7226920469047474BC2B294
S3151780361007469A5C910714D0032104A8FFF78AFA04
S31517803620099A1369013313612369204698473F4ADC
S31517803630C3B20746D35C5A0740F0DA805F2834D185
S31517803640D6E03F280DD07B2834D1032104A8FFF775
S3151780365071FA099A2046136901331361E36898470B
S315178036601CE0099904A80A6901320A610321FFF748
S3151780367061FA414604A8FFF75DFA394604A8FFF7B1
S3151780368059FA032104A8FFF755FAE36820469847A5
S3151780369027E77D2809D004A8FFF74CFAE368204668
S315178036A09847431C0146F4D15FE0032104A8FFF72E
S315178036B041FA16E7079A242192E727283FF411AF94
S315178036C06368002B56D004A8FFF734FAE3682046C0
S315178036D09847471C0146F0D147E001230893079B7B
S315178036E0B3FA83F35B090793FBE609A904A8FFF7E7
S315178036F047F8012127E009A904A8FFF741F8BAF18D
S31517803700260F32D1E3682046984702211BE000BF77
S31517803710BC8F8317D1778217D5778217C89083176F
S31517803720D9778217DE778217E377821752638217E4
S3151780373009A904A8FFF724F8BAF17C0F15D1E36815
S3151780374020469847032109A8FFF705F8C9E60429F3
S315178037503FF4C7AE63686BB104A8FFF7EBF9E3686C
S315178037602046984701460130F1D1FEF75DFF01E00B
S31517803770074603E03C4B01271D600AE00D9B1BB1F2
S31517803780FEF752FF384B1D60DDF834A0BAF1000FF3
S3151780379036D00D9B2BB10E980AF08EF904A8FEF73A
S315178037A025FF636813B9314809F034FF0123256073
S315178037B0636000210A9808950795FEF73BFF04A8D2
S315178037C0FEF714FF04980AF077F9049506950137E2
S315178037D044D0009BDB0741D42269254B9A427FF45C
S315178037E043AE2046FFF7E0F900287FF43DAE35E07B
S315178037F0E36820469847394604A8FFF79BF913E7ED
S3151780380009A904A8FEF7BCFF012109A8FEF7A3FFA3
S31517803810DDF828B05846FFF7A7FB514606465846A7
S31517803820FEF708FFB11C12D104A8FEF7DFFE049835
S315178038300AF042F922690F4BCDF810A09A42CDF8BB
S3151780384018A00AD10C48564609F0E4FEBFE7721C49
S31517803850B5D1054BC3F800A0B1E75646301C18BF43
S31517803860012010B0BDE8F08DB88F831711788217B5
S31517803870A92B80170D268017E87782177FB506A89C
S31517803880074B02210593074B049301230293039356
S31517803890002340F8143DFFF7D3FD07B05DF804FB0E
S315178038A00D2680170D2A801738B5084D2C685CB9F8
S315178038B014200AF0B7F9064B0360064B286004619B
S315178038C0436001238460C360002038BDF491831759
S315178038D01E7882172B78821738B51B4809F03CFC5F
S315178038E028B10A2200211DF080FB054600E002253B
S315178038F0164B1C6814F480140CD103F53B2314481B
S3151780390003F5A07325461C6009F084FE114809F05B
S31517803910E3FC02E0104809F07DFE104809F01CFC14
S315178039200A4B1B680446DB0207D40D4809F014FCC2
S31517803930044601460B4809F06DFE4B462046DB6D63
S31517803940094B1D6038BD00BFEE78821700900C02B8
S31517803950F8788217147982173F7982174C798217EC
S315178039605479821760798217F8918317F8B50646C6
S315178039701C4B1C68631C33D090B3002C03DB214689
S31517803980194809F047FE0025002C1DDDDDB92846AC
S31517803990FDF7DEFE074609F079FE20B109F05CFED9
S315178039A0012500240AE042F210701CF0CDFE38463D
S315178039B0FDF7CEFEB0F57A7FEDD3013C21460B4855
S315178039C009F028FEE0E701250A2009F0FFFD3DB939
S315178039D02A4630464FF0FF31BDE8F8400BF00FBB53
S315178039E0F8BD00BFF8918317757982179879821772
S315178039F003490020034B5B1AC9F83830704700BF5C
S31517803A00000080172C1B8817D9F83030002023F434
S31517803A107F6323F00F03C9F8303070474FF4804225
S31517803A20C9F8F420D9F8F4100020D9F83020521AA2
S31517803A30C9F83020D9F83020120C1204C9F8302072
S31517803A40D9F83020C9F8F0207047D9F838100020F7
S31517803A50D9F83020521AC9F83020D9F8302022F4F4
S31517803A607F6222F00F02C9F83020D9F83020C9F8C2
S31517803A7040207047D9F840300020A3F52003C9F8B5
S31517803A8040307047D9F8003041F2E73200201A6487
S31517803A907047D9F840200020F83AC9F84020D9F85D
S31517803AA04020C9F848207047D9F85C20BAB1D9F8B0
S31517803AB05C20526812BA02F580521F3222F01F021A
S31517803AC0C9F86420D9F86410D9F84020521AC9F871
S31517803AD04020D9F84020D9F86410C9F86020002012
S31517803AE0704700207047D9F8C0200020D9F8C02029
S31517803AF002F58062C9F8C420C9F8C800704700204B
S31517803B00704708B54946D9F83030F822A3F1BC5327
S31517803B10C9F84430D9F848001CF080FD002008BD4C
S31517803B20D9F8602008B55AB1D9F86000D9F85C1071
S31517803B30D9F864201CF072FDD9F86020C9F85C208A
S31517803B40002008BD08B5024809F052FD002008BDBF
S31517803B50A079821708B5054809F04AFD12F05EFD6F
S31517803B60034809F045FD002008BD00BFA8798217D4
S31517803B700CFA821710B54FF4E1320A2103484C46E6
S31517803B8009F023FBA060002010BD00BFB079821713
S31517803B9001200DF0DBBC08B59A20FEF737FC002014
S31517803BA008BDD9F8001008B569B9D9F84020503A38
S31517803BB0C9F84020D9F84020C9F800205022D9F8F2
S31517803BC000001CF008FD002008BD0020704700206B
S31517803BD0704700207047704770477047D9F8003094
S31517803BE010B50024D86C064A21461CF091FA204657
S31517803BF0FFF7F3FF0A2009F0E9FC204610BD00BF46
S31517803C00CA148317D9F800204FF0805110B59164E4
S31517803C10D9F800400BF03CF9E06410BD08B5FFF702
S31517803C20F1FF002008BDD9F82C20B2F1805F2CBF98
S31517803C30D9F82C000020704710B54FF08052C9F87C
S31517803C402C200BF025F9D9F82C304C461844C9F896
S31517803C502C00D9F83800FFF7E6FFE0620020D9F884
S31517803C602C20C9F8302010BDD9F84020103AC9F851
S31517803C704020D9F8402022F00F02C9F84020FEF7DD
S31517803C80C3B8000008B50022C9F80400C9F8202077
S31517803C9003481BF0DFFB08B11CF0C2FB08BD00BF51
S31517803CA01019831700207047034A0020034B9B1A6D
S31517803CB0034A1360704700BF00008017E408841713
S31517803CC0FC918317002070470020704708B5FEF7D0
S31517803CD09EFBFCE708B5044809F08AFCD9F8000072
S31517803CE01EF0D6F8002008BDB9798217D9F80010CA
S31517803CF008B5303102481DF0A1FF002008BD00BF6E
S31517803D009F95821708B5FEF795F8002008BD08B568
S31517803D10FEF78EFB002008BD10B509F0ADFB10210C
S31517803D20034C0448226809F050FA2060002010BD21
S31517803D30DC358317C179821708B5044809F058FC12
S31517803D40D9F8000014F0D6FA002008BDCA79821770
S31517803D5008B515F0C3FC002008BDD9F84C20002003
S31517803D60C9F85020C9F84C000DF0F0BBD9F83000CF
S31517803D704FF4200108B5A0F5200009F049FE002070
S31517803D8008BD08B5FCF774FD002008BD08B59B2053
S31517803D90D9F8043043F4007343F00103C9F80430AB
S31517803DA0FEF734FB002008BD0020704700207047BF
S31517803DB0704708B5FFF7FCFF002008BD08B5024815
S31517803DC01BF048FB1CF02CFBAC198317FEF716BBB0
S31517803DD00346084611461847012A70B5164618DD58
S31517803DE01C46102254F8040F00211DF0A5F805462D
S31517803DF001460A4809F00EFC2246711E2846FFF72F
S31517803E00E7FF041C0146064818BF012409F002FC87
S31517803E1001E04FF0FF34204670BD00BFE27982176C
S31517803E200A7A82172DE9F04502F1FF38B8F1000FAB
S31517803E3087B006460F4615461C4603F1040A2CDD45
S31517803E401022586805A91DF077F8059B1A7822B3B2
S31517803E503A2A22D0232A20D00922184960680BF0E3
S31517803E60A1FCAA1E04F10803A0B1C1681448012950
S31517803E7008BF072111F0010F07D1D0F88C40A14256
S31517803E8003DC104809F0C6FB04E000240190029475
S31517803E9000910BE04FF0FF300CE001230293084BA3
S31517803EA04246019340F20F73009353463946304684
S31517803EB000F0A0F907B0BDE8F08500BF9C1D8317F9
S31517803EC000928317C87A821710B50C46034809F0F3
S31517803ED043F92146BDE810400BF08AB84C79821712
S31517803EE038B501460446184809F094FB20460AF06F
S31517803EF091FC0128054621D1144809F079FB2268DF
S31517803F00134B9A4201D0134804E020460AF01EFB51
S31517803F1018B9114809F06CFB14E020460AF0F8FB33
S31517803F200E4809F065FB20460AF025FB08B90C48B0
S31517803F30F0E70C48002509F05BFB03E00A480125EA
S31517803F4009F056FB284638BDF27A8217137B8217FB
S31517803F50270519562A7B82173F7B8217577B82172D
S31517803F60727B8217837B8217877B8217012AF8B524
S31517803F7016461F4605DC0C4B1868BDE8F840FFF758
S31517803F80AFBF002501241022002157F824000134E1
S31517803F901CF0D2FFFFF7A4FF002818BF0125A64201
S31517803FA0F1D12846F8BD00BFDC35831773B50546B2
S31517803FB00D480E4609F0D0F808B9002012E00B49D3
S31517803FC01CF098FA04460028F7D1094B0190094846
S31517803FD01968009609F01EFB6B4601222146284672
S31517803FE0FFF720FF02B070BD9E7B8217A87B8217D2
S31517803FF0DC358317AC7B82172DE9F045561E224C8C
S3151780400087B01F1D1D4632460123029382468DE8CF
S3151780401018003B46884600F0EDF81EB91B4B1B6807
S31517804020236605E01022002168681CF085FF20664C
S3151780403005AA04A9206E144DFDF752FEF8B9049B04
S3151780404005F19000059A296ED21A1BF0F1FA3A46B5
S315178040503146404600F01CF888B900F0C3F80523AE
S315178040600194324684F85E304146012350460293C6
S315178040704FF4E06300933B4600F0BCF800E0012064
S3151780408007B0BDE8F08500BF00928317DC3583172C
S31517804090F0B585B0164C0D461646074604F16803EB
S315178040A031460193224604F164032846009302237E
S315178040B00AF0C4FB08B10F480FE004F170032946D4
S315178040C00293324604F16C03009401933846022317
S315178040D00AF0C0FD054620B1074809F089FA012084
S315178040E003E0E06E01F0F2FB284605B0F0BD00BF95
S315178040F000928317B87D8217DD7D82172DE9F041EF
S315178041000546DDF82880D8B216460C46099FC8F8AA
S3151780411000100AF0E9FA024655B9294B29492A4867
S31517804120B44218BF194609F075FAB44207D13CE074
S315178041300146264809F06EFA012D0AD012E0089A30
S31517804140BA4217D84FF48033079906980AF094FA2B
S315178041502BE008AB079A394606981BF041F90646B5
S3151780416018B308E029461A4809F054FA6FF0020086
S31517804170BDE8F0810126E8B2089C0AF0BFFAA7428B
S31517804180014603D8134809F045FA03E03246124828
S3151780419009F040FA114809F03DFA6FF00500FEF76D
S315178041A035F94FF0FF30BDE8F081089B0C481C4469
S315178041B0C8F8004009F01CFA0020BDE8F08100BF5E
S315178041C0057E8217017E82170D7E82171B7E8217C8
S315178041D0347E8217577E8217877E8217A07E821734
S315178041E0837B821710B5FDF726FE044606F0E6FC9C
S315178041F0204610BD2DE9F04D8EB098461746179D6F
S31517804200169E0991D5F88C30F107079043EA060375
S31517804210C5F88C3028D5BD4C4FF4987200212046AE
S315178042201CF0D9F9BA4809F02DF8C4F8880004F1BA
S3151780423090001BF0AAF90AF0E1F982460AF0EEF926
S315178042405146024604F190001BF0AAF904F190003A
S31517804250FDF79AFC04F190001BF05FFAA020FEF799
S31517804260D5F80123C4F88C30B20740F1F3800020CB
S315178042700DAA87420CA90C904FF0000B0D90C8BF62
S31517804280D8F800000AF0BCFADFF880A204460120AD
S31517804290FEF7BCF820460AF0CDFACAF854B0CAF829
S315178042A050B004460AF0B6FA012844D121469948F7
S315178042B009F0B0F92268984B9A4205D0974809F0C9
S315178042C097F94FF0FF3032E00220DAF888B0FEF720
S315178042D09DF820460AF03AF928B9914809F088F9E5
S315178042E06FF0010023E00320FEF790F820460AF0CE
S315178042F00FFABBF1000F0FD08A4809F079F92046DB
S315178043000AF039F928B9884809F084F96FF002005C
S315178043100DE0864809F06CF90420FEF777F8617F7F
S31517804320022963D0824809F075F96FF00300FEF70A
S315178043306DF8002409E0079B5C467E48196809F0EA
S3151780434069F96FF06F00FEF761F8DAF85430DFF825
S31517804350BCB10BB978482EE020460AF05BFA0128E3
S3151780436019D1A37F04F140028BF85D30E37F8BF878
S315178043705C30237F8BF85E30E3681BBA1344CBF827
S315178043804C3023691BBACBF85830637F032B8BF8D5
S315178043905F3002D103E069480DE0182B0ED1684AC9
S315178043A00DAB0321A2F160000AF066FB002810DA34
S315178043B002300ED0634809F01BF9A1E0DBF84430D0
S315178043C02BB1DBF818301BBACBF8603001E05E48AA
S315178043D0F1E79AF85D204D4B0E2A04D11A6D196EA6
S315178043E09A650A441A66CAF8484033E00520FEF7EC
S315178043F00DF8A37F022B20D104F14003CAF8503061
S31517804400E3681BBACAF8543007E0042B18D14F4B10
S31517804410002120461A1F0AF0C8F8DFF83CB140225F
S31517804420214658461CF037F9062001234BF8044CD1
S31517804430CAF84430FDF7EAFF87E7E6D8012B00E094
S315178044400E2BD9D0079B4248196809F0E3F86FF00D
S3151780445004006CE772071CD52C4A92F85D100E295A
S3151780446000F2138144F21403CB4003F0010383F067
S315178044700101002B00F0098192F85E30052B41D19E
S31517804480424639460998FFF703FE002840F02681F1
S31517804490074616F0080A61D1F00600F1B280B30616
S315178044A00FD505F19004E96E20460AF023FB05F136
S315178044B0700205F16C0120460AF046FB002840F091
S315178044C00D8195F85E0000F06FFA0446002840F0DB
S315178044D0AF8016F4F86F00F0AB80BAF1000F01D0F9
S315178044E0FDF7A8FC95F85E000AF0EAF895F85E20C5
S315178044F00146184809F08EF86FF00700FDF786FF1A
S315178045000120EBE00E2B40F0C280B9E700928317AB
S31517804510BD7E8217C47E8217270519562D7B821773
S31517804520427B8217577B8217757B8217837B82170D
S31517804530F67E8217367F8217597F8217797F821781
S31517804540609283179C7F8217C67F82175492831730
S31517804550157F82178380821704928317FFF742FE8F
S31517804560AB6CD5F858B00DAA0A93EB6C59460B93DA
S315178045702B6D069395F85C30089395F85D30049209
S315178045804FF4000203926A6DCDF800B00292069A34
S31517804590019282460898FFF7B1FD044630B16FF055
S315178045A00500FDF733FFA31C54D175E70D995846BF
S315178045B0CBEB01018900FBF7FBFF0720FDF726FFF1
S315178045C0089B0D9A13B9069B5B4562D00B9B5B457F
S315178045D05FD90A9B93425CD26B6C43B195F82230B4
S315178045E0042B7FF459AF3F4809F002F854E73E4849
S315178045F04FF0FF3408F0FCFF6FF07300FDF706FFEE
S3151780460028E0696E05F17803AA6E05F1900000938C
S3151780461005F17403521A0AF0CBF900285ED1696F37
S31517804620324808F077FCA96F314808F073FC36E7F3
S31517804630710635D432063BD4F30542D416F480601E
S315178046400CD000942B464FF480624146384600F0D2
S315178046508EF90446BAF1000F06D003E0BAF1000FBF
S315178046603CD00446FDF7E6FBE01C04D16FF006004C
S31517804670FDF7CCFE07E0611C05D143463A460999FA
S315178046800798FDF7B9FC204628E0002701E70F4673
S31517804690FFE6A96D05F19000521A1AF0C9FFFBE6DD
S315178046A02B46424639464020A047834690B9C1E7F4
S315178046B02B46424639468020A04783460028BBD0E2
S315178046C008E02B46424639464FF48070A04783460A
S315178046D00028B3D0074808F08BFF58460EB0BDE8C0
S315178046E0F08D00BFEA7F8217248082176B8082172E
S315178046F078808217B18082172DE9F041161F002521
S3151780470004460F469846BD420FDA002DC4BF84F87B
S315178047100080013456F8041F013520461BF0B2FE7F
S3151780472030681BF013FF0444EDE7BDE8F081000005
S31517804730B0F5806F10B50CD11C6E0748214608F06E
S3151780474069FF0F20FDF762FED9F80000A047012008
S3151780475010BD002010BD00BFCB808217B0F5806FCB
S31517804760F8B50C4617461D4623D1134808F0F4FCB6
S31517804770A0B1102200211CF0DFFB002C064605DDB8
S315178047800A233A462146FFF7B7FF07E00B4808F09A
S31517804790E3FC014610B130461BF074FE2C6E0848B8
S315178047A0214608F037FF0F20FDF730FEA04701207E
S315178047B0F8BD0020F8BD00BF0481821720738217C9
S315178047C00D81821770B50D460A4816461C4608F0A5
S315178047D0C3FC40B108491BF08DFE20B9616D0748AF
S315178047E008F098FB03E0236E314628469847002049
S315178047F070BD00BF9E7B8217478182174A818217B9
S31517804800B0F5806F2DE9F745884692461F463FD10A
S3151780481093F82230042B01D0002609E03E6801ABBD
S315178048206A460121304609F0C0FE019B002BF3D062
S31517804830B8F1000F15DD002425465AF825000135F5
S315178048401BF084FEA84500F101000444F5D12046EB
S3151780485009F0E8F92023524641460446FFF74CFFF4
S3151780486006E00D4808F078FC0C4C002818BF044663
S315178048703D6E0B48294608F0CDFE0F20FDF7C6FD85
S315178048802346064A3146D9F80000A847012000E09A
S31517804890002003B0BDE8F08520738217CA148317EA
S315178048A0538182177FB50446036F00F16C06C16E7C
S315178048B000F19005039371B328460AF01BF9314628
S315178048C003AA28460AF040F90146002834D11B4A24
S315178048D0E06E1AF006FC031E01DA023313D118486C
S315178048E008F03AFC0646B0B1E56E1BF02FFE0123A1
S315178048F0134A01931349184433460090284601F00A
S31517804900A5FC002807DA1AF08DFC0F4902460F48D6
S3151780491008F080FE10E02046FDF7FEF90F20FDF720
S3151780492075FDE26E216E0A4808F074FE2046FDF783
S315178049300BFA084808F05CFE04B070BD9D8182179B
S31517804940207382179C818217CC628217A481821763
S31517804950B7818217F3818217B0F5806F08B504D1B6
S315178049601846FFF79FFF012008BD002008BDF8B540
S3151780497006460F4614461D46FCF790FC2B463146D5
S315178049803A462046069EB04795F85D30012B09D0EA
S31517804990B4F5007F06D06FF00800FDF737FD4FF0AE
S315178049A0FF30F8BD0020F8BD014B53F82000704743
S315178049B0C043821737B5074D074C8DE80C000B4659
S315178049C0641B064902462846A41061430AF048FF2D
S315178049D003B030BDD0858317E88D8317B76DDBB6E7
S315178049E008B50649064808F015FE064808F000FE81
S315178049F0054808F0FDFD002008BD00BF7417831712
S31517804A00A2828217A7828217D88282172DE9F04150
S31517804A108846054638B32C2128461BF08BFD06465B
S31517804A2090B928461BF092FD0446002841D00130E4
S31517804A3009F0F8F8074618B96FF00B00BDE8F08152
S31517804A4029461BF01FFD11E0441B37D0601C09F067
S31517804A50E9F807460028EFD0224629461BF01AFDAB
S31517804A6000233B5502E00120BDE8F0813A21384604
S31517804A701BF060FD044628B10023601C23701BF0D1
S31517804A80E7FC044638461BF0E3FC05461BF05EFD43
S31517804A9030B121462846C047044608B1384608E053
S31517804AA03846751C09F008F8002EB4D13046BDE893
S31517804AB0F08109F001F82046BDE8F0812046751C83
S31517804AC008F0FAFFA7E700002DE9F84507460D46D7
S31517804AD01646002A3FD0002841D00B7843B10024D0
S31517804AE029461BF0FFFD034618B101301C46F7E730
S31517804AF03C466CB328461BF029FD234613F8012D37
S31517804B00202AFBD00138204410F8013F202BFBD0F8
S31517804B10BC4201D02C2A04D13A2B23D02C2B21D05E
S31517804B2003B32B78002BE3D04FF0000A384629467B
S31517804B301BF0D8FD804648B128461BF007FD404438
S31517804B40844203D308F10100C246F0E75446D0E702
S31517804B500220BDE8F8854FF0FF30BDE8F8850120C3
S31517804B60BDE8F88528461BF0F1FC204410F8013B78
S31517804B70202BFBD03A2B17D104462378621C202B87
S31517804B8001D11446F9E70B4920461BF014FD20B9CD
S31517804B9020461BF0DBFC054600E0051B2A4621460E
S31517804BA030461BF03BFD00E0002500207055BDE820
S31517804BB0F88500BFE26D8217002383601846704719
S31517804BC02DE9F84580460B4E0B4CA41BE41068B1B3
S31517804BD00025B24606E05AF8351040461BF08AFC87
S31517804BE028B10135A54206EBC507F4DB0027384601
S31517804BF0BDE8F885788E8317A88E831738B50D4646
S31517804C00074C084908481BF05FFA21460748FFF703
S31517804C10FDFE21462846FFF7F9FE002038BD00BF66
S31517804C20314C8017B94B8017BC3183172183821774
S31517804C3010B58AB0114A002307930C460393009345
S31517804C400AAB029205AA0690019213E90F001AF091
S31517804C50A1FE059B73B10CB9002209E020461BF013
S31517804C6075FC0028F8D02046FFF7AAFF10B14268D6
S31517804C70059B9A6000200AB010BD00BFBC31831710
S31517804C802DE9F0410024DFF86C80C0B00668054630
S31517804C90FC22214601A800941BF09DFCD8F8003011
S31517804CA0114F2BB1114808F057FAC8F800403860F1
S31517804CB0386830B96A4631460D48FFF705FF80B91F
S31517804CC005E06A463146FFF7FFFE0028F2D16846AF
S31517804CD01BF03CFC28B16846FFF772FF08B14368A2
S31517804CE0AB6040B0BDE8F08130938317A6838217F7
S31517804CF021838217A020831730B538B10C78302CD2
S31517804D0004D14C7804F0DF04582C12D00A4C0B448B
S31517804D10994205D00D78655D20B115F0440F04D101
S31517804D202AB930BD15F0040FF9E70131F0E71160A4
S31517804D3030BD0231EAE700BF526382170023C36092
S31517804D401846704738B50D46074C084908481BF072
S31517804D50BBF921460748FFF759FE21462846FFF734
S31517804D6055FE002038BD00BFE14D80173D4D801799
S31517804D70BC318317B183821770B505461BF0E6FBE6
S31517804D8068B1074E297830461BF0D4FB044608B124
S31517804D90801B70BD2978034808F03CFC204670BDFF
S31517804DA0FA6D8217BD83821770B505461BF0CEFB49
S31517804DB001280ED9084E697830461BF0BBFB04468E
S31517804DC008B1801B70BD6978044808F023FC20461B
S31517804DD070BD002070BD00BFF56D8217F1838217F5
S31517804DE070B58AB0154A002307930C460393009330
S31517804DF00AAB029205AA0690019213E90F001AF0E0
S31517804E00C9FD059BBBB11CB9059B0022DA6012E070
S31517804E1020461BF09BFB0028F6D02046059EFFF701
S31517804E20ABFF00F007052046FFF7BEFF044B53F88C
S31517804E3020301D43F56000200AB070BDBC31831742
S31517804E40844982171D4B2DE9F34100241B780546AB
S31517804E50DFF87C8006688DF80430D8F800308DF836
S31517804E6005408DF80640164F2BB1164808F074F991
S31517804E70C8F800403860386830B901AA31461248F8
S31517804E80FFF722FEB8B905E001AA3146FFF71CFEE7
S31517804E900028F2D101A81BF059FB60B101A8FFF7D2
S31517804EA06BFF00F0070401A8FFF77EFF074B53F847
S31517804EB020301C43EC6002B0BDE8F0813A6182175E
S31517804EC0349383172E848217B18382178449821766
S31517804ED0A42083172DE9FF4D06460C4601931746E6
S31517804EE012B1D0F804B000E09346744B3568002CA5
S31517804EF008BF1C46012F00F0A380F36803F0070351
S31517804F000093013B052B00F29B80DFE803F0030E2D
S31517804F102B44608A4FF0FF3303AA21460020FFF700
S31517804F20EBFE039B93F800802DE04FF0FF3303AA27
S31517804F3021460120FFF7E0FE039B1A78002A70D1DD
S31517804F40A21C93427CD12378302B79D194F8018097
S31517804F5008F0DF08B8F1580F4FF0FF3818BF4FF039
S31517804F60000861E0237803F0DF02592A09D0542A12
S31517804F7007D0A3F13002012A03D903F0D703462BB2
S31517804F804FD194F8018018F1000818BF4FF0010827
S31517804F90C8F1000848E04FF00008A246032303AA89
S31517804FA051460020FFF7A8FE039B534539D0B8F129
S31517804FB0030F1A7802D02E2A01D032E08ABB08F165
S31517804FC0010803F1010AB8F1040FE7D138E04FF071
S31517804FD0000AA046022303AA41460120FFF78CFE4A
S31517804FE0039B43451DD008F10202934209D198F8D5
S31517804FF00020302A05D198F8012002F0DF02582ABE
S315178050000FD0BAF1050F1A7802D03A2A01D008E0E4
S315178050103AB90AF1010A03F10108BAF1060FD9D193
S315178050200EE04FF0FF3802E0B8F1FF3F08D1009A43
S315178050302946234B23489B5C224608F0EBFA38E037
S31517805040019B13F0020802D04FF0000831E0012FC0
S3151780505003D025D3022F09D02BE0F3681807F3D591
S315178050602946194808F0D6FAB84622E0F368990611
S3151780507013D45A06E8D52846104C08F018F959461D
S31517805080002818BF04461148224608F0C3FA21465D
S3151780509058461BF02FFA0028D6D029460C4804E02C
S315178050A0F368DB06D0D50B48294608F0B3FA4FF0DC
S315178050B00108404604B0BDE8F08D00BFCA148317B7
S315178050C0FA6D82173584821775848217B284821790
S315178050D092848217CA84821708B508B9054803E0EF
S315178050E013F060F820B1044808F082FA4FF0FF30C9
S315178050F008BD00BFE7848217FA8482174FF4C0234E
S31517805100002013607047002070470000034A002074
S31517805110C9F824200122C9F8282070475C648217B1
S315178051202DE9F045ADF5005D8BB0FFF7ECFF054631
S3151780513012F090F80746FFF7CFFFC0BB0DF1270691
S3151780514026F01F06304608F065F9014668BB01AAA6
S315178051503846FFF7D3FF044648BB2A4619491A48EB
S3151780516008F058FAFD6E0198C5F1000828442946BB
S31517805170013800EA08001EF012EE2946824605F528
S31517805180FF501F3000EA08001EF008EED7F830717E
S315178051900546FFF7B8FF33462A465146B847854234
S315178051A007D00A4808F024FA01E0044604E00124EF
S315178051B002E0074808F01CFA20460DF5005D0BB093
S315178051C0BDE8F085CA1483170B85821741FC8217B1
S315178051D0611383172DE9F04DADF5005D8AB0FFF7A2
S315178051E092FF12F037F80646FFF776FF014678BB2F
S315178051F001AA3046FFF782FF50BB019CFFF783FF5A
S31517805200D6F868A00DF1270525F01F05CAF1000B02
S31517805210514680460AF5FF501F3000EA0B001EF0F4
S31517805220BEED5146074604EB0A00013800EA0B002B
S315178052301EF0B4EDD6F82C412B463A460146404629
S31517805240A047874204D10121284608F099F802E041
S31517805250002008F041F80DF5005D0AB0BDE8F08D25
S3151780526038B504461A4808F00DF80546204609F061
S31517805270D1FA012823D12268164B9A4201D01648B3
S315178052801EE0204609F062F908B9144818E02DB1D6
S31517805290204609F070F908B9114811E0A37F062B4B
S315178052A001D010480CE0216C04F1400009BA09B905
S315178052B00D4805E050F8042B002AFBD104E00B4873
S315178052C008F096F9012038BDBDE8384009F097BE39
S315178052D0BD7E82172705195624858217368582172C
S315178052E04685821754858217648582177285821739
S315178052F0012A10B506DD1022002158681BF01CFE06
S31517805300044601E04FF090542146044808F082F98C
S3151780531020460021BDE81040FFF7A2BF9B85821764
S315178053200A460146014808F075B900BFD785821726
S3151780533030B585B0D9F800403448216CFFF7F0FFB7
S31517805340616C3348FFF7ECFF00213248FFF7E8FF1F
S31517805350A16C3148FFF7E4FFE16C30480024FFF772
S31517805360DFFF20461CF0ACFC0546E0B1024621461D
S315178053702B4808F04FF92CB122462A4901A81BF071
S31517805380D6FE03E0284901A81BF07CF801A8013452
S3151780539007F0E2FE254A01A9002818BF02462448CD
S315178053A008F038F9DDE71CF0C5FE0146214808F0FC
S315178053B031F9214807F0D0FE0146204808F02AF92E
S315178053C01F48D9F8081008F025F91E48D9F8F010A3
S315178053D0FFF7A6FF1C48D9F83010FFF7A1FF1B4827
S315178053E0D9F84410FFF79CFF1948D9F83C10FFF7F6
S315178053F097FF1848D9F84010FFF792FF1648D9F843
S315178054001C10FFF78DFF284605B030BDF185821732
S31517805410FD85821709868217138682171C8682173F
S3151780542024868217378682179F958217E785821774
S31517805430418682174C8682175E8682176586821703
S31517805440778682178D86821796868217A086821709
S31517805450AA868217B1868217BB86821710B504462D
S315178054600A491BF047F868B1094920461BF042F8EC
S3151780547050B1084920461BF03DF8003018BF01206F
S31517805480404210BD022010BD012010BDE78682174D
S31517805490CB0A8317A6868217012A10B513D0022A3C
S315178054A01CD15868FFF7DAFF0128044605D0022871
S315178054B006D0B0B9FCF722FE14E0FCF715FE10E013
S315178054C0FAF7E6FF0DE0FCF71DFE074B07490028A4
S315178054D008BF1946064808F09DF802E04FF0FF34DA
S315178054E000E00024204610BD20878217A00B831763
S315178054F024878217012A10B513D0022A1CD158681F
S31517805500FFF7ACFF0128044605D0022806D0B0B9AC
